{"contracts/Crowdfunding_ERC_20.sol":{"Crowdfunding":{"abi":[{"anonymous":false,"inputs":[{"indexed":true,"internalType":"uint256","name":"campaignId","type":"uint256"},{"indexed":false,"internalType":"address","name":"owner","type":"address"},{"indexed":false,"internalType":"string","name":"title","type":"string"},{"indexed":false,"internalType":"string","name":"description","type":"string"},{"indexed":false,"internalType":"string","name":"image","type":"string"},{"indexed":false,"internalType":"address","name":"tokenAddress","type":"address"}],"name":"CampaignCreated","type":"event"},{"anonymous":false,"inputs":[{"indexed":true,"internalType":"uint256","name":"campaignId","type":"uint256"},{"indexed":false,"internalType":"uint256","name":"totalCollected","type":"uint256"}],"name":"CampaignFunded","type":"event"},{"anonymous":false,"inputs":[{"indexed":true,"internalType":"uint256","name":"campaignId","type":"uint256"},{"indexed":false,"internalType":"address","name":"donor","type":"address"},{"indexed":false,"internalType":"uint256","name":"amount","type":"uint256"}],"name":"DonationReceived","type":"event"},{"anonymous":false,"inputs":[{"indexed":true,"internalType":"address","name":"previousOwner","type":"address"},{"indexed":true,"internalType":"address","name":"newOwner","type":"address"}],"name":"OwnershipTransferred","type":"event"},{"anonymous":false,"inputs":[{"indexed":false,"internalType":"address","name":"account","type":"address"}],"name":"Paused","type":"event"},{"anonymous":false,"inputs":[{"indexed":true,"internalType":"uint256","name":"campaignId","type":"uint256"},{"indexed":false,"internalType":"address","name":"donor","type":"address"},{"indexed":false,"internalType":"uint256","name":"amount","type":"uint256"}],"name":"RefundIssued","type":"event"},{"anonymous":false,"inputs":[{"indexed":true,"internalType":"uint256","name":"campaignId","type":"uint256"},{"indexed":false,"internalType":"address","name":"donor","type":"address"},{"indexed":false,"internalType":"uint256","name":"amount","type":"uint256"}],"name":"TokensMinted","type":"event"},{"anonymous":false,"inputs":[{"indexed":false,"internalType":"address","name":"account","type":"address"}],"name":"Unpaused","type":"event"},{"inputs":[{"internalType":"uint256","name":"","type":"uint256"}],"name":"campaigns","outputs":[{"internalType":"address","name":"owner","type":"address"},{"internalType":"string","name":"title","type":"string"},{"internalType":"string","name":"description","type":"string"},{"internalType":"string","name":"image","type":"string"},{"internalType":"uint256","name":"target","type":"uint256"},{"internalType":"uint256","name":"deadline","type":"uint256"},{"internalType":"uint256","name":"amount_collected","type":"uint256"},{"internalType":"address","name":"tokenAddress","type":"address"},{"internalType":"bool","name":"completed","type":"bool"},{"internalType":"bool","name":"funded","type":"bool"}],"stateMutability":"view","type":"function"},{"inputs":[{"internalType":"uint256","name":"campaignId","type":"uint256"},{"internalType":"address","name":"user","type":"address"}],"name":"checkTokenBalance","outputs":[{"internalType":"uint256","name":"","type":"uint256"}],"stateMutability":"view","type":"function"},{"inputs":[{"internalType":"address","name":"_owner","type":"address"},{"internalType":"string","name":"_title","type":"string"},{"internalType":"string","name":"_description","type":"string"},{"internalType":"uint256","name":"_target","type":"uint256"},{"internalType":"uint256","name":"_deadline","type":"uint256"},{"internalType":"string","name":"_image","type":"string"},{"internalType":"string","name":"_tokenName","type":"string"},{"internalType":"string","name":"_tokenSymbol","type":"string"}],"name":"createCampaign","outputs":[{"internalType":"uint256","name":"","type":"uint256"}],"stateMutability":"nonpayable","type":"function"},{"inputs":[{"internalType":"uint256","name":"_id","type":"uint256"}],"name":"donateToCampaign","outputs":[],"stateMutability":"payable","type":"function"},{"inputs":[],"name":"getCampaigns","outputs":[{"components":[{"internalType":"address","name":"owner","type":"address"},{"internalType":"string","name":"title","type":"string"},{"internalType":"string","name":"description","type":"string"},{"internalType":"string","name":"image","type":"string"},{"internalType":"uint256","name":"target","type":"uint256"},{"internalType":"uint256","name":"deadline","type":"uint256"},{"internalType":"uint256","name":"amount_collected","type":"uint256"},{"internalType":"address","name":"tokenAddress","type":"address"},{"internalType":"address[]","name":"donators","type":"address[]"},{"internalType":"uint256[]","name":"donations","type":"uint256[]"},{"internalType":"bool","name":"completed","type":"bool"},{"internalType":"bool","name":"funded","type":"bool"}],"internalType":"struct Crowdfunding.Campaign[]","name":"","type":"tuple[]"}],"stateMutability":"view","type":"function"},{"inputs":[{"internalType":"uint256","name":"_id","type":"uint256"}],"name":"getDonators","outputs":[{"internalType":"address[]","name":"","type":"address[]"},{"internalType":"uint256[]","name":"","type":"uint256[]"}],"stateMutability":"view","type":"function"},{"inputs":[],"name":"number_of_campaigns","outputs":[{"internalType":"uint256","name":"","type":"uint256"}],"stateMutability":"view","type":"function"},{"inputs":[],"name":"owner","outputs":[{"internalType":"address","name":"","type":"address"}],"stateMutability":"view","type":"function"},{"inputs":[],"name":"pause","outputs":[],"stateMutability":"nonpayable","type":"function"},{"inputs":[],"name":"paused","outputs":[{"internalType":"bool","name":"","type":"bool"}],"stateMutability":"view","type":"function"},{"inputs":[],"name":"renounceOwnership","outputs":[],"stateMutability":"nonpayable","type":"function"},{"inputs":[{"internalType":"address","name":"newOwner","type":"address"}],"name":"transferOwnership","outputs":[],"stateMutability":"nonpayable","type":"function"},{"inputs":[],"name":"unpause","outputs":[],"stateMutability":"nonpayable","type":"function"}],"evm":{"bytecode":{"linkReferences":{},"object":"6080604052600060025534801561001557600080fd5b506000805460ff191690556100293361002e565b610087565b600080546001600160a01b03838116610100818102610100600160a81b0319851617855560405193049190911692909183917f8be0079c531659141344cd1fd0a4f28419497f9722a3daafe3b4186f6b6457e091a35050565b613336806100966000396000f3fe608060405260043610620000d25760003560e01c806361620866116200008957806384f0659b116200006057806384f0659b14620002315780638da5cb5b1462000249578063a6b036331462000281578063f2fde38b14620002a857600080fd5b80636162086614620001dc578063715018a614620002015780638456cb59146200021957600080fd5b80630fa91fa914620000d7578063141961bc14620001155780633601894114620001525780633f4ba83a146200018657806342a4fda814620001a05780635c975abb14620001b7575b600080fd5b348015620000e457600080fd5b50620000fc620000f6366004620015f2565b620002cd565b6040516200010c9291906200160c565b60405180910390f35b3480156200012257600080fd5b506200013a62000134366004620015f2565b620003f5565b6040516200010c9a99989796959493929190620016dc565b3480156200015f57600080fd5b5062000177620001713660046200178b565b6200060e565b6040519081526020016200010c565b3480156200019357600080fd5b506200019e6200069f565b005b6200019e620001b1366004620015f2565b620006b5565b348015620001c457600080fd5b5060005460ff1660405190151581526020016200010c565b348015620001e957600080fd5b5062000177620001fb36600462001865565b620008fb565b3480156200020e57600080fd5b506200019e62000ac5565b3480156200022657600080fd5b506200019e62000adb565b3480156200023e57600080fd5b506200017760025481565b3480156200025657600080fd5b5060005461010090046001600160a01b03166040516001600160a01b0390911681526020016200010c565b3480156200028e57600080fd5b506200029962000aef565b6040516200010c9190620019e5565b348015620002b557600080fd5b506200019e620002c736600462001b38565b62000f33565b606080826002548110620003235760405162461bcd60e51b815260206004820152601860248201527721b0b6b830b4b3b7103237b2b9903737ba1032bc34b9ba1760411b60448201526064015b60405180910390fd5b60008481526001602090815260409182902060088101805484518185028101850190955280855290936009909201928491908301828280156200039057602002820191906000526020600020905b81546001600160a01b0316815260019091019060200180831162000371575b5050505050915080805480602002602001604051908101604052809291908181526020018280548015620003e457602002820191906000526020600020905b815481526020019060010190808311620003cf575b505050505090509250925050915091565b6001602081905260009182526040909120805491810180546001600160a01b0390931692620004249062001b5d565b80601f0160208091040260200160405190810160405280929190818152602001828054620004529062001b5d565b8015620004a35780601f106200047757610100808354040283529160200191620004a3565b820191906000526020600020905b8154815290600101906020018083116200048557829003601f168201915b505050505090806002018054620004ba9062001b5d565b80601f0160208091040260200160405190810160405280929190818152602001828054620004e89062001b5d565b8015620005395780601f106200050d5761010080835404028352916020019162000539565b820191906000526020600020905b8154815290600101906020018083116200051b57829003601f168201915b505050505090806003018054620005509062001b5d565b80601f01602080910402602001604051908101604052809291908181526020018280546200057e9062001b5d565b8015620005cf5780601f10620005a357610100808354040283529160200191620005cf565b820191906000526020600020905b815481529060010190602001808311620005b157829003601f168201915b505050506004830154600584015460068501546007860154600a9096015494959294919350916001600160a01b03169060ff808216916101009004168a565b600082815260016020526040808220600781015491516370a0823160e01b81526001600160a01b0385811660048301529192919091169081906370a0823190602401602060405180830381865afa1580156200066e573d6000803e3d6000fd5b505050506040513d601f19601f8201168201806040525081019062000694919062001b93565b925050505b92915050565b620006a962000fb2565b620006b362001014565b565b620006bf62001068565b8060025481106200070e5760405162461bcd60e51b815260206004820152601860248201527721b0b6b830b4b3b7103237b2b9903737ba1032bc34b9ba1760411b60448201526064016200031a565b600082815260016020526040902060050154421115620007715760405162461bcd60e51b815260206004820152601e60248201527f43616e6e6f7420646f6e6174652c2063616d706169676e20656e6465642e000060448201526064016200031a565b60008281526001602052604081206004810154909134916200079390620010b0565b90506000620007a68460060154620010b0565b90506000620007b584620010b0565b90506000620007c5838562001bc3565b9050808211156200083c576000620007de828462001bc3565b620007f290670de0b6b3a764000062001bd9565b90506200080882670de0b6b3a764000062001bd9565b604051909650339082156108fc029083906000818181858888f1935050505015801562000839573d6000803e3d6000fd5b50505b600886018054600181810183556000928352602080842090920180546001600160a01b0319163317905560098901805491820181558352908220018690556006870180548792906200089090849062001bf3565b9091555050604080513381526020810187905289917f0b5b4c52969ff7329ecf7ee536409fda87812b15a8622bc6e8cdeab3aee14a26910160405180910390a283620008e08760060154620010b0565b10620008f157620008f188620010c6565b5050505050505050565b60006200090762001068565b428511620009585760405162461bcd60e51b815260206004820152601e60248201527f446561646c696e65206d75737420626520696e2074686520667574757265000060448201526064016200031a565b600083836040516200096a90620015e4565b6200097792919062001c09565b604051809103906000f08015801562000994573d6000803e3d6000fd5b50905060006001600060026000815480929190620009b29062001c3b565b909155508152602081019190915260400160002080546001600160a01b0319166001600160a01b038d16178155905060028101620009f18a8262001ca9565b506003810162000a02878262001ca9565b506001810162000a138b8262001ca9565b5060048101889055600581018790556007810180546001600160a01b0319166001600160a01b03841617905560006006820155600a8101805461ffff1916905560025462000a649060019062001bc3565b7fad23dd63ebe4482cbc24a99ae2f8706ad4795da66976dcdbdd22ea900175ddee8c8c8c8a8760405162000a9d95949392919062001d76565b60405180910390a2600160025462000ab6919062001bc3565b9b9a5050505050505050505050565b62000acf62000fb2565b620006b3600062001500565b62000ae562000fb2565b620006b362001559565b6060600060025467ffffffffffffffff81111562000b115762000b11620017ba565b60405190808252806020026020018201604052801562000bbf57816020015b62000bab60405180610180016040528060006001600160a01b0316815260200160608152602001606081526020016060815260200160008152602001600081526020016000815260200160006001600160a01b0316815260200160608152602001606081526020016000151581526020016000151581525090565b81526020019060019003908162000b305790505b50905060005b60025481101562000f2d576000818152600160208181526040928390208351610180810190945280546001600160a01b0316845291820180549184019162000c0d9062001b5d565b80601f016020809104026020016040519081016040528092919081815260200182805462000c3b9062001b5d565b801562000c8c5780601f1062000c605761010080835404028352916020019162000c8c565b820191906000526020600020905b81548152906001019060200180831162000c6e57829003601f168201915b5050505050815260200160028201805462000ca79062001b5d565b80601f016020809104026020016040519081016040528092919081815260200182805462000cd59062001b5d565b801562000d265780601f1062000cfa5761010080835404028352916020019162000d26565b820191906000526020600020905b81548152906001019060200180831162000d0857829003601f168201915b5050505050815260200160038201805462000d419062001b5d565b80601f016020809104026020016040519081016040528092919081815260200182805462000d6f9062001b5d565b801562000dc05780601f1062000d945761010080835404028352916020019162000dc0565b820191906000526020600020905b81548152906001019060200180831162000da257829003601f168201915b505050505081526020016004820154815260200160058201548152602001600682015481526020016007820160009054906101000a90046001600160a01b03166001600160a01b03166001600160a01b031681526020016008820180548060200260200160405190810160405280929190818152602001828054801562000e7157602002820191906000526020600020905b81546001600160a01b0316815260019091019060200180831162000e52575b505050505081526020016009820180548060200260200160405190810160405280929190818152602001828054801562000ecb57602002820191906000526020600020905b81548152602001906001019080831162000eb6575b5050509183525050600a919091015460ff80821615156020840152610100909104161515604090910152825183908390811062000f0c5762000f0c62001dda565b6020026020010181905250808062000f249062001c3b565b91505062000bc5565b50919050565b62000f3d62000fb2565b6001600160a01b03811662000fa45760405162461bcd60e51b815260206004820152602660248201527f4f776e61626c653a206e6577206f776e657220697320746865207a65726f206160448201526564647265737360d01b60648201526084016200031a565b62000faf8162001500565b50565b6000546001600160a01b03610100909104163314620006b35760405162461bcd60e51b815260206004820181905260248201527f4f776e61626c653a2063616c6c6572206973206e6f7420746865206f776e657260448201526064016200031a565b6200101e62001599565b6000805460ff191690557f5db9ee0a495bf2e6ff9c91a7834c1ba4fdd244a5e8aa4e537bd38aeae4b073aa335b6040516001600160a01b03909116815260200160405180910390a1565b60005460ff1615620006b35760405162461bcd60e51b815260206004820152601060248201526f14185d5cd8589b194e881c185d5cd95960821b60448201526064016200031a565b600062000699670de0b6b3a76400008362001df0565b6000818152600160205260409020600a81015460ff1615620011375760405162461bcd60e51b8152602060048201526024808201527f43616d706169676e2068617320616c7265616479206265656e2066696e616c696044820152633d32b21760e11b60648201526084016200031a565b600a8101805460ff191660011790556004810154600682015410620013ba57600a8101805461ff001916610100179055600781015460068201546001600160a01b039091169060005b60088401548110156200137457600082846001600160a01b031663313ce5676040518163ffffffff1660e01b8152600401602060405180830381865afa158015620011cf573d6000803e3d6000fd5b505050506040513d601f19601f82011682018060405250810190620011f5919062001e13565b6200120290600a62001f35565b8660090184815481106200121a576200121a62001dda565b9060005260206000200154620f424062001235919062001bd9565b62001241919062001bd9565b6200124d919062001df0565b9050836001600160a01b031663a9059cbb86600801848154811062001276576200127662001dda565b60009182526020909120015460405160e083901b6001600160e01b03191681526001600160a01b039091166004820152602481018490526044016020604051808303816000875af1158015620012d0573d6000803e3d6000fd5b505050506040513d601f19601f82011682018060405250810190620012f6919062001f46565b50857f5c8e94c72da12a6d6a1213edafd788896df5fd2d6527a9adeb11f8e5d0be1c4c86600801848154811062001331576200133162001dda565b60009182526020918290200154604080516001600160a01b0390921682529181018590520160405180910390a250806200136b8162001c3b565b91505062001180565b50837f318daf69d77e946364e804495b2184222324b99fddeb42ab5fd25a919f596e8c8460060154604051620013ac91815260200190565b60405180910390a250505050565b60005b6008820154811015620014fb57816008018181548110620013e257620013e262001dda565b6000918252602090912001546009830180546001600160a01b03909216916108fc91908490811062001418576200141862001dda565b90600052602060002001549081150290604051600060405180830381858888f193505050501580156200144f573d6000803e3d6000fd5b50827f7a482fdeb6bc9a1376f597068a214a7a39472bb2eff1b8cad21ba04f49ddca1b8360080183815481106200148a576200148a62001dda565b6000918252602090912001546009850180546001600160a01b039092169185908110620014bb57620014bb62001dda565b60009182526020918290200154604080516001600160a01b039094168452918301520160405180910390a280620014f28162001c3b565b915050620013bd565b505050565b600080546001600160a01b03838116610100818102610100600160a81b0319851617855560405193049190911692909183917f8be0079c531659141344cd1fd0a4f28419497f9722a3daafe3b4186f6b6457e091a35050565b6200156362001068565b6000805460ff191660011790557f62e78cea01bee320cd4e420270b5ea74000d11b0c9f74754ebdbfc544b05a2586200104b3390565b60005460ff16620006b35760405162461bcd60e51b815260206004820152601460248201527314185d5cd8589b194e881b9bdd081c185d5cd95960621b60448201526064016200031a565b6113968062001f6b83390190565b6000602082840312156200160557600080fd5b5035919050565b604080825283519082018190526000906020906060840190828701845b82811015620016505781516001600160a01b03168452928401929084019060010162001629565b5050508381038285015284518082528583019183019060005b81811015620016875783518352928401929184019160010162001669565b5090979650505050505050565b6000815180845260005b81811015620016bc576020818501810151868301820152016200169e565b506000602082860101526020601f19601f83011685010191505092915050565b6001600160a01b038b8116825261014060208301819052600091620017048483018e62001694565b915083820360408501526200171a828d62001694565b9150838203606085015262001730828c62001694565b608085019a909a5260a0840198909852505060c08101949094529190931660e083015291151561010082015290151561012090910152949350505050565b80356001600160a01b03811681146200178657600080fd5b919050565b600080604083850312156200179f57600080fd5b82359150620017b1602084016200176e565b90509250929050565b634e487b7160e01b600052604160045260246000fd5b600082601f830112620017e257600080fd5b813567ffffffffffffffff80821115620018005762001800620017ba565b604051601f8301601f19908116603f011681019082821181831017156200182b576200182b620017ba565b816040528381528660208588010111156200184557600080fd5b836020870160208301376000602085830101528094505050505092915050565b600080600080600080600080610100898b0312156200188357600080fd5b6200188e896200176e565b9750602089013567ffffffffffffffff80821115620018ac57600080fd5b620018ba8c838d01620017d0565b985060408b0135915080821115620018d157600080fd5b620018df8c838d01620017d0565b975060608b0135965060808b0135955060a08b01359150808211156200190457600080fd5b620019128c838d01620017d0565b945060c08b01359150808211156200192957600080fd5b620019378c838d01620017d0565b935060e08b01359150808211156200194e57600080fd5b506200195d8b828c01620017d0565b9150509295985092959890939650565b600081518084526020808501945080840160005b83811015620019a85781516001600160a01b03168752958201959082019060010162001981565b509495945050505050565b600081518084526020808501945080840160005b83811015620019a857815187529582019590820190600101620019c7565b60006020808301818452808551808352604092508286019150828160051b87010184880160005b8381101562001b2a57888303603f19018552815180516001600160a01b0316845261018088820151818a87015262001a478287018262001694565b915050878201518582038987015262001a61828262001694565b9150506060808301518683038288015262001a7d838262001694565b6080858101519089015260a0808601519089015260c0808601519089015260e0808601516001600160a01b03169089015261010080860151898303828b01529194509250905062001acf83826200196d565b92505050610120808301518683038288015262001aed8382620019b3565b925050506101408083015162001b068288018215159052565b50506101609182015115159490910193909352938601939086019060010162001a0c565b509098975050505050505050565b60006020828403121562001b4b57600080fd5b62001b56826200176e565b9392505050565b600181811c9082168062001b7257607f821691505b60208210810362000f2d57634e487b7160e01b600052602260045260246000fd5b60006020828403121562001ba657600080fd5b5051919050565b634e487b7160e01b600052601160045260246000fd5b8181038181111562000699576200069962001bad565b808202811582820484141762000699576200069962001bad565b8082018082111562000699576200069962001bad565b60408152600062001c1e604083018562001694565b828103602084015262001c32818562001694565b95945050505050565b60006001820162001c505762001c5062001bad565b5060010190565b601f821115620014fb57600081815260208120601f850160051c8101602086101562001c805750805b601f850160051c820191505b8181101562001ca15782815560010162001c8c565b505050505050565b815167ffffffffffffffff81111562001cc65762001cc6620017ba565b62001cde8162001cd7845462001b5d565b8462001c57565b602080601f83116001811462001d16576000841562001cfd5750858301515b600019600386901b1c1916600185901b17855562001ca1565b600085815260208120601f198616915b8281101562001d475788860151825594840194600190910190840162001d26565b508582101562001d665787850151600019600388901b60f8161c191681555b5050505050600190811b01905550565b600060018060a01b03808816835260a0602084015262001d9a60a084018862001694565b838103604085015262001dae818862001694565b9050838103606085015262001dc4818762001694565b9250508084166080840152509695505050505050565b634e487b7160e01b600052603260045260246000fd5b60008262001e0e57634e487b7160e01b600052601260045260246000fd5b500490565b60006020828403121562001e2657600080fd5b815160ff8116811462001b5657600080fd5b600181815b8085111562001e7957816000190482111562001e5d5762001e5d62001bad565b8085161562001e6b57918102915b93841c939080029062001e3d565b509250929050565b60008262001e925750600162000699565b8162001ea15750600062000699565b816001811462001eba576002811462001ec55762001ee5565b600191505062000699565b60ff84111562001ed95762001ed962001bad565b50506001821b62000699565b5060208310610133831016604e8410600b841016171562001f0a575081810a62000699565b62001f16838362001e38565b806000190482111562001f2d5762001f2d62001bad565b029392505050565b600062001b5660ff84168362001e81565b60006020828403121562001f5957600080fd5b8151801515811462001b5657600080fdfe60806040523480156200001157600080fd5b506040516200139638038062001396833981016040819052620000349162000300565b81816003620000448382620003f8565b506004620000538282620003f8565b50506005805460ff19169055506200006b336200009b565b62000093336200007e6012600a620005d9565b6200008d90620f4240620005ee565b620000f5565b50506200061e565b600580546001600160a01b03838116610100818102610100600160a81b031985161790945560405193909204169182907f8be0079c531659141344cd1fd0a4f28419497f9722a3daafe3b4186f6b6457e090600090a35050565b6001600160a01b038216620001515760405162461bcd60e51b815260206004820152601f60248201527f45524332303a206d696e7420746f20746865207a65726f20616464726573730060448201526064015b60405180910390fd5b6200015f60008383620001ca565b806002600082825462000173919062000608565b90915550506001600160a01b038216600081815260208181526040808320805486019055518481527fddf252ad1be2c89b69c2b068fc378daa952ba7f163c4a11628f55a4df523b3ef910160405180910390a35050565b620001d4620001f1565b620001ec838383620001ec60201b620005291760201c565b505050565b60055460ff1615620002395760405162461bcd60e51b815260206004820152601060248201526f14185d5cd8589b194e881c185d5cd95960821b604482015260640162000148565b565b634e487b7160e01b600052604160045260246000fd5b600082601f8301126200026357600080fd5b81516001600160401b03808211156200028057620002806200023b565b604051601f8301601f19908116603f01168101908282118183101715620002ab57620002ab6200023b565b81604052838152602092508683858801011115620002c857600080fd5b600091505b83821015620002ec5785820183015181830184015290820190620002cd565b600093810190920192909252949350505050565b600080604083850312156200031457600080fd5b82516001600160401b03808211156200032c57600080fd5b6200033a8683870162000251565b935060208501519150808211156200035157600080fd5b50620003608582860162000251565b9150509250929050565b600181811c908216806200037f57607f821691505b602082108103620003a057634e487b7160e01b600052602260045260246000fd5b50919050565b601f821115620001ec57600081815260208120601f850160051c81016020861015620003cf5750805b601f850160051c820191505b81811015620003f057828155600101620003db565b505050505050565b81516001600160401b038111156200041457620004146200023b565b6200042c816200042584546200036a565b84620003a6565b602080601f8311600181146200046457600084156200044b5750858301515b600019600386901b1c1916600185901b178555620003f0565b600085815260208120601f198616915b82811015620004955788860151825594840194600190910190840162000474565b5085821015620004b45787850151600019600388901b60f8161c191681555b5050505050600190811b01905550565b634e487b7160e01b600052601160045260246000fd5b600181815b808511156200051b578160001904821115620004ff57620004ff620004c4565b808516156200050d57918102915b93841c9390800290620004df565b509250929050565b6000826200053457506001620005d3565b816200054357506000620005d3565b81600181146200055c5760028114620005675762000587565b6001915050620005d3565b60ff8411156200057b576200057b620004c4565b50506001821b620005d3565b5060208310610133831016604e8410600b8410161715620005ac575081810a620005d3565b620005b88383620004da565b8060001904821115620005cf57620005cf620004c4565b0290505b92915050565b6000620005e7838362000523565b9392505050565b8082028115828204841417620005d357620005d3620004c4565b80820180821115620005d357620005d3620004c4565b610d68806200062e6000396000f3fe608060405234801561001057600080fd5b50600436106101215760003560e01c806370a08231116100ad57806395d89b411161007157806395d89b411461024b578063a457c2d714610253578063a9059cbb14610266578063dd62ed3e14610279578063f2fde38b1461028c57600080fd5b806370a08231146101d6578063715018a6146101ff57806379cc6790146102075780638456cb591461021a5780638da5cb5b1461022257600080fd5b8063313ce567116100f4578063313ce5671461018c578063395093511461019b5780633f4ba83a146101ae57806342966c68146101b85780635c975abb146101cb57600080fd5b806306fdde0314610126578063095ea7b31461014457806318160ddd1461016757806323b872dd14610179575b600080fd5b61012e61029f565b60405161013b9190610b99565b60405180910390f35b610157610152366004610c03565b610331565b604051901515815260200161013b565b6002545b60405190815260200161013b565b610157610187366004610c2d565b61034b565b6040516012815260200161013b565b6101576101a9366004610c03565b61036f565b6101b6610391565b005b6101b66101c6366004610c69565b6103a3565b60055460ff16610157565b61016b6101e4366004610c82565b6001600160a01b031660009081526020819052604090205490565b6101b66103b0565b6101b6610215366004610c03565b6103c2565b6101b66103db565b60055461010090046001600160a01b03166040516001600160a01b03909116815260200161013b565b61012e6103eb565b610157610261366004610c03565b6103fa565b610157610274366004610c03565b61047a565b61016b610287366004610ca4565b610488565b6101b661029a366004610c82565b6104b3565b6060600380546102ae90610cd7565b80601f01602080910402602001604051908101604052809291908181526020018280546102da90610cd7565b80156103275780601f106102fc57610100808354040283529160200191610327565b820191906000526020600020905b81548152906001019060200180831161030a57829003601f168201915b5050505050905090565b60003361033f81858561052e565b60019150505b92915050565b600033610359858285610652565b6103648585856106cc565b506001949350505050565b60003361033f8185856103828383610488565b61038c9190610d11565b61052e565b61039961087b565b6103a16108db565b565b6103ad338261092d565b50565b6103b861087b565b6103a16000610a6b565b6103cd823383610652565b6103d7828261092d565b5050565b6103e361087b565b6103a1610ac5565b6060600480546102ae90610cd7565b600033816104088286610488565b90508381101561046d5760405162461bcd60e51b815260206004820152602560248201527f45524332303a2064656372656173656420616c6c6f77616e63652062656c6f77604482015264207a65726f60d81b60648201526084015b60405180910390fd5b610364828686840361052e565b60003361033f8185856106cc565b6001600160a01b03918216600090815260016020908152604080832093909416825291909152205490565b6104bb61087b565b6001600160a01b0381166105205760405162461bcd60e51b815260206004820152602660248201527f4f776e61626c653a206e6577206f776e657220697320746865207a65726f206160448201526564647265737360d01b6064820152608401610464565b6103ad81610a6b565b505050565b6001600160a01b0383166105905760405162461bcd60e51b8152602060048201526024808201527f45524332303a20617070726f76652066726f6d20746865207a65726f206164646044820152637265737360e01b6064820152608401610464565b6001600160a01b0382166105f15760405162461bcd60e51b815260206004820152602260248201527f45524332303a20617070726f766520746f20746865207a65726f206164647265604482015261737360f01b6064820152608401610464565b6001600160a01b0383811660008181526001602090815260408083209487168084529482529182902085905590518481527f8c5be1e5ebec7d5bd14f71427d1e84f3dd0314c0f7b2291e5b200ac8c7c3b925910160405180910390a3505050565b600061065e8484610488565b905060001981146106c657818110156106b95760405162461bcd60e51b815260206004820152601d60248201527f45524332303a20696e73756666696369656e7420616c6c6f77616e63650000006044820152606401610464565b6106c6848484840361052e565b50505050565b6001600160a01b0383166107305760405162461bcd60e51b815260206004820152602560248201527f45524332303a207472616e736665722066726f6d20746865207a65726f206164604482015264647265737360d81b6064820152608401610464565b6001600160a01b0382166107925760405162461bcd60e51b815260206004820152602360248201527f45524332303a207472616e7366657220746f20746865207a65726f206164647260448201526265737360e81b6064820152608401610464565b61079d838383610b02565b6001600160a01b038316600090815260208190526040902054818110156108155760405162461bcd60e51b815260206004820152602660248201527f45524332303a207472616e7366657220616d6f756e7420657863656564732062604482015265616c616e636560d01b6064820152608401610464565b6001600160a01b03848116600081815260208181526040808320878703905593871680835291849020805487019055925185815290927fddf252ad1be2c89b69c2b068fc378daa952ba7f163c4a11628f55a4df523b3ef910160405180910390a36106c6565b6005546001600160a01b036101009091041633146103a15760405162461bcd60e51b815260206004820181905260248201527f4f776e61626c653a2063616c6c6572206973206e6f7420746865206f776e65726044820152606401610464565b6108e3610b0a565b6005805460ff191690557f5db9ee0a495bf2e6ff9c91a7834c1ba4fdd244a5e8aa4e537bd38aeae4b073aa335b6040516001600160a01b03909116815260200160405180910390a1565b6001600160a01b03821661098d5760405162461bcd60e51b815260206004820152602160248201527f45524332303a206275726e2066726f6d20746865207a65726f206164647265736044820152607360f81b6064820152608401610464565b61099982600083610b02565b6001600160a01b03821660009081526020819052604090205481811015610a0d5760405162461bcd60e51b815260206004820152602260248201527f45524332303a206275726e20616d6f756e7420657863656564732062616c616e604482015261636560f01b6064820152608401610464565b6001600160a01b0383166000818152602081815260408083208686039055600280548790039055518581529192917fddf252ad1be2c89b69c2b068fc378daa952ba7f163c4a11628f55a4df523b3ef910160405180910390a3505050565b600580546001600160a01b03838116610100818102610100600160a81b031985161790945560405193909204169182907f8be0079c531659141344cd1fd0a4f28419497f9722a3daafe3b4186f6b6457e090600090a35050565b610acd610b53565b6005805460ff191660011790557f62e78cea01bee320cd4e420270b5ea74000d11b0c9f74754ebdbfc544b05a2586109103390565b610529610b53565b60055460ff166103a15760405162461bcd60e51b815260206004820152601460248201527314185d5cd8589b194e881b9bdd081c185d5cd95960621b6044820152606401610464565b60055460ff16156103a15760405162461bcd60e51b815260206004820152601060248201526f14185d5cd8589b194e881c185d5cd95960821b6044820152606401610464565b600060208083528351808285015260005b81811015610bc657858101830151858201604001528201610baa565b506000604082860101526040601f19601f8301168501019250505092915050565b80356001600160a01b0381168114610bfe57600080fd5b919050565b60008060408385031215610c1657600080fd5b610c1f83610be7565b946020939093013593505050565b600080600060608486031215610c4257600080fd5b610c4b84610be7565b9250610c5960208501610be7565b9150604084013590509250925092565b600060208284031215610c7b57600080fd5b5035919050565b600060208284031215610c9457600080fd5b610c9d82610be7565b9392505050565b60008060408385031215610cb757600080fd5b610cc083610be7565b9150610cce60208401610be7565b90509250929050565b600181811c90821680610ceb57607f821691505b602082108103610d0b57634e487b7160e01b600052602260045260246000fd5b50919050565b8082018082111561034557634e487b7160e01b600052601160045260246000fdfea264697066735822122081f53d33557c96a7f192a47617d2e4018ceb830b8132d07127d2bd7bdff378a264736f6c63430008110033a26469706673582212206690cec202693838d7792581f8e01b032f30f752151745592b6300dc9b6ff28464736f6c63430008110033","opcodes":"PUSH1 0x80 PUSH1 0x40 MSTORE PUSH1 0x0 PUSH1 0x2 SSTORE CALLVALUE DUP1 ISZERO PUSH2 0x15 JUMPI PUSH1 0x0 DUP1 REVERT JUMPDEST POP PUSH1 0x0 DUP1 SLOAD PUSH1 0xFF NOT AND SWAP1 SSTORE PUSH2 0x29 CALLER PUSH2 0x2E JUMP JUMPDEST PUSH2 0x87 JUMP JUMPDEST PUSH1 0x0 DUP1 SLOAD PUSH1 0x1 PUSH1 0x1 PUSH1 0xA0 SHL SUB DUP4 DUP2 AND PUSH2 0x100 DUP2 DUP2 MUL PUSH2 0x100 PUSH1 0x1 PUSH1 0xA8 SHL SUB NOT DUP6 AND OR DUP6 SSTORE PUSH1 0x40 MLOAD SWAP4 DIV SWAP2 SWAP1 SWAP2 AND SWAP3 SWAP1 SWAP2 DUP4 SWAP2 PUSH32 0x8BE0079C531659141344CD1FD0A4F28419497F9722A3DAAFE3B4186F6B6457E0 SWAP2 LOG3 POP POP JUMP JUMPDEST PUSH2 0x3336 DUP1 PUSH2 0x96 PUSH1 0x0 CODECOPY PUSH1 0x0 RETURN INVALID PUSH1 0x80 PUSH1 0x40 MSTORE PUSH1 0x4 CALLDATASIZE LT PUSH3 0xD2 JUMPI PUSH1 0x0 CALLDATALOAD PUSH1 0xE0 SHR DUP1 PUSH4 0x61620866 GT PUSH3 0x89 JUMPI DUP1 PUSH4 0x84F0659B GT PUSH3 0x60 JUMPI DUP1 PUSH4 0x84F0659B EQ PUSH3 0x231 JUMPI DUP1 PUSH4 0x8DA5CB5B EQ PUSH3 0x249 JUMPI DUP1 PUSH4 0xA6B03633 EQ PUSH3 0x281 JUMPI DUP1 PUSH4 0xF2FDE38B EQ PUSH3 0x2A8 JUMPI PUSH1 0x0 DUP1 REVERT JUMPDEST DUP1 PUSH4 0x61620866 EQ PUSH3 0x1DC JUMPI DUP1 PUSH4 0x715018A6 EQ PUSH3 0x201 JUMPI DUP1 PUSH4 0x8456CB59 EQ PUSH3 0x219 JUMPI PUSH1 0x0 DUP1 REVERT JUMPDEST DUP1 PUSH4 0xFA91FA9 EQ PUSH3 0xD7 JUMPI DUP1 PUSH4 0x141961BC EQ PUSH3 0x115 JUMPI DUP1 PUSH4 0x36018941 EQ PUSH3 0x152 JUMPI DUP1 PUSH4 0x3F4BA83A EQ PUSH3 0x186 JUMPI DUP1 PUSH4 0x42A4FDA8 EQ PUSH3 0x1A0 JUMPI DUP1 PUSH4 0x5C975ABB EQ PUSH3 0x1B7 JUMPI JUMPDEST PUSH1 0x0 DUP1 REVERT JUMPDEST CALLVALUE DUP1 ISZERO PUSH3 0xE4 JUMPI PUSH1 0x0 DUP1 REVERT JUMPDEST POP PUSH3 0xFC PUSH3 0xF6 CALLDATASIZE PUSH1 0x4 PUSH3 0x15F2 JUMP JUMPDEST PUSH3 0x2CD JUMP JUMPDEST PUSH1 0x40 MLOAD PUSH3 0x10C SWAP3 SWAP2 SWAP1 PUSH3 0x160C JUMP JUMPDEST PUSH1 0x40 MLOAD DUP1 SWAP2 SUB SWAP1 RETURN JUMPDEST CALLVALUE DUP1 ISZERO PUSH3 0x122 JUMPI PUSH1 0x0 DUP1 REVERT JUMPDEST POP PUSH3 0x13A PUSH3 0x134 CALLDATASIZE PUSH1 0x4 PUSH3 0x15F2 JUMP JUMPDEST PUSH3 0x3F5 JUMP JUMPDEST PUSH1 0x40 MLOAD PUSH3 0x10C SWAP11 SWAP10 SWAP9 SWAP8 SWAP7 SWAP6 SWAP5 SWAP4 SWAP3 SWAP2 SWAP1 PUSH3 0x16DC JUMP JUMPDEST CALLVALUE DUP1 ISZERO PUSH3 0x15F JUMPI PUSH1 0x0 DUP1 REVERT JUMPDEST POP PUSH3 0x177 PUSH3 0x171 CALLDATASIZE PUSH1 0x4 PUSH3 0x178B JUMP JUMPDEST PUSH3 0x60E JUMP JUMPDEST PUSH1 0x40 MLOAD SWAP1 DUP2 MSTORE PUSH1 0x20 ADD PUSH3 0x10C JUMP JUMPDEST CALLVALUE DUP1 ISZERO PUSH3 0x193 JUMPI PUSH1 0x0 DUP1 REVERT JUMPDEST POP PUSH3 0x19E PUSH3 0x69F JUMP JUMPDEST STOP JUMPDEST PUSH3 0x19E PUSH3 0x1B1 CALLDATASIZE PUSH1 0x4 PUSH3 0x15F2 JUMP JUMPDEST PUSH3 0x6B5 JUMP JUMPDEST CALLVALUE DUP1 ISZERO PUSH3 0x1C4 JUMPI PUSH1 0x0 DUP1 REVERT JUMPDEST POP PUSH1 0x0 SLOAD PUSH1 0xFF AND PUSH1 0x40 MLOAD SWAP1 ISZERO ISZERO DUP2 MSTORE PUSH1 0x20 ADD PUSH3 0x10C JUMP JUMPDEST CALLVALUE DUP1 ISZERO PUSH3 0x1E9 JUMPI PUSH1 0x0 DUP1 REVERT JUMPDEST POP PUSH3 0x177 PUSH3 0x1FB CALLDATASIZE PUSH1 0x4 PUSH3 0x1865 JUMP JUMPDEST PUSH3 0x8FB JUMP JUMPDEST CALLVALUE DUP1 ISZERO PUSH3 0x20E JUMPI PUSH1 0x0 DUP1 REVERT JUMPDEST POP PUSH3 0x19E PUSH3 0xAC5 JUMP JUMPDEST CALLVALUE DUP1 ISZERO PUSH3 0x226 JUMPI PUSH1 0x0 DUP1 REVERT JUMPDEST POP PUSH3 0x19E PUSH3 0xADB JUMP JUMPDEST CALLVALUE DUP1 ISZERO PUSH3 0x23E JUMPI PUSH1 0x0 DUP1 REVERT JUMPDEST POP PUSH3 0x177 PUSH1 0x2 SLOAD DUP2 JUMP JUMPDEST CALLVALUE DUP1 ISZERO PUSH3 0x256 JUMPI PUSH1 0x0 DUP1 REVERT JUMPDEST POP PUSH1 0x0 SLOAD PUSH2 0x100 SWAP1 DIV PUSH1 0x1 PUSH1 0x1 PUSH1 0xA0 SHL SUB AND PUSH1 0x40 MLOAD PUSH1 0x1 PUSH1 0x1 PUSH1 0xA0 SHL SUB SWAP1 SWAP2 AND DUP2 MSTORE PUSH1 0x20 ADD PUSH3 0x10C JUMP JUMPDEST CALLVALUE DUP1 ISZERO PUSH3 0x28E JUMPI PUSH1 0x0 DUP1 REVERT JUMPDEST POP PUSH3 0x299 PUSH3 0xAEF JUMP JUMPDEST PUSH1 0x40 MLOAD PUSH3 0x10C SWAP2 SWAP1 PUSH3 0x19E5 JUMP JUMPDEST CALLVALUE DUP1 ISZERO PUSH3 0x2B5 JUMPI PUSH1 0x0 DUP1 REVERT JUMPDEST POP PUSH3 0x19E PUSH3 0x2C7 CALLDATASIZE PUSH1 0x4 PUSH3 0x1B38 JUMP JUMPDEST PUSH3 0xF33 JUMP JUMPDEST PUSH1 0x60 DUP1 DUP3 PUSH1 0x2 SLOAD DUP2 LT PUSH3 0x323 JUMPI PUSH1 0x40 MLOAD PUSH3 0x461BCD PUSH1 0xE5 SHL DUP2 MSTORE PUSH1 0x20 PUSH1 0x4 DUP3 ADD MSTORE PUSH1 0x18 PUSH1 0x24 DUP3 ADD MSTORE PUSH24 0x21B0B6B830B4B3B7103237B2B9903737BA1032BC34B9BA17 PUSH1 0x41 SHL PUSH1 0x44 DUP3 ADD MSTORE PUSH1 0x64 ADD JUMPDEST PUSH1 0x40 MLOAD DUP1 SWAP2 SUB SWAP1 REVERT JUMPDEST PUSH1 0x0 DUP5 DUP2 MSTORE PUSH1 0x1 PUSH1 0x20 SWAP1 DUP2 MSTORE PUSH1 0x40 SWAP2 DUP3 SWAP1 KECCAK256 PUSH1 0x8 DUP2 ADD DUP1 SLOAD DUP5 MLOAD DUP2 DUP6 MUL DUP2 ADD DUP6 ADD SWAP1 SWAP6 MSTORE DUP1 DUP6 MSTORE SWAP1 SWAP4 PUSH1 0x9 SWAP1 SWAP3 ADD SWAP3 DUP5 SWAP2 SWAP1 DUP4 ADD DUP3 DUP3 DUP1 ISZERO PUSH3 0x390 JUMPI PUSH1 0x20 MUL DUP3 ADD SWAP2 SWAP1 PUSH1 0x0 MSTORE PUSH1 0x20 PUSH1 0x0 KECCAK256 SWAP1 JUMPDEST DUP2 SLOAD PUSH1 0x1 PUSH1 0x1 PUSH1 0xA0 SHL SUB AND DUP2 MSTORE PUSH1 0x1 SWAP1 SWAP2 ADD SWAP1 PUSH1 0x20 ADD DUP1 DUP4 GT PUSH3 0x371 JUMPI JUMPDEST POP POP POP POP POP SWAP2 POP DUP1 DUP1 SLOAD DUP1 PUSH1 0x20 MUL PUSH1 0x20 ADD PUSH1 0x40 MLOAD SWAP1 DUP2 ADD PUSH1 0x40 MSTORE DUP1 SWAP3 SWAP2 SWAP1 DUP2 DUP2 MSTORE PUSH1 0x20 ADD DUP3 DUP1 SLOAD DUP1 ISZERO PUSH3 0x3E4 JUMPI PUSH1 0x20 MUL DUP3 ADD SWAP2 SWAP1 PUSH1 0x0 MSTORE PUSH1 0x20 PUSH1 0x0 KECCAK256 SWAP1 JUMPDEST DUP2 SLOAD DUP2 MSTORE PUSH1 0x20 ADD SWAP1 PUSH1 0x1 ADD SWAP1 DUP1 DUP4 GT PUSH3 0x3CF JUMPI JUMPDEST POP POP POP POP POP SWAP1 POP SWAP3 POP SWAP3 POP POP SWAP2 POP SWAP2 JUMP JUMPDEST PUSH1 0x1 PUSH1 0x20 DUP2 SWAP1 MSTORE PUSH1 0x0 SWAP2 DUP3 MSTORE PUSH1 0x40 SWAP1 SWAP2 KECCAK256 DUP1 SLOAD SWAP2 DUP2 ADD DUP1 SLOAD PUSH1 0x1 PUSH1 0x1 PUSH1 0xA0 SHL SUB SWAP1 SWAP4 AND SWAP3 PUSH3 0x424 SWAP1 PUSH3 0x1B5D JUMP JUMPDEST DUP1 PUSH1 0x1F ADD PUSH1 0x20 DUP1 SWAP2 DIV MUL PUSH1 0x20 ADD PUSH1 0x40 MLOAD SWAP1 DUP2 ADD PUSH1 0x40 MSTORE DUP1 SWAP3 SWAP2 SWAP1 DUP2 DUP2 MSTORE PUSH1 0x20 ADD DUP3 DUP1 SLOAD PUSH3 0x452 SWAP1 PUSH3 0x1B5D JUMP JUMPDEST DUP1 ISZERO PUSH3 0x4A3 JUMPI DUP1 PUSH1 0x1F LT PUSH3 0x477 JUMPI PUSH2 0x100 DUP1 DUP4 SLOAD DIV MUL DUP4 MSTORE SWAP2 PUSH1 0x20 ADD SWAP2 PUSH3 0x4A3 JUMP JUMPDEST DUP3 ADD SWAP2 SWAP1 PUSH1 0x0 MSTORE PUSH1 0x20 PUSH1 0x0 KECCAK256 SWAP1 JUMPDEST DUP2 SLOAD DUP2 MSTORE SWAP1 PUSH1 0x1 ADD SWAP1 PUSH1 0x20 ADD DUP1 DUP4 GT PUSH3 0x485 JUMPI DUP3 SWAP1 SUB PUSH1 0x1F AND DUP3 ADD SWAP2 JUMPDEST POP POP POP POP POP SWAP1 DUP1 PUSH1 0x2 ADD DUP1 SLOAD PUSH3 0x4BA SWAP1 PUSH3 0x1B5D JUMP JUMPDEST DUP1 PUSH1 0x1F ADD PUSH1 0x20 DUP1 SWAP2 DIV MUL PUSH1 0x20 ADD PUSH1 0x40 MLOAD SWAP1 DUP2 ADD PUSH1 0x40 MSTORE DUP1 SWAP3 SWAP2 SWAP1 DUP2 DUP2 MSTORE PUSH1 0x20 ADD DUP3 DUP1 SLOAD PUSH3 0x4E8 SWAP1 PUSH3 0x1B5D JUMP JUMPDEST DUP1 ISZERO PUSH3 0x539 JUMPI DUP1 PUSH1 0x1F LT PUSH3 0x50D JUMPI PUSH2 0x100 DUP1 DUP4 SLOAD DIV MUL DUP4 MSTORE SWAP2 PUSH1 0x20 ADD SWAP2 PUSH3 0x539 JUMP JUMPDEST DUP3 ADD SWAP2 SWAP1 PUSH1 0x0 MSTORE PUSH1 0x20 PUSH1 0x0 KECCAK256 SWAP1 JUMPDEST DUP2 SLOAD DUP2 MSTORE SWAP1 PUSH1 0x1 ADD SWAP1 PUSH1 0x20 ADD DUP1 DUP4 GT PUSH3 0x51B JUMPI DUP3 SWAP1 SUB PUSH1 0x1F AND DUP3 ADD SWAP2 JUMPDEST POP POP POP POP POP SWAP1 DUP1 PUSH1 0x3 ADD DUP1 SLOAD PUSH3 0x550 SWAP1 PUSH3 0x1B5D JUMP JUMPDEST DUP1 PUSH1 0x1F ADD PUSH1 0x20 DUP1 SWAP2 DIV MUL PUSH1 0x20 ADD PUSH1 0x40 MLOAD SWAP1 DUP2 ADD PUSH1 0x40 MSTORE DUP1 SWAP3 SWAP2 SWAP1 DUP2 DUP2 MSTORE PUSH1 0x20 ADD DUP3 DUP1 SLOAD PUSH3 0x57E SWAP1 PUSH3 0x1B5D JUMP JUMPDEST DUP1 ISZERO PUSH3 0x5CF JUMPI DUP1 PUSH1 0x1F LT PUSH3 0x5A3 JUMPI PUSH2 0x100 DUP1 DUP4 SLOAD DIV MUL DUP4 MSTORE SWAP2 PUSH1 0x20 ADD SWAP2 PUSH3 0x5CF JUMP JUMPDEST DUP3 ADD SWAP2 SWAP1 PUSH1 0x0 MSTORE PUSH1 0x20 PUSH1 0x0 KECCAK256 SWAP1 JUMPDEST DUP2 SLOAD DUP2 MSTORE SWAP1 PUSH1 0x1 ADD SWAP1 PUSH1 0x20 ADD DUP1 DUP4 GT PUSH3 0x5B1 JUMPI DUP3 SWAP1 SUB PUSH1 0x1F AND DUP3 ADD SWAP2 JUMPDEST POP POP POP POP PUSH1 0x4 DUP4 ADD SLOAD PUSH1 0x5 DUP5 ADD SLOAD PUSH1 0x6 DUP6 ADD SLOAD PUSH1 0x7 DUP7 ADD SLOAD PUSH1 0xA SWAP1 SWAP7 ADD SLOAD SWAP5 SWAP6 SWAP3 SWAP5 SWAP2 SWAP4 POP SWAP2 PUSH1 0x1 PUSH1 0x1 PUSH1 0xA0 SHL SUB AND SWAP1 PUSH1 0xFF DUP1 DUP3 AND SWAP2 PUSH2 0x100 SWAP1 DIV AND DUP11 JUMP JUMPDEST PUSH1 0x0 DUP3 DUP2 MSTORE PUSH1 0x1 PUSH1 0x20 MSTORE PUSH1 0x40 DUP1 DUP3 KECCAK256 PUSH1 0x7 DUP2 ADD SLOAD SWAP2 MLOAD PUSH4 0x70A08231 PUSH1 0xE0 SHL DUP2 MSTORE PUSH1 0x1 PUSH1 0x1 PUSH1 0xA0 SHL SUB DUP6 DUP2 AND PUSH1 0x4 DUP4 ADD MSTORE SWAP2 SWAP3 SWAP2 SWAP1 SWAP2 AND SWAP1 DUP2 SWAP1 PUSH4 0x70A08231 SWAP1 PUSH1 0x24 ADD PUSH1 0x20 PUSH1 0x40 MLOAD DUP1 DUP4 SUB DUP2 DUP7 GAS STATICCALL ISZERO DUP1 ISZERO PUSH3 0x66E JUMPI RETURNDATASIZE PUSH1 0x0 DUP1 RETURNDATACOPY RETURNDATASIZE PUSH1 0x0 REVERT JUMPDEST POP POP POP POP PUSH1 0x40 MLOAD RETURNDATASIZE PUSH1 0x1F NOT PUSH1 0x1F DUP3 ADD AND DUP3 ADD DUP1 PUSH1 0x40 MSTORE POP DUP2 ADD SWAP1 PUSH3 0x694 SWAP2 SWAP1 PUSH3 0x1B93 JUMP JUMPDEST SWAP3 POP POP POP JUMPDEST SWAP3 SWAP2 POP POP JUMP JUMPDEST PUSH3 0x6A9 PUSH3 0xFB2 JUMP JUMPDEST PUSH3 0x6B3 PUSH3 0x1014 JUMP JUMPDEST JUMP JUMPDEST PUSH3 0x6BF PUSH3 0x1068 JUMP JUMPDEST DUP1 PUSH1 0x2 SLOAD DUP2 LT PUSH3 0x70E JUMPI PUSH1 0x40 MLOAD PUSH3 0x461BCD PUSH1 0xE5 SHL DUP2 MSTORE PUSH1 0x20 PUSH1 0x4 DUP3 ADD MSTORE PUSH1 0x18 PUSH1 0x24 DUP3 ADD MSTORE PUSH24 0x21B0B6B830B4B3B7103237B2B9903737BA1032BC34B9BA17 PUSH1 0x41 SHL PUSH1 0x44 DUP3 ADD MSTORE PUSH1 0x64 ADD PUSH3 0x31A JUMP JUMPDEST PUSH1 0x0 DUP3 DUP2 MSTORE PUSH1 0x1 PUSH1 0x20 MSTORE PUSH1 0x40 SWAP1 KECCAK256 PUSH1 0x5 ADD SLOAD TIMESTAMP GT ISZERO PUSH3 0x771 JUMPI PUSH1 0x40 MLOAD PUSH3 0x461BCD PUSH1 0xE5 SHL DUP2 MSTORE PUSH1 0x20 PUSH1 0x4 DUP3 ADD MSTORE PUSH1 0x1E PUSH1 0x24 DUP3 ADD MSTORE PUSH32 0x43616E6E6F7420646F6E6174652C2063616D706169676E20656E6465642E0000 PUSH1 0x44 DUP3 ADD MSTORE PUSH1 0x64 ADD PUSH3 0x31A JUMP JUMPDEST PUSH1 0x0 DUP3 DUP2 MSTORE PUSH1 0x1 PUSH1 0x20 MSTORE PUSH1 0x40 DUP2 KECCAK256 PUSH1 0x4 DUP2 ADD SLOAD SWAP1 SWAP2 CALLVALUE SWAP2 PUSH3 0x793 SWAP1 PUSH3 0x10B0 JUMP JUMPDEST SWAP1 POP PUSH1 0x0 PUSH3 0x7A6 DUP5 PUSH1 0x6 ADD SLOAD PUSH3 0x10B0 JUMP JUMPDEST SWAP1 POP PUSH1 0x0 PUSH3 0x7B5 DUP5 PUSH3 0x10B0 JUMP JUMPDEST SWAP1 POP PUSH1 0x0 PUSH3 0x7C5 DUP4 DUP6 PUSH3 0x1BC3 JUMP JUMPDEST SWAP1 POP DUP1 DUP3 GT ISZERO PUSH3 0x83C JUMPI PUSH1 0x0 PUSH3 0x7DE DUP3 DUP5 PUSH3 0x1BC3 JUMP JUMPDEST PUSH3 0x7F2 SWAP1 PUSH8 0xDE0B6B3A7640000 PUSH3 0x1BD9 JUMP JUMPDEST SWAP1 POP PUSH3 0x808 DUP3 PUSH8 0xDE0B6B3A7640000 PUSH3 0x1BD9 JUMP JUMPDEST PUSH1 0x40 MLOAD SWAP1 SWAP7 POP CALLER SWAP1 DUP3 ISZERO PUSH2 0x8FC MUL SWAP1 DUP4 SWAP1 PUSH1 0x0 DUP2 DUP2 DUP2 DUP6 DUP9 DUP9 CALL SWAP4 POP POP POP POP ISZERO DUP1 ISZERO PUSH3 0x839 JUMPI RETURNDATASIZE PUSH1 0x0 DUP1 RETURNDATACOPY RETURNDATASIZE PUSH1 0x0 REVERT JUMPDEST POP POP JUMPDEST PUSH1 0x8 DUP7 ADD DUP1 SLOAD PUSH1 0x1 DUP2 DUP2 ADD DUP4 SSTORE PUSH1 0x0 SWAP3 DUP4 MSTORE PUSH1 0x20 DUP1 DUP5 KECCAK256 SWAP1 SWAP3 ADD DUP1 SLOAD PUSH1 0x1 PUSH1 0x1 PUSH1 0xA0 SHL SUB NOT AND CALLER OR SWAP1 SSTORE PUSH1 0x9 DUP10 ADD DUP1 SLOAD SWAP2 DUP3 ADD DUP2 SSTORE DUP4 MSTORE SWAP1 DUP3 KECCAK256 ADD DUP7 SWAP1 SSTORE PUSH1 0x6 DUP8 ADD DUP1 SLOAD DUP8 SWAP3 SWAP1 PUSH3 0x890 SWAP1 DUP5 SWAP1 PUSH3 0x1BF3 JUMP JUMPDEST SWAP1 SWAP2 SSTORE POP POP PUSH1 0x40 DUP1 MLOAD CALLER DUP2 MSTORE PUSH1 0x20 DUP2 ADD DUP8 SWAP1 MSTORE DUP10 SWAP2 PUSH32 0xB5B4C52969FF7329ECF7EE536409FDA87812B15A8622BC6E8CDEAB3AEE14A26 SWAP2 ADD PUSH1 0x40 MLOAD DUP1 SWAP2 SUB SWAP1 LOG2 DUP4 PUSH3 0x8E0 DUP8 PUSH1 0x6 ADD SLOAD PUSH3 0x10B0 JUMP JUMPDEST LT PUSH3 0x8F1 JUMPI PUSH3 0x8F1 DUP9 PUSH3 0x10C6 JUMP JUMPDEST POP POP POP POP POP POP POP POP JUMP JUMPDEST PUSH1 0x0 PUSH3 0x907 PUSH3 0x1068 JUMP JUMPDEST TIMESTAMP DUP6 GT PUSH3 0x958 JUMPI PUSH1 0x40 MLOAD PUSH3 0x461BCD PUSH1 0xE5 SHL DUP2 MSTORE PUSH1 0x20 PUSH1 0x4 DUP3 ADD MSTORE PUSH1 0x1E PUSH1 0x24 DUP3 ADD MSTORE PUSH32 0x446561646C696E65206D75737420626520696E20746865206675747572650000 PUSH1 0x44 DUP3 ADD MSTORE PUSH1 0x64 ADD PUSH3 0x31A JUMP JUMPDEST PUSH1 0x0 DUP4 DUP4 PUSH1 0x40 MLOAD PUSH3 0x96A SWAP1 PUSH3 0x15E4 JUMP JUMPDEST PUSH3 0x977 SWAP3 SWAP2 SWAP1 PUSH3 0x1C09 JUMP JUMPDEST PUSH1 0x40 MLOAD DUP1 SWAP2 SUB SWAP1 PUSH1 0x0 CREATE DUP1 ISZERO DUP1 ISZERO PUSH3 0x994 JUMPI RETURNDATASIZE PUSH1 0x0 DUP1 RETURNDATACOPY RETURNDATASIZE PUSH1 0x0 REVERT JUMPDEST POP SWAP1 POP PUSH1 0x0 PUSH1 0x1 PUSH1 0x0 PUSH1 0x2 PUSH1 0x0 DUP2 SLOAD DUP1 SWAP3 SWAP2 SWAP1 PUSH3 0x9B2 SWAP1 PUSH3 0x1C3B JUMP JUMPDEST SWAP1 SWAP2 SSTORE POP DUP2 MSTORE PUSH1 0x20 DUP2 ADD SWAP2 SWAP1 SWAP2 MSTORE PUSH1 0x40 ADD PUSH1 0x0 KECCAK256 DUP1 SLOAD PUSH1 0x1 PUSH1 0x1 PUSH1 0xA0 SHL SUB NOT AND PUSH1 0x1 PUSH1 0x1 PUSH1 0xA0 SHL SUB DUP14 AND OR DUP2 SSTORE SWAP1 POP PUSH1 0x2 DUP2 ADD PUSH3 0x9F1 DUP11 DUP3 PUSH3 0x1CA9 JUMP JUMPDEST POP PUSH1 0x3 DUP2 ADD PUSH3 0xA02 DUP8 DUP3 PUSH3 0x1CA9 JUMP JUMPDEST POP PUSH1 0x1 DUP2 ADD PUSH3 0xA13 DUP12 DUP3 PUSH3 0x1CA9 JUMP JUMPDEST POP PUSH1 0x4 DUP2 ADD DUP9 SWAP1 SSTORE PUSH1 0x5 DUP2 ADD DUP8 SWAP1 SSTORE PUSH1 0x7 DUP2 ADD DUP1 SLOAD PUSH1 0x1 PUSH1 0x1 PUSH1 0xA0 SHL SUB NOT AND PUSH1 0x1 PUSH1 0x1 PUSH1 0xA0 SHL SUB DUP5 AND OR SWAP1 SSTORE PUSH1 0x0 PUSH1 0x6 DUP3 ADD SSTORE PUSH1 0xA DUP2 ADD DUP1 SLOAD PUSH2 0xFFFF NOT AND SWAP1 SSTORE PUSH1 0x2 SLOAD PUSH3 0xA64 SWAP1 PUSH1 0x1 SWAP1 PUSH3 0x1BC3 JUMP JUMPDEST PUSH32 0xAD23DD63EBE4482CBC24A99AE2F8706AD4795DA66976DCDBDD22EA900175DDEE DUP13 DUP13 DUP13 DUP11 DUP8 PUSH1 0x40 MLOAD PUSH3 0xA9D SWAP6 SWAP5 SWAP4 SWAP3 SWAP2 SWAP1 PUSH3 0x1D76 JUMP JUMPDEST PUSH1 0x40 MLOAD DUP1 SWAP2 SUB SWAP1 LOG2 PUSH1 0x1 PUSH1 0x2 SLOAD PUSH3 0xAB6 SWAP2 SWAP1 PUSH3 0x1BC3 JUMP JUMPDEST SWAP12 SWAP11 POP POP POP POP POP POP POP POP POP POP POP JUMP JUMPDEST PUSH3 0xACF PUSH3 0xFB2 JUMP JUMPDEST PUSH3 0x6B3 PUSH1 0x0 PUSH3 0x1500 JUMP JUMPDEST PUSH3 0xAE5 PUSH3 0xFB2 JUMP JUMPDEST PUSH3 0x6B3 PUSH3 0x1559 JUMP JUMPDEST PUSH1 0x60 PUSH1 0x0 PUSH1 0x2 SLOAD PUSH8 0xFFFFFFFFFFFFFFFF DUP2 GT ISZERO PUSH3 0xB11 JUMPI PUSH3 0xB11 PUSH3 0x17BA JUMP JUMPDEST PUSH1 0x40 MLOAD SWAP1 DUP1 DUP3 MSTORE DUP1 PUSH1 0x20 MUL PUSH1 0x20 ADD DUP3 ADD PUSH1 0x40 MSTORE DUP1 ISZERO PUSH3 0xBBF JUMPI DUP2 PUSH1 0x20 ADD JUMPDEST PUSH3 0xBAB PUSH1 0x40 MLOAD DUP1 PUSH2 0x180 ADD PUSH1 0x40 MSTORE DUP1 PUSH1 0x0 PUSH1 0x1 PUSH1 0x1 PUSH1 0xA0 SHL SUB AND DUP2 MSTORE PUSH1 0x20 ADD PUSH1 0x60 DUP2 MSTORE PUSH1 0x20 ADD PUSH1 0x60 DUP2 MSTORE PUSH1 0x20 ADD PUSH1 0x60 DUP2 MSTORE PUSH1 0x20 ADD PUSH1 0x0 DUP2 MSTORE PUSH1 0x20 ADD PUSH1 0x0 DUP2 MSTORE PUSH1 0x20 ADD PUSH1 0x0 DUP2 MSTORE PUSH1 0x20 ADD PUSH1 0x0 PUSH1 0x1 PUSH1 0x1 PUSH1 0xA0 SHL SUB AND DUP2 MSTORE PUSH1 0x20 ADD PUSH1 0x60 DUP2 MSTORE PUSH1 0x20 ADD PUSH1 0x60 DUP2 MSTORE PUSH1 0x20 ADD PUSH1 0x0 ISZERO ISZERO DUP2 MSTORE PUSH1 0x20 ADD PUSH1 0x0 ISZERO ISZERO DUP2 MSTORE POP SWAP1 JUMP JUMPDEST DUP2 MSTORE PUSH1 0x20 ADD SWAP1 PUSH1 0x1 SWAP1 SUB SWAP1 DUP2 PUSH3 0xB30 JUMPI SWAP1 POP JUMPDEST POP SWAP1 POP PUSH1 0x0 JUMPDEST PUSH1 0x2 SLOAD DUP2 LT ISZERO PUSH3 0xF2D JUMPI PUSH1 0x0 DUP2 DUP2 MSTORE PUSH1 0x1 PUSH1 0x20 DUP2 DUP2 MSTORE PUSH1 0x40 SWAP3 DUP4 SWAP1 KECCAK256 DUP4 MLOAD PUSH2 0x180 DUP2 ADD SWAP1 SWAP5 MSTORE DUP1 SLOAD PUSH1 0x1 PUSH1 0x1 PUSH1 0xA0 SHL SUB AND DUP5 MSTORE SWAP2 DUP3 ADD DUP1 SLOAD SWAP2 DUP5 ADD SWAP2 PUSH3 0xC0D SWAP1 PUSH3 0x1B5D JUMP JUMPDEST DUP1 PUSH1 0x1F ADD PUSH1 0x20 DUP1 SWAP2 DIV MUL PUSH1 0x20 ADD PUSH1 0x40 MLOAD SWAP1 DUP2 ADD PUSH1 0x40 MSTORE DUP1 SWAP3 SWAP2 SWAP1 DUP2 DUP2 MSTORE PUSH1 0x20 ADD DUP3 DUP1 SLOAD PUSH3 0xC3B SWAP1 PUSH3 0x1B5D JUMP JUMPDEST DUP1 ISZERO PUSH3 0xC8C JUMPI DUP1 PUSH1 0x1F LT PUSH3 0xC60 JUMPI PUSH2 0x100 DUP1 DUP4 SLOAD DIV MUL DUP4 MSTORE SWAP2 PUSH1 0x20 ADD SWAP2 PUSH3 0xC8C JUMP JUMPDEST DUP3 ADD SWAP2 SWAP1 PUSH1 0x0 MSTORE PUSH1 0x20 PUSH1 0x0 KECCAK256 SWAP1 JUMPDEST DUP2 SLOAD DUP2 MSTORE SWAP1 PUSH1 0x1 ADD SWAP1 PUSH1 0x20 ADD DUP1 DUP4 GT PUSH3 0xC6E JUMPI DUP3 SWAP1 SUB PUSH1 0x1F AND DUP3 ADD SWAP2 JUMPDEST POP POP POP POP POP DUP2 MSTORE PUSH1 0x20 ADD PUSH1 0x2 DUP3 ADD DUP1 SLOAD PUSH3 0xCA7 SWAP1 PUSH3 0x1B5D JUMP JUMPDEST DUP1 PUSH1 0x1F ADD PUSH1 0x20 DUP1 SWAP2 DIV MUL PUSH1 0x20 ADD PUSH1 0x40 MLOAD SWAP1 DUP2 ADD PUSH1 0x40 MSTORE DUP1 SWAP3 SWAP2 SWAP1 DUP2 DUP2 MSTORE PUSH1 0x20 ADD DUP3 DUP1 SLOAD PUSH3 0xCD5 SWAP1 PUSH3 0x1B5D JUMP JUMPDEST DUP1 ISZERO PUSH3 0xD26 JUMPI DUP1 PUSH1 0x1F LT PUSH3 0xCFA JUMPI PUSH2 0x100 DUP1 DUP4 SLOAD DIV MUL DUP4 MSTORE SWAP2 PUSH1 0x20 ADD SWAP2 PUSH3 0xD26 JUMP JUMPDEST DUP3 ADD SWAP2 SWAP1 PUSH1 0x0 MSTORE PUSH1 0x20 PUSH1 0x0 KECCAK256 SWAP1 JUMPDEST DUP2 SLOAD DUP2 MSTORE SWAP1 PUSH1 0x1 ADD SWAP1 PUSH1 0x20 ADD DUP1 DUP4 GT PUSH3 0xD08 JUMPI DUP3 SWAP1 SUB PUSH1 0x1F AND DUP3 ADD SWAP2 JUMPDEST POP POP POP POP POP DUP2 MSTORE PUSH1 0x20 ADD PUSH1 0x3 DUP3 ADD DUP1 SLOAD PUSH3 0xD41 SWAP1 PUSH3 0x1B5D JUMP JUMPDEST DUP1 PUSH1 0x1F ADD PUSH1 0x20 DUP1 SWAP2 DIV MUL PUSH1 0x20 ADD PUSH1 0x40 MLOAD SWAP1 DUP2 ADD PUSH1 0x40 MSTORE DUP1 SWAP3 SWAP2 SWAP1 DUP2 DUP2 MSTORE PUSH1 0x20 ADD DUP3 DUP1 SLOAD PUSH3 0xD6F SWAP1 PUSH3 0x1B5D JUMP JUMPDEST DUP1 ISZERO PUSH3 0xDC0 JUMPI DUP1 PUSH1 0x1F LT PUSH3 0xD94 JUMPI PUSH2 0x100 DUP1 DUP4 SLOAD DIV MUL DUP4 MSTORE SWAP2 PUSH1 0x20 ADD SWAP2 PUSH3 0xDC0 JUMP JUMPDEST DUP3 ADD SWAP2 SWAP1 PUSH1 0x0 MSTORE PUSH1 0x20 PUSH1 0x0 KECCAK256 SWAP1 JUMPDEST DUP2 SLOAD DUP2 MSTORE SWAP1 PUSH1 0x1 ADD SWAP1 PUSH1 0x20 ADD DUP1 DUP4 GT PUSH3 0xDA2 JUMPI DUP3 SWAP1 SUB PUSH1 0x1F AND DUP3 ADD SWAP2 JUMPDEST POP POP POP POP POP DUP2 MSTORE PUSH1 0x20 ADD PUSH1 0x4 DUP3 ADD SLOAD DUP2 MSTORE PUSH1 0x20 ADD PUSH1 0x5 DUP3 ADD SLOAD DUP2 MSTORE PUSH1 0x20 ADD PUSH1 0x6 DUP3 ADD SLOAD DUP2 MSTORE PUSH1 0x20 ADD PUSH1 0x7 DUP3 ADD PUSH1 0x0 SWAP1 SLOAD SWAP1 PUSH2 0x100 EXP SWAP1 DIV PUSH1 0x1 PUSH1 0x1 PUSH1 0xA0 SHL SUB AND PUSH1 0x1 PUSH1 0x1 PUSH1 0xA0 SHL SUB AND PUSH1 0x1 PUSH1 0x1 PUSH1 0xA0 SHL SUB AND DUP2 MSTORE PUSH1 0x20 ADD PUSH1 0x8 DUP3 ADD DUP1 SLOAD DUP1 PUSH1 0x20 MUL PUSH1 0x20 ADD PUSH1 0x40 MLOAD SWAP1 DUP2 ADD PUSH1 0x40 MSTORE DUP1 SWAP3 SWAP2 SWAP1 DUP2 DUP2 MSTORE PUSH1 0x20 ADD DUP3 DUP1 SLOAD DUP1 ISZERO PUSH3 0xE71 JUMPI PUSH1 0x20 MUL DUP3 ADD SWAP2 SWAP1 PUSH1 0x0 MSTORE PUSH1 0x20 PUSH1 0x0 KECCAK256 SWAP1 JUMPDEST DUP2 SLOAD PUSH1 0x1 PUSH1 0x1 PUSH1 0xA0 SHL SUB AND DUP2 MSTORE PUSH1 0x1 SWAP1 SWAP2 ADD SWAP1 PUSH1 0x20 ADD DUP1 DUP4 GT PUSH3 0xE52 JUMPI JUMPDEST POP POP POP POP POP DUP2 MSTORE PUSH1 0x20 ADD PUSH1 0x9 DUP3 ADD DUP1 SLOAD DUP1 PUSH1 0x20 MUL PUSH1 0x20 ADD PUSH1 0x40 MLOAD SWAP1 DUP2 ADD PUSH1 0x40 MSTORE DUP1 SWAP3 SWAP2 SWAP1 DUP2 DUP2 MSTORE PUSH1 0x20 ADD DUP3 DUP1 SLOAD DUP1 ISZERO PUSH3 0xECB JUMPI PUSH1 0x20 MUL DUP3 ADD SWAP2 SWAP1 PUSH1 0x0 MSTORE PUSH1 0x20 PUSH1 0x0 KECCAK256 SWAP1 JUMPDEST DUP2 SLOAD DUP2 MSTORE PUSH1 0x20 ADD SWAP1 PUSH1 0x1 ADD SWAP1 DUP1 DUP4 GT PUSH3 0xEB6 JUMPI JUMPDEST POP POP POP SWAP2 DUP4 MSTORE POP POP PUSH1 0xA SWAP2 SWAP1 SWAP2 ADD SLOAD PUSH1 0xFF DUP1 DUP3 AND ISZERO ISZERO PUSH1 0x20 DUP5 ADD MSTORE PUSH2 0x100 SWAP1 SWAP2 DIV AND ISZERO ISZERO PUSH1 0x40 SWAP1 SWAP2 ADD MSTORE DUP3 MLOAD DUP4 SWAP1 DUP4 SWAP1 DUP2 LT PUSH3 0xF0C JUMPI PUSH3 0xF0C PUSH3 0x1DDA JUMP JUMPDEST PUSH1 0x20 MUL PUSH1 0x20 ADD ADD DUP2 SWAP1 MSTORE POP DUP1 DUP1 PUSH3 0xF24 SWAP1 PUSH3 0x1C3B JUMP JUMPDEST SWAP2 POP POP PUSH3 0xBC5 JUMP JUMPDEST POP SWAP2 SWAP1 POP JUMP JUMPDEST PUSH3 0xF3D PUSH3 0xFB2 JUMP JUMPDEST PUSH1 0x1 PUSH1 0x1 PUSH1 0xA0 SHL SUB DUP2 AND PUSH3 0xFA4 JUMPI PUSH1 0x40 MLOAD PUSH3 0x461BCD PUSH1 0xE5 SHL DUP2 MSTORE PUSH1 0x20 PUSH1 0x4 DUP3 ADD MSTORE PUSH1 0x26 PUSH1 0x24 DUP3 ADD MSTORE PUSH32 0x4F776E61626C653A206E6577206F776E657220697320746865207A65726F2061 PUSH1 0x44 DUP3 ADD MSTORE PUSH6 0x646472657373 PUSH1 0xD0 SHL PUSH1 0x64 DUP3 ADD MSTORE PUSH1 0x84 ADD PUSH3 0x31A JUMP JUMPDEST PUSH3 0xFAF DUP2 PUSH3 0x1500 JUMP JUMPDEST POP JUMP JUMPDEST PUSH1 0x0 SLOAD PUSH1 0x1 PUSH1 0x1 PUSH1 0xA0 SHL SUB PUSH2 0x100 SWAP1 SWAP2 DIV AND CALLER EQ PUSH3 0x6B3 JUMPI PUSH1 0x40 MLOAD PUSH3 0x461BCD PUSH1 0xE5 SHL DUP2 MSTORE PUSH1 0x20 PUSH1 0x4 DUP3 ADD DUP2 SWAP1 MSTORE PUSH1 0x24 DUP3 ADD MSTORE PUSH32 0x4F776E61626C653A2063616C6C6572206973206E6F7420746865206F776E6572 PUSH1 0x44 DUP3 ADD MSTORE PUSH1 0x64 ADD PUSH3 0x31A JUMP JUMPDEST PUSH3 0x101E PUSH3 0x1599 JUMP JUMPDEST PUSH1 0x0 DUP1 SLOAD PUSH1 0xFF NOT AND SWAP1 SSTORE PUSH32 0x5DB9EE0A495BF2E6FF9C91A7834C1BA4FDD244A5E8AA4E537BD38AEAE4B073AA CALLER JUMPDEST PUSH1 0x40 MLOAD PUSH1 0x1 PUSH1 0x1 PUSH1 0xA0 SHL SUB SWAP1 SWAP2 AND DUP2 MSTORE PUSH1 0x20 ADD PUSH1 0x40 MLOAD DUP1 SWAP2 SUB SWAP1 LOG1 JUMP JUMPDEST PUSH1 0x0 SLOAD PUSH1 0xFF AND ISZERO PUSH3 0x6B3 JUMPI PUSH1 0x40 MLOAD PUSH3 0x461BCD PUSH1 0xE5 SHL DUP2 MSTORE PUSH1 0x20 PUSH1 0x4 DUP3 ADD MSTORE PUSH1 0x10 PUSH1 0x24 DUP3 ADD MSTORE PUSH16 0x14185D5CD8589B194E881C185D5CD959 PUSH1 0x82 SHL PUSH1 0x44 DUP3 ADD MSTORE PUSH1 0x64 ADD PUSH3 0x31A JUMP JUMPDEST PUSH1 0x0 PUSH3 0x699 PUSH8 0xDE0B6B3A7640000 DUP4 PUSH3 0x1DF0 JUMP JUMPDEST PUSH1 0x0 DUP2 DUP2 MSTORE PUSH1 0x1 PUSH1 0x20 MSTORE PUSH1 0x40 SWAP1 KECCAK256 PUSH1 0xA DUP2 ADD SLOAD PUSH1 0xFF AND ISZERO PUSH3 0x1137 JUMPI PUSH1 0x40 MLOAD PUSH3 0x461BCD PUSH1 0xE5 SHL DUP2 MSTORE PUSH1 0x20 PUSH1 0x4 DUP3 ADD MSTORE PUSH1 0x24 DUP1 DUP3 ADD MSTORE PUSH32 0x43616D706169676E2068617320616C7265616479206265656E2066696E616C69 PUSH1 0x44 DUP3 ADD MSTORE PUSH4 0x3D32B217 PUSH1 0xE1 SHL PUSH1 0x64 DUP3 ADD MSTORE PUSH1 0x84 ADD PUSH3 0x31A JUMP JUMPDEST PUSH1 0xA DUP2 ADD DUP1 SLOAD PUSH1 0xFF NOT AND PUSH1 0x1 OR SWAP1 SSTORE PUSH1 0x4 DUP2 ADD SLOAD PUSH1 0x6 DUP3 ADD SLOAD LT PUSH3 0x13BA JUMPI PUSH1 0xA DUP2 ADD DUP1 SLOAD PUSH2 0xFF00 NOT AND PUSH2 0x100 OR SWAP1 SSTORE PUSH1 0x7 DUP2 ADD SLOAD PUSH1 0x6 DUP3 ADD SLOAD PUSH1 0x1 PUSH1 0x1 PUSH1 0xA0 SHL SUB SWAP1 SWAP2 AND SWAP1 PUSH1 0x0 JUMPDEST PUSH1 0x8 DUP5 ADD SLOAD DUP2 LT ISZERO PUSH3 0x1374 JUMPI PUSH1 0x0 DUP3 DUP5 PUSH1 0x1 PUSH1 0x1 PUSH1 0xA0 SHL SUB AND PUSH4 0x313CE567 PUSH1 0x40 MLOAD DUP2 PUSH4 0xFFFFFFFF AND PUSH1 0xE0 SHL DUP2 MSTORE PUSH1 0x4 ADD PUSH1 0x20 PUSH1 0x40 MLOAD DUP1 DUP4 SUB DUP2 DUP7 GAS STATICCALL ISZERO DUP1 ISZERO PUSH3 0x11CF JUMPI RETURNDATASIZE PUSH1 0x0 DUP1 RETURNDATACOPY RETURNDATASIZE PUSH1 0x0 REVERT JUMPDEST POP POP POP POP PUSH1 0x40 MLOAD RETURNDATASIZE PUSH1 0x1F NOT PUSH1 0x1F DUP3 ADD AND DUP3 ADD DUP1 PUSH1 0x40 MSTORE POP DUP2 ADD SWAP1 PUSH3 0x11F5 SWAP2 SWAP1 PUSH3 0x1E13 JUMP JUMPDEST PUSH3 0x1202 SWAP1 PUSH1 0xA PUSH3 0x1F35 JUMP JUMPDEST DUP7 PUSH1 0x9 ADD DUP5 DUP2 SLOAD DUP2 LT PUSH3 0x121A JUMPI PUSH3 0x121A PUSH3 0x1DDA JUMP JUMPDEST SWAP1 PUSH1 0x0 MSTORE PUSH1 0x20 PUSH1 0x0 KECCAK256 ADD SLOAD PUSH3 0xF4240 PUSH3 0x1235 SWAP2 SWAP1 PUSH3 0x1BD9 JUMP JUMPDEST PUSH3 0x1241 SWAP2 SWAP1 PUSH3 0x1BD9 JUMP JUMPDEST PUSH3 0x124D SWAP2 SWAP1 PUSH3 0x1DF0 JUMP JUMPDEST SWAP1 POP DUP4 PUSH1 0x1 PUSH1 0x1 PUSH1 0xA0 SHL SUB AND PUSH4 0xA9059CBB DUP7 PUSH1 0x8 ADD DUP5 DUP2 SLOAD DUP2 LT PUSH3 0x1276 JUMPI PUSH3 0x1276 PUSH3 0x1DDA JUMP JUMPDEST PUSH1 0x0 SWAP2 DUP3 MSTORE PUSH1 0x20 SWAP1 SWAP2 KECCAK256 ADD SLOAD PUSH1 0x40 MLOAD PUSH1 0xE0 DUP4 SWAP1 SHL PUSH1 0x1 PUSH1 0x1 PUSH1 0xE0 SHL SUB NOT AND DUP2 MSTORE PUSH1 0x1 PUSH1 0x1 PUSH1 0xA0 SHL SUB SWAP1 SWAP2 AND PUSH1 0x4 DUP3 ADD MSTORE PUSH1 0x24 DUP2 ADD DUP5 SWAP1 MSTORE PUSH1 0x44 ADD PUSH1 0x20 PUSH1 0x40 MLOAD DUP1 DUP4 SUB DUP2 PUSH1 0x0 DUP8 GAS CALL ISZERO DUP1 ISZERO PUSH3 0x12D0 JUMPI RETURNDATASIZE PUSH1 0x0 DUP1 RETURNDATACOPY RETURNDATASIZE PUSH1 0x0 REVERT JUMPDEST POP POP POP POP PUSH1 0x40 MLOAD RETURNDATASIZE PUSH1 0x1F NOT PUSH1 0x1F DUP3 ADD AND DUP3 ADD DUP1 PUSH1 0x40 MSTORE POP DUP2 ADD SWAP1 PUSH3 0x12F6 SWAP2 SWAP1 PUSH3 0x1F46 JUMP JUMPDEST POP DUP6 PUSH32 0x5C8E94C72DA12A6D6A1213EDAFD788896DF5FD2D6527A9ADEB11F8E5D0BE1C4C DUP7 PUSH1 0x8 ADD DUP5 DUP2 SLOAD DUP2 LT PUSH3 0x1331 JUMPI PUSH3 0x1331 PUSH3 0x1DDA JUMP JUMPDEST PUSH1 0x0 SWAP2 DUP3 MSTORE PUSH1 0x20 SWAP2 DUP3 SWAP1 KECCAK256 ADD SLOAD PUSH1 0x40 DUP1 MLOAD PUSH1 0x1 PUSH1 0x1 PUSH1 0xA0 SHL SUB SWAP1 SWAP3 AND DUP3 MSTORE SWAP2 DUP2 ADD DUP6 SWAP1 MSTORE ADD PUSH1 0x40 MLOAD DUP1 SWAP2 SUB SWAP1 LOG2 POP DUP1 PUSH3 0x136B DUP2 PUSH3 0x1C3B JUMP JUMPDEST SWAP2 POP POP PUSH3 0x1180 JUMP JUMPDEST POP DUP4 PUSH32 0x318DAF69D77E946364E804495B2184222324B99FDDEB42AB5FD25A919F596E8C DUP5 PUSH1 0x6 ADD SLOAD PUSH1 0x40 MLOAD PUSH3 0x13AC SWAP2 DUP2 MSTORE PUSH1 0x20 ADD SWAP1 JUMP JUMPDEST PUSH1 0x40 MLOAD DUP1 SWAP2 SUB SWAP1 LOG2 POP POP POP POP JUMP JUMPDEST PUSH1 0x0 JUMPDEST PUSH1 0x8 DUP3 ADD SLOAD DUP2 LT ISZERO PUSH3 0x14FB JUMPI DUP2 PUSH1 0x8 ADD DUP2 DUP2 SLOAD DUP2 LT PUSH3 0x13E2 JUMPI PUSH3 0x13E2 PUSH3 0x1DDA JUMP JUMPDEST PUSH1 0x0 SWAP2 DUP3 MSTORE PUSH1 0x20 SWAP1 SWAP2 KECCAK256 ADD SLOAD PUSH1 0x9 DUP4 ADD DUP1 SLOAD PUSH1 0x1 PUSH1 0x1 PUSH1 0xA0 SHL SUB SWAP1 SWAP3 AND SWAP2 PUSH2 0x8FC SWAP2 SWAP1 DUP5 SWAP1 DUP2 LT PUSH3 0x1418 JUMPI PUSH3 0x1418 PUSH3 0x1DDA JUMP JUMPDEST SWAP1 PUSH1 0x0 MSTORE PUSH1 0x20 PUSH1 0x0 KECCAK256 ADD SLOAD SWAP1 DUP2 ISZERO MUL SWAP1 PUSH1 0x40 MLOAD PUSH1 0x0 PUSH1 0x40 MLOAD DUP1 DUP4 SUB DUP2 DUP6 DUP9 DUP9 CALL SWAP4 POP POP POP POP ISZERO DUP1 ISZERO PUSH3 0x144F JUMPI RETURNDATASIZE PUSH1 0x0 DUP1 RETURNDATACOPY RETURNDATASIZE PUSH1 0x0 REVERT JUMPDEST POP DUP3 PUSH32 0x7A482FDEB6BC9A1376F597068A214A7A39472BB2EFF1B8CAD21BA04F49DDCA1B DUP4 PUSH1 0x8 ADD DUP4 DUP2 SLOAD DUP2 LT PUSH3 0x148A JUMPI PUSH3 0x148A PUSH3 0x1DDA JUMP JUMPDEST PUSH1 0x0 SWAP2 DUP3 MSTORE PUSH1 0x20 SWAP1 SWAP2 KECCAK256 ADD SLOAD PUSH1 0x9 DUP6 ADD DUP1 SLOAD PUSH1 0x1 PUSH1 0x1 PUSH1 0xA0 SHL SUB SWAP1 SWAP3 AND SWAP2 DUP6 SWAP1 DUP2 LT PUSH3 0x14BB JUMPI PUSH3 0x14BB PUSH3 0x1DDA JUMP JUMPDEST PUSH1 0x0 SWAP2 DUP3 MSTORE PUSH1 0x20 SWAP2 DUP3 SWAP1 KECCAK256 ADD SLOAD PUSH1 0x40 DUP1 MLOAD PUSH1 0x1 PUSH1 0x1 PUSH1 0xA0 SHL SUB SWAP1 SWAP5 AND DUP5 MSTORE SWAP2 DUP4 ADD MSTORE ADD PUSH1 0x40 MLOAD DUP1 SWAP2 SUB SWAP1 LOG2 DUP1 PUSH3 0x14F2 DUP2 PUSH3 0x1C3B JUMP JUMPDEST SWAP2 POP POP PUSH3 0x13BD JUMP JUMPDEST POP POP POP JUMP JUMPDEST PUSH1 0x0 DUP1 SLOAD PUSH1 0x1 PUSH1 0x1 PUSH1 0xA0 SHL SUB DUP4 DUP2 AND PUSH2 0x100 DUP2 DUP2 MUL PUSH2 0x100 PUSH1 0x1 PUSH1 0xA8 SHL SUB NOT DUP6 AND OR DUP6 SSTORE PUSH1 0x40 MLOAD SWAP4 DIV SWAP2 SWAP1 SWAP2 AND SWAP3 SWAP1 SWAP2 DUP4 SWAP2 PUSH32 0x8BE0079C531659141344CD1FD0A4F28419497F9722A3DAAFE3B4186F6B6457E0 SWAP2 LOG3 POP POP JUMP JUMPDEST PUSH3 0x1563 PUSH3 0x1068 JUMP JUMPDEST PUSH1 0x0 DUP1 SLOAD PUSH1 0xFF NOT AND PUSH1 0x1 OR SWAP1 SSTORE PUSH32 0x62E78CEA01BEE320CD4E420270B5EA74000D11B0C9F74754EBDBFC544B05A258 PUSH3 0x104B CALLER SWAP1 JUMP JUMPDEST PUSH1 0x0 SLOAD PUSH1 0xFF AND PUSH3 0x6B3 JUMPI PUSH1 0x40 MLOAD PUSH3 0x461BCD PUSH1 0xE5 SHL DUP2 MSTORE PUSH1 0x20 PUSH1 0x4 DUP3 ADD MSTORE PUSH1 0x14 PUSH1 0x24 DUP3 ADD MSTORE PUSH20 0x14185D5CD8589B194E881B9BDD081C185D5CD959 PUSH1 0x62 SHL PUSH1 0x44 DUP3 ADD MSTORE PUSH1 0x64 ADD PUSH3 0x31A JUMP JUMPDEST PUSH2 0x1396 DUP1 PUSH3 0x1F6B DUP4 CODECOPY ADD SWAP1 JUMP JUMPDEST PUSH1 0x0 PUSH1 0x20 DUP3 DUP5 SUB SLT ISZERO PUSH3 0x1605 JUMPI PUSH1 0x0 DUP1 REVERT JUMPDEST POP CALLDATALOAD SWAP2 SWAP1 POP JUMP JUMPDEST PUSH1 0x40 DUP1 DUP3 MSTORE DUP4 MLOAD SWAP1 DUP3 ADD DUP2 SWAP1 MSTORE PUSH1 0x0 SWAP1 PUSH1 0x20 SWAP1 PUSH1 0x60 DUP5 ADD SWAP1 DUP3 DUP8 ADD DUP5 JUMPDEST DUP3 DUP2 LT ISZERO PUSH3 0x1650 JUMPI DUP2 MLOAD PUSH1 0x1 PUSH1 0x1 PUSH1 0xA0 SHL SUB AND DUP5 MSTORE SWAP3 DUP5 ADD SWAP3 SWAP1 DUP5 ADD SWAP1 PUSH1 0x1 ADD PUSH3 0x1629 JUMP JUMPDEST POP POP POP DUP4 DUP2 SUB DUP3 DUP6 ADD MSTORE DUP5 MLOAD DUP1 DUP3 MSTORE DUP6 DUP4 ADD SWAP2 DUP4 ADD SWAP1 PUSH1 0x0 JUMPDEST DUP2 DUP2 LT ISZERO PUSH3 0x1687 JUMPI DUP4 MLOAD DUP4 MSTORE SWAP3 DUP5 ADD SWAP3 SWAP2 DUP5 ADD SWAP2 PUSH1 0x1 ADD PUSH3 0x1669 JUMP JUMPDEST POP SWAP1 SWAP8 SWAP7 POP POP POP POP POP POP POP JUMP JUMPDEST PUSH1 0x0 DUP2 MLOAD DUP1 DUP5 MSTORE PUSH1 0x0 JUMPDEST DUP2 DUP2 LT ISZERO PUSH3 0x16BC JUMPI PUSH1 0x20 DUP2 DUP6 ADD DUP2 ADD MLOAD DUP7 DUP4 ADD DUP3 ADD MSTORE ADD PUSH3 0x169E JUMP JUMPDEST POP PUSH1 0x0 PUSH1 0x20 DUP3 DUP7 ADD ADD MSTORE PUSH1 0x20 PUSH1 0x1F NOT PUSH1 0x1F DUP4 ADD AND DUP6 ADD ADD SWAP2 POP POP SWAP3 SWAP2 POP POP JUMP JUMPDEST PUSH1 0x1 PUSH1 0x1 PUSH1 0xA0 SHL SUB DUP12 DUP2 AND DUP3 MSTORE PUSH2 0x140 PUSH1 0x20 DUP4 ADD DUP2 SWAP1 MSTORE PUSH1 0x0 SWAP2 PUSH3 0x1704 DUP5 DUP4 ADD DUP15 PUSH3 0x1694 JUMP JUMPDEST SWAP2 POP DUP4 DUP3 SUB PUSH1 0x40 DUP6 ADD MSTORE PUSH3 0x171A DUP3 DUP14 PUSH3 0x1694 JUMP JUMPDEST SWAP2 POP DUP4 DUP3 SUB PUSH1 0x60 DUP6 ADD MSTORE PUSH3 0x1730 DUP3 DUP13 PUSH3 0x1694 JUMP JUMPDEST PUSH1 0x80 DUP6 ADD SWAP11 SWAP1 SWAP11 MSTORE PUSH1 0xA0 DUP5 ADD SWAP9 SWAP1 SWAP9 MSTORE POP POP PUSH1 0xC0 DUP2 ADD SWAP5 SWAP1 SWAP5 MSTORE SWAP2 SWAP1 SWAP4 AND PUSH1 0xE0 DUP4 ADD MSTORE SWAP2 ISZERO ISZERO PUSH2 0x100 DUP3 ADD MSTORE SWAP1 ISZERO ISZERO PUSH2 0x120 SWAP1 SWAP2 ADD MSTORE SWAP5 SWAP4 POP POP POP POP JUMP JUMPDEST DUP1 CALLDATALOAD PUSH1 0x1 PUSH1 0x1 PUSH1 0xA0 SHL SUB DUP2 AND DUP2 EQ PUSH3 0x1786 JUMPI PUSH1 0x0 DUP1 REVERT JUMPDEST SWAP2 SWAP1 POP JUMP JUMPDEST PUSH1 0x0 DUP1 PUSH1 0x40 DUP4 DUP6 SUB SLT ISZERO PUSH3 0x179F JUMPI PUSH1 0x0 DUP1 REVERT JUMPDEST DUP3 CALLDATALOAD SWAP2 POP PUSH3 0x17B1 PUSH1 0x20 DUP5 ADD PUSH3 0x176E JUMP JUMPDEST SWAP1 POP SWAP3 POP SWAP3 SWAP1 POP JUMP JUMPDEST PUSH4 0x4E487B71 PUSH1 0xE0 SHL PUSH1 0x0 MSTORE PUSH1 0x41 PUSH1 0x4 MSTORE PUSH1 0x24 PUSH1 0x0 REVERT JUMPDEST PUSH1 0x0 DUP3 PUSH1 0x1F DUP4 ADD SLT PUSH3 0x17E2 JUMPI PUSH1 0x0 DUP1 REVERT JUMPDEST DUP2 CALLDATALOAD PUSH8 0xFFFFFFFFFFFFFFFF DUP1 DUP3 GT ISZERO PUSH3 0x1800 JUMPI PUSH3 0x1800 PUSH3 0x17BA JUMP JUMPDEST PUSH1 0x40 MLOAD PUSH1 0x1F DUP4 ADD PUSH1 0x1F NOT SWAP1 DUP2 AND PUSH1 0x3F ADD AND DUP2 ADD SWAP1 DUP3 DUP3 GT DUP2 DUP4 LT OR ISZERO PUSH3 0x182B JUMPI PUSH3 0x182B PUSH3 0x17BA JUMP JUMPDEST DUP2 PUSH1 0x40 MSTORE DUP4 DUP2 MSTORE DUP7 PUSH1 0x20 DUP6 DUP9 ADD ADD GT ISZERO PUSH3 0x1845 JUMPI PUSH1 0x0 DUP1 REVERT JUMPDEST DUP4 PUSH1 0x20 DUP8 ADD PUSH1 0x20 DUP4 ADD CALLDATACOPY PUSH1 0x0 PUSH1 0x20 DUP6 DUP4 ADD ADD MSTORE DUP1 SWAP5 POP POP POP POP POP SWAP3 SWAP2 POP POP JUMP JUMPDEST PUSH1 0x0 DUP1 PUSH1 0x0 DUP1 PUSH1 0x0 DUP1 PUSH1 0x0 DUP1 PUSH2 0x100 DUP10 DUP12 SUB SLT ISZERO PUSH3 0x1883 JUMPI PUSH1 0x0 DUP1 REVERT JUMPDEST PUSH3 0x188E DUP10 PUSH3 0x176E JUMP JUMPDEST SWAP8 POP PUSH1 0x20 DUP10 ADD CALLDATALOAD PUSH8 0xFFFFFFFFFFFFFFFF DUP1 DUP3 GT ISZERO PUSH3 0x18AC JUMPI PUSH1 0x0 DUP1 REVERT JUMPDEST PUSH3 0x18BA DUP13 DUP4 DUP14 ADD PUSH3 0x17D0 JUMP JUMPDEST SWAP9 POP PUSH1 0x40 DUP12 ADD CALLDATALOAD SWAP2 POP DUP1 DUP3 GT ISZERO PUSH3 0x18D1 JUMPI PUSH1 0x0 DUP1 REVERT JUMPDEST PUSH3 0x18DF DUP13 DUP4 DUP14 ADD PUSH3 0x17D0 JUMP JUMPDEST SWAP8 POP PUSH1 0x60 DUP12 ADD CALLDATALOAD SWAP7 POP PUSH1 0x80 DUP12 ADD CALLDATALOAD SWAP6 POP PUSH1 0xA0 DUP12 ADD CALLDATALOAD SWAP2 POP DUP1 DUP3 GT ISZERO PUSH3 0x1904 JUMPI PUSH1 0x0 DUP1 REVERT JUMPDEST PUSH3 0x1912 DUP13 DUP4 DUP14 ADD PUSH3 0x17D0 JUMP JUMPDEST SWAP5 POP PUSH1 0xC0 DUP12 ADD CALLDATALOAD SWAP2 POP DUP1 DUP3 GT ISZERO PUSH3 0x1929 JUMPI PUSH1 0x0 DUP1 REVERT JUMPDEST PUSH3 0x1937 DUP13 DUP4 DUP14 ADD PUSH3 0x17D0 JUMP JUMPDEST SWAP4 POP PUSH1 0xE0 DUP12 ADD CALLDATALOAD SWAP2 POP DUP1 DUP3 GT ISZERO PUSH3 0x194E JUMPI PUSH1 0x0 DUP1 REVERT JUMPDEST POP PUSH3 0x195D DUP12 DUP3 DUP13 ADD PUSH3 0x17D0 JUMP JUMPDEST SWAP2 POP POP SWAP3 SWAP6 SWAP9 POP SWAP3 SWAP6 SWAP9 SWAP1 SWAP4 SWAP7 POP JUMP JUMPDEST PUSH1 0x0 DUP2 MLOAD DUP1 DUP5 MSTORE PUSH1 0x20 DUP1 DUP6 ADD SWAP5 POP DUP1 DUP5 ADD PUSH1 0x0 JUMPDEST DUP4 DUP2 LT ISZERO PUSH3 0x19A8 JUMPI DUP2 MLOAD PUSH1 0x1 PUSH1 0x1 PUSH1 0xA0 SHL SUB AND DUP8 MSTORE SWAP6 DUP3 ADD SWAP6 SWAP1 DUP3 ADD SWAP1 PUSH1 0x1 ADD PUSH3 0x1981 JUMP JUMPDEST POP SWAP5 SWAP6 SWAP5 POP POP POP POP POP JUMP JUMPDEST PUSH1 0x0 DUP2 MLOAD DUP1 DUP5 MSTORE PUSH1 0x20 DUP1 DUP6 ADD SWAP5 POP DUP1 DUP5 ADD PUSH1 0x0 JUMPDEST DUP4 DUP2 LT ISZERO PUSH3 0x19A8 JUMPI DUP2 MLOAD DUP8 MSTORE SWAP6 DUP3 ADD SWAP6 SWAP1 DUP3 ADD SWAP1 PUSH1 0x1 ADD PUSH3 0x19C7 JUMP JUMPDEST PUSH1 0x0 PUSH1 0x20 DUP1 DUP4 ADD DUP2 DUP5 MSTORE DUP1 DUP6 MLOAD DUP1 DUP4 MSTORE PUSH1 0x40 SWAP3 POP DUP3 DUP7 ADD SWAP2 POP DUP3 DUP2 PUSH1 0x5 SHL DUP8 ADD ADD DUP5 DUP9 ADD PUSH1 0x0 JUMPDEST DUP4 DUP2 LT ISZERO PUSH3 0x1B2A JUMPI DUP9 DUP4 SUB PUSH1 0x3F NOT ADD DUP6 MSTORE DUP2 MLOAD DUP1 MLOAD PUSH1 0x1 PUSH1 0x1 PUSH1 0xA0 SHL SUB AND DUP5 MSTORE PUSH2 0x180 DUP9 DUP3 ADD MLOAD DUP2 DUP11 DUP8 ADD MSTORE PUSH3 0x1A47 DUP3 DUP8 ADD DUP3 PUSH3 0x1694 JUMP JUMPDEST SWAP2 POP POP DUP8 DUP3 ADD MLOAD DUP6 DUP3 SUB DUP10 DUP8 ADD MSTORE PUSH3 0x1A61 DUP3 DUP3 PUSH3 0x1694 JUMP JUMPDEST SWAP2 POP POP PUSH1 0x60 DUP1 DUP4 ADD MLOAD DUP7 DUP4 SUB DUP3 DUP9 ADD MSTORE PUSH3 0x1A7D DUP4 DUP3 PUSH3 0x1694 JUMP JUMPDEST PUSH1 0x80 DUP6 DUP2 ADD MLOAD SWAP1 DUP10 ADD MSTORE PUSH1 0xA0 DUP1 DUP7 ADD MLOAD SWAP1 DUP10 ADD MSTORE PUSH1 0xC0 DUP1 DUP7 ADD MLOAD SWAP1 DUP10 ADD MSTORE PUSH1 0xE0 DUP1 DUP7 ADD MLOAD PUSH1 0x1 PUSH1 0x1 PUSH1 0xA0 SHL SUB AND SWAP1 DUP10 ADD MSTORE PUSH2 0x100 DUP1 DUP7 ADD MLOAD DUP10 DUP4 SUB DUP3 DUP12 ADD MSTORE SWAP2 SWAP5 POP SWAP3 POP SWAP1 POP PUSH3 0x1ACF DUP4 DUP3 PUSH3 0x196D JUMP JUMPDEST SWAP3 POP POP POP PUSH2 0x120 DUP1 DUP4 ADD MLOAD DUP7 DUP4 SUB DUP3 DUP9 ADD MSTORE PUSH3 0x1AED DUP4 DUP3 PUSH3 0x19B3 JUMP JUMPDEST SWAP3 POP POP POP PUSH2 0x140 DUP1 DUP4 ADD MLOAD PUSH3 0x1B06 DUP3 DUP9 ADD DUP3 ISZERO ISZERO SWAP1 MSTORE JUMP JUMPDEST POP POP PUSH2 0x160 SWAP2 DUP3 ADD MLOAD ISZERO ISZERO SWAP5 SWAP1 SWAP2 ADD SWAP4 SWAP1 SWAP4 MSTORE SWAP4 DUP7 ADD SWAP4 SWAP1 DUP7 ADD SWAP1 PUSH1 0x1 ADD PUSH3 0x1A0C JUMP JUMPDEST POP SWAP1 SWAP9 SWAP8 POP POP POP POP POP POP POP POP JUMP JUMPDEST PUSH1 0x0 PUSH1 0x20 DUP3 DUP5 SUB SLT ISZERO PUSH3 0x1B4B JUMPI PUSH1 0x0 DUP1 REVERT JUMPDEST PUSH3 0x1B56 DUP3 PUSH3 0x176E JUMP JUMPDEST SWAP4 SWAP3 POP POP POP JUMP JUMPDEST PUSH1 0x1 DUP2 DUP2 SHR SWAP1 DUP3 AND DUP1 PUSH3 0x1B72 JUMPI PUSH1 0x7F DUP3 AND SWAP2 POP JUMPDEST PUSH1 0x20 DUP3 LT DUP2 SUB PUSH3 0xF2D JUMPI PUSH4 0x4E487B71 PUSH1 0xE0 SHL PUSH1 0x0 MSTORE PUSH1 0x22 PUSH1 0x4 MSTORE PUSH1 0x24 PUSH1 0x0 REVERT JUMPDEST PUSH1 0x0 PUSH1 0x20 DUP3 DUP5 SUB SLT ISZERO PUSH3 0x1BA6 JUMPI PUSH1 0x0 DUP1 REVERT JUMPDEST POP MLOAD SWAP2 SWAP1 POP JUMP JUMPDEST PUSH4 0x4E487B71 PUSH1 0xE0 SHL PUSH1 0x0 MSTORE PUSH1 0x11 PUSH1 0x4 MSTORE PUSH1 0x24 PUSH1 0x0 REVERT JUMPDEST DUP2 DUP2 SUB DUP2 DUP2 GT ISZERO PUSH3 0x699 JUMPI PUSH3 0x699 PUSH3 0x1BAD JUMP JUMPDEST DUP1 DUP3 MUL DUP2 ISZERO DUP3 DUP3 DIV DUP5 EQ OR PUSH3 0x699 JUMPI PUSH3 0x699 PUSH3 0x1BAD JUMP JUMPDEST DUP1 DUP3 ADD DUP1 DUP3 GT ISZERO PUSH3 0x699 JUMPI PUSH3 0x699 PUSH3 0x1BAD JUMP JUMPDEST PUSH1 0x40 DUP2 MSTORE PUSH1 0x0 PUSH3 0x1C1E PUSH1 0x40 DUP4 ADD DUP6 PUSH3 0x1694 JUMP JUMPDEST DUP3 DUP2 SUB PUSH1 0x20 DUP5 ADD MSTORE PUSH3 0x1C32 DUP2 DUP6 PUSH3 0x1694 JUMP JUMPDEST SWAP6 SWAP5 POP POP POP POP POP JUMP JUMPDEST PUSH1 0x0 PUSH1 0x1 DUP3 ADD PUSH3 0x1C50 JUMPI PUSH3 0x1C50 PUSH3 0x1BAD JUMP JUMPDEST POP PUSH1 0x1 ADD SWAP1 JUMP JUMPDEST PUSH1 0x1F DUP3 GT ISZERO PUSH3 0x14FB JUMPI PUSH1 0x0 DUP2 DUP2 MSTORE PUSH1 0x20 DUP2 KECCAK256 PUSH1 0x1F DUP6 ADD PUSH1 0x5 SHR DUP2 ADD PUSH1 0x20 DUP7 LT ISZERO PUSH3 0x1C80 JUMPI POP DUP1 JUMPDEST PUSH1 0x1F DUP6 ADD PUSH1 0x5 SHR DUP3 ADD SWAP2 POP JUMPDEST DUP2 DUP2 LT ISZERO PUSH3 0x1CA1 JUMPI DUP3 DUP2 SSTORE PUSH1 0x1 ADD PUSH3 0x1C8C JUMP JUMPDEST POP POP POP POP POP POP JUMP JUMPDEST DUP2 MLOAD PUSH8 0xFFFFFFFFFFFFFFFF DUP2 GT ISZERO PUSH3 0x1CC6 JUMPI PUSH3 0x1CC6 PUSH3 0x17BA JUMP JUMPDEST PUSH3 0x1CDE DUP2 PUSH3 0x1CD7 DUP5 SLOAD PUSH3 0x1B5D JUMP JUMPDEST DUP5 PUSH3 0x1C57 JUMP JUMPDEST PUSH1 0x20 DUP1 PUSH1 0x1F DUP4 GT PUSH1 0x1 DUP2 EQ PUSH3 0x1D16 JUMPI PUSH1 0x0 DUP5 ISZERO PUSH3 0x1CFD JUMPI POP DUP6 DUP4 ADD MLOAD JUMPDEST PUSH1 0x0 NOT PUSH1 0x3 DUP7 SWAP1 SHL SHR NOT AND PUSH1 0x1 DUP6 SWAP1 SHL OR DUP6 SSTORE PUSH3 0x1CA1 JUMP JUMPDEST PUSH1 0x0 DUP6 DUP2 MSTORE PUSH1 0x20 DUP2 KECCAK256 PUSH1 0x1F NOT DUP7 AND SWAP2 JUMPDEST DUP3 DUP2 LT ISZERO PUSH3 0x1D47 JUMPI DUP9 DUP7 ADD MLOAD DUP3 SSTORE SWAP5 DUP5 ADD SWAP5 PUSH1 0x1 SWAP1 SWAP2 ADD SWAP1 DUP5 ADD PUSH3 0x1D26 JUMP JUMPDEST POP DUP6 DUP3 LT ISZERO PUSH3 0x1D66 JUMPI DUP8 DUP6 ADD MLOAD PUSH1 0x0 NOT PUSH1 0x3 DUP9 SWAP1 SHL PUSH1 0xF8 AND SHR NOT AND DUP2 SSTORE JUMPDEST POP POP POP POP POP PUSH1 0x1 SWAP1 DUP2 SHL ADD SWAP1 SSTORE POP JUMP JUMPDEST PUSH1 0x0 PUSH1 0x1 DUP1 PUSH1 0xA0 SHL SUB DUP1 DUP9 AND DUP4 MSTORE PUSH1 0xA0 PUSH1 0x20 DUP5 ADD MSTORE PUSH3 0x1D9A PUSH1 0xA0 DUP5 ADD DUP9 PUSH3 0x1694 JUMP JUMPDEST DUP4 DUP2 SUB PUSH1 0x40 DUP6 ADD MSTORE PUSH3 0x1DAE DUP2 DUP9 PUSH3 0x1694 JUMP JUMPDEST SWAP1 POP DUP4 DUP2 SUB PUSH1 0x60 DUP6 ADD MSTORE PUSH3 0x1DC4 DUP2 DUP8 PUSH3 0x1694 JUMP JUMPDEST SWAP3 POP POP DUP1 DUP5 AND PUSH1 0x80 DUP5 ADD MSTORE POP SWAP7 SWAP6 POP POP POP POP POP POP JUMP JUMPDEST PUSH4 0x4E487B71 PUSH1 0xE0 SHL PUSH1 0x0 MSTORE PUSH1 0x32 PUSH1 0x4 MSTORE PUSH1 0x24 PUSH1 0x0 REVERT JUMPDEST PUSH1 0x0 DUP3 PUSH3 0x1E0E JUMPI PUSH4 0x4E487B71 PUSH1 0xE0 SHL PUSH1 0x0 MSTORE PUSH1 0x12 PUSH1 0x4 MSTORE PUSH1 0x24 PUSH1 0x0 REVERT JUMPDEST POP DIV SWAP1 JUMP JUMPDEST PUSH1 0x0 PUSH1 0x20 DUP3 DUP5 SUB SLT ISZERO PUSH3 0x1E26 JUMPI PUSH1 0x0 DUP1 REVERT JUMPDEST DUP2 MLOAD PUSH1 0xFF DUP2 AND DUP2 EQ PUSH3 0x1B56 JUMPI PUSH1 0x0 DUP1 REVERT JUMPDEST PUSH1 0x1 DUP2 DUP2 JUMPDEST DUP1 DUP6 GT ISZERO PUSH3 0x1E79 JUMPI DUP2 PUSH1 0x0 NOT DIV DUP3 GT ISZERO PUSH3 0x1E5D JUMPI PUSH3 0x1E5D PUSH3 0x1BAD JUMP JUMPDEST DUP1 DUP6 AND ISZERO PUSH3 0x1E6B JUMPI SWAP2 DUP2 MUL SWAP2 JUMPDEST SWAP4 DUP5 SHR SWAP4 SWAP1 DUP1 MUL SWAP1 PUSH3 0x1E3D JUMP JUMPDEST POP SWAP3 POP SWAP3 SWAP1 POP JUMP JUMPDEST PUSH1 0x0 DUP3 PUSH3 0x1E92 JUMPI POP PUSH1 0x1 PUSH3 0x699 JUMP JUMPDEST DUP2 PUSH3 0x1EA1 JUMPI POP PUSH1 0x0 PUSH3 0x699 JUMP JUMPDEST DUP2 PUSH1 0x1 DUP2 EQ PUSH3 0x1EBA JUMPI PUSH1 0x2 DUP2 EQ PUSH3 0x1EC5 JUMPI PUSH3 0x1EE5 JUMP JUMPDEST PUSH1 0x1 SWAP2 POP POP PUSH3 0x699 JUMP JUMPDEST PUSH1 0xFF DUP5 GT ISZERO PUSH3 0x1ED9 JUMPI PUSH3 0x1ED9 PUSH3 0x1BAD JUMP JUMPDEST POP POP PUSH1 0x1 DUP3 SHL PUSH3 0x699 JUMP JUMPDEST POP PUSH1 0x20 DUP4 LT PUSH2 0x133 DUP4 LT AND PUSH1 0x4E DUP5 LT PUSH1 0xB DUP5 LT AND OR ISZERO PUSH3 0x1F0A JUMPI POP DUP2 DUP2 EXP PUSH3 0x699 JUMP JUMPDEST PUSH3 0x1F16 DUP4 DUP4 PUSH3 0x1E38 JUMP JUMPDEST DUP1 PUSH1 0x0 NOT DIV DUP3 GT ISZERO PUSH3 0x1F2D JUMPI PUSH3 0x1F2D PUSH3 0x1BAD JUMP JUMPDEST MUL SWAP4 SWAP3 POP POP POP JUMP JUMPDEST PUSH1 0x0 PUSH3 0x1B56 PUSH1 0xFF DUP5 AND DUP4 PUSH3 0x1E81 JUMP JUMPDEST PUSH1 0x0 PUSH1 0x20 DUP3 DUP5 SUB SLT ISZERO PUSH3 0x1F59 JUMPI PUSH1 0x0 DUP1 REVERT JUMPDEST DUP2 MLOAD DUP1 ISZERO ISZERO DUP2 EQ PUSH3 0x1B56 JUMPI PUSH1 0x0 DUP1 REVERT INVALID PUSH1 0x80 PUSH1 0x40 MSTORE CALLVALUE DUP1 ISZERO PUSH3 0x11 JUMPI PUSH1 0x0 DUP1 REVERT JUMPDEST POP PUSH1 0x40 MLOAD PUSH3 0x1396 CODESIZE SUB DUP1 PUSH3 0x1396 DUP4 CODECOPY DUP2 ADD PUSH1 0x40 DUP2 SWAP1 MSTORE PUSH3 0x34 SWAP2 PUSH3 0x300 JUMP JUMPDEST DUP2 DUP2 PUSH1 0x3 PUSH3 0x44 DUP4 DUP3 PUSH3 0x3F8 JUMP JUMPDEST POP PUSH1 0x4 PUSH3 0x53 DUP3 DUP3 PUSH3 0x3F8 JUMP JUMPDEST POP POP PUSH1 0x5 DUP1 SLOAD PUSH1 0xFF NOT AND SWAP1 SSTORE POP PUSH3 0x6B CALLER PUSH3 0x9B JUMP JUMPDEST PUSH3 0x93 CALLER PUSH3 0x7E PUSH1 0x12 PUSH1 0xA PUSH3 0x5D9 JUMP JUMPDEST PUSH3 0x8D SWAP1 PUSH3 0xF4240 PUSH3 0x5EE JUMP JUMPDEST PUSH3 0xF5 JUMP JUMPDEST POP POP PUSH3 0x61E JUMP JUMPDEST PUSH1 0x5 DUP1 SLOAD PUSH1 0x1 PUSH1 0x1 PUSH1 0xA0 SHL SUB DUP4 DUP2 AND PUSH2 0x100 DUP2 DUP2 MUL PUSH2 0x100 PUSH1 0x1 PUSH1 0xA8 SHL SUB NOT DUP6 AND OR SWAP1 SWAP5 SSTORE PUSH1 0x40 MLOAD SWAP4 SWAP1 SWAP3 DIV AND SWAP2 DUP3 SWAP1 PUSH32 0x8BE0079C531659141344CD1FD0A4F28419497F9722A3DAAFE3B4186F6B6457E0 SWAP1 PUSH1 0x0 SWAP1 LOG3 POP POP JUMP JUMPDEST PUSH1 0x1 PUSH1 0x1 PUSH1 0xA0 SHL SUB DUP3 AND PUSH3 0x151 JUMPI PUSH1 0x40 MLOAD PUSH3 0x461BCD PUSH1 0xE5 SHL DUP2 MSTORE PUSH1 0x20 PUSH1 0x4 DUP3 ADD MSTORE PUSH1 0x1F PUSH1 0x24 DUP3 ADD MSTORE PUSH32 0x45524332303A206D696E7420746F20746865207A65726F206164647265737300 PUSH1 0x44 DUP3 ADD MSTORE PUSH1 0x64 ADD JUMPDEST PUSH1 0x40 MLOAD DUP1 SWAP2 SUB SWAP1 REVERT JUMPDEST PUSH3 0x15F PUSH1 0x0 DUP4 DUP4 PUSH3 0x1CA JUMP JUMPDEST DUP1 PUSH1 0x2 PUSH1 0x0 DUP3 DUP3 SLOAD PUSH3 0x173 SWAP2 SWAP1 PUSH3 0x608 JUMP JUMPDEST SWAP1 SWAP2 SSTORE POP POP PUSH1 0x1 PUSH1 0x1 PUSH1 0xA0 SHL SUB DUP3 AND PUSH1 0x0 DUP2 DUP2 MSTORE PUSH1 0x20 DUP2 DUP2 MSTORE PUSH1 0x40 DUP1 DUP4 KECCAK256 DUP1 SLOAD DUP7 ADD SWAP1 SSTORE MLOAD DUP5 DUP2 MSTORE PUSH32 0xDDF252AD1BE2C89B69C2B068FC378DAA952BA7F163C4A11628F55A4DF523B3EF SWAP2 ADD PUSH1 0x40 MLOAD DUP1 SWAP2 SUB SWAP1 LOG3 POP POP JUMP JUMPDEST PUSH3 0x1D4 PUSH3 0x1F1 JUMP JUMPDEST PUSH3 0x1EC DUP4 DUP4 DUP4 PUSH3 0x1EC PUSH1 0x20 SHL PUSH3 0x529 OR PUSH1 0x20 SHR JUMP JUMPDEST POP POP POP JUMP JUMPDEST PUSH1 0x5 SLOAD PUSH1 0xFF AND ISZERO PUSH3 0x239 JUMPI PUSH1 0x40 MLOAD PUSH3 0x461BCD PUSH1 0xE5 SHL DUP2 MSTORE PUSH1 0x20 PUSH1 0x4 DUP3 ADD MSTORE PUSH1 0x10 PUSH1 0x24 DUP3 ADD MSTORE PUSH16 0x14185D5CD8589B194E881C185D5CD959 PUSH1 0x82 SHL PUSH1 0x44 DUP3 ADD MSTORE PUSH1 0x64 ADD PUSH3 0x148 JUMP JUMPDEST JUMP JUMPDEST PUSH4 0x4E487B71 PUSH1 0xE0 SHL PUSH1 0x0 MSTORE PUSH1 0x41 PUSH1 0x4 MSTORE PUSH1 0x24 PUSH1 0x0 REVERT JUMPDEST PUSH1 0x0 DUP3 PUSH1 0x1F DUP4 ADD SLT PUSH3 0x263 JUMPI PUSH1 0x0 DUP1 REVERT JUMPDEST DUP2 MLOAD PUSH1 0x1 PUSH1 0x1 PUSH1 0x40 SHL SUB DUP1 DUP3 GT ISZERO PUSH3 0x280 JUMPI PUSH3 0x280 PUSH3 0x23B JUMP JUMPDEST PUSH1 0x40 MLOAD PUSH1 0x1F DUP4 ADD PUSH1 0x1F NOT SWAP1 DUP2 AND PUSH1 0x3F ADD AND DUP2 ADD SWAP1 DUP3 DUP3 GT DUP2 DUP4 LT OR ISZERO PUSH3 0x2AB JUMPI PUSH3 0x2AB PUSH3 0x23B JUMP JUMPDEST DUP2 PUSH1 0x40 MSTORE DUP4 DUP2 MSTORE PUSH1 0x20 SWAP3 POP DUP7 DUP4 DUP6 DUP9 ADD ADD GT ISZERO PUSH3 0x2C8 JUMPI PUSH1 0x0 DUP1 REVERT JUMPDEST PUSH1 0x0 SWAP2 POP JUMPDEST DUP4 DUP3 LT ISZERO PUSH3 0x2EC JUMPI DUP6 DUP3 ADD DUP4 ADD MLOAD DUP2 DUP4 ADD DUP5 ADD MSTORE SWAP1 DUP3 ADD SWAP1 PUSH3 0x2CD JUMP JUMPDEST PUSH1 0x0 SWAP4 DUP2 ADD SWAP1 SWAP3 ADD SWAP3 SWAP1 SWAP3 MSTORE SWAP5 SWAP4 POP POP POP POP JUMP JUMPDEST PUSH1 0x0 DUP1 PUSH1 0x40 DUP4 DUP6 SUB SLT ISZERO PUSH3 0x314 JUMPI PUSH1 0x0 DUP1 REVERT JUMPDEST DUP3 MLOAD PUSH1 0x1 PUSH1 0x1 PUSH1 0x40 SHL SUB DUP1 DUP3 GT ISZERO PUSH3 0x32C JUMPI PUSH1 0x0 DUP1 REVERT JUMPDEST PUSH3 0x33A DUP7 DUP4 DUP8 ADD PUSH3 0x251 JUMP JUMPDEST SWAP4 POP PUSH1 0x20 DUP6 ADD MLOAD SWAP2 POP DUP1 DUP3 GT ISZERO PUSH3 0x351 JUMPI PUSH1 0x0 DUP1 REVERT JUMPDEST POP PUSH3 0x360 DUP6 DUP3 DUP7 ADD PUSH3 0x251 JUMP JUMPDEST SWAP2 POP POP SWAP3 POP SWAP3 SWAP1 POP JUMP JUMPDEST PUSH1 0x1 DUP2 DUP2 SHR SWAP1 DUP3 AND DUP1 PUSH3 0x37F JUMPI PUSH1 0x7F DUP3 AND SWAP2 POP JUMPDEST PUSH1 0x20 DUP3 LT DUP2 SUB PUSH3 0x3A0 JUMPI PUSH4 0x4E487B71 PUSH1 0xE0 SHL PUSH1 0x0 MSTORE PUSH1 0x22 PUSH1 0x4 MSTORE PUSH1 0x24 PUSH1 0x0 REVERT JUMPDEST POP SWAP2 SWAP1 POP JUMP JUMPDEST PUSH1 0x1F DUP3 GT ISZERO PUSH3 0x1EC JUMPI PUSH1 0x0 DUP2 DUP2 MSTORE PUSH1 0x20 DUP2 KECCAK256 PUSH1 0x1F DUP6 ADD PUSH1 0x5 SHR DUP2 ADD PUSH1 0x20 DUP7 LT ISZERO PUSH3 0x3CF JUMPI POP DUP1 JUMPDEST PUSH1 0x1F DUP6 ADD PUSH1 0x5 SHR DUP3 ADD SWAP2 POP JUMPDEST DUP2 DUP2 LT ISZERO PUSH3 0x3F0 JUMPI DUP3 DUP2 SSTORE PUSH1 0x1 ADD PUSH3 0x3DB JUMP JUMPDEST POP POP POP POP POP POP JUMP JUMPDEST DUP2 MLOAD PUSH1 0x1 PUSH1 0x1 PUSH1 0x40 SHL SUB DUP2 GT ISZERO PUSH3 0x414 JUMPI PUSH3 0x414 PUSH3 0x23B JUMP JUMPDEST PUSH3 0x42C DUP2 PUSH3 0x425 DUP5 SLOAD PUSH3 0x36A JUMP JUMPDEST DUP5 PUSH3 0x3A6 JUMP JUMPDEST PUSH1 0x20 DUP1 PUSH1 0x1F DUP4 GT PUSH1 0x1 DUP2 EQ PUSH3 0x464 JUMPI PUSH1 0x0 DUP5 ISZERO PUSH3 0x44B JUMPI POP DUP6 DUP4 ADD MLOAD JUMPDEST PUSH1 0x0 NOT PUSH1 0x3 DUP7 SWAP1 SHL SHR NOT AND PUSH1 0x1 DUP6 SWAP1 SHL OR DUP6 SSTORE PUSH3 0x3F0 JUMP JUMPDEST PUSH1 0x0 DUP6 DUP2 MSTORE PUSH1 0x20 DUP2 KECCAK256 PUSH1 0x1F NOT DUP7 AND SWAP2 JUMPDEST DUP3 DUP2 LT ISZERO PUSH3 0x495 JUMPI DUP9 DUP7 ADD MLOAD DUP3 SSTORE SWAP5 DUP5 ADD SWAP5 PUSH1 0x1 SWAP1 SWAP2 ADD SWAP1 DUP5 ADD PUSH3 0x474 JUMP JUMPDEST POP DUP6 DUP3 LT ISZERO PUSH3 0x4B4 JUMPI DUP8 DUP6 ADD MLOAD PUSH1 0x0 NOT PUSH1 0x3 DUP9 SWAP1 SHL PUSH1 0xF8 AND SHR NOT AND DUP2 SSTORE JUMPDEST POP POP POP POP POP PUSH1 0x1 SWAP1 DUP2 SHL ADD SWAP1 SSTORE POP JUMP JUMPDEST PUSH4 0x4E487B71 PUSH1 0xE0 SHL PUSH1 0x0 MSTORE PUSH1 0x11 PUSH1 0x4 MSTORE PUSH1 0x24 PUSH1 0x0 REVERT JUMPDEST PUSH1 0x1 DUP2 DUP2 JUMPDEST DUP1 DUP6 GT ISZERO PUSH3 0x51B JUMPI DUP2 PUSH1 0x0 NOT DIV DUP3 GT ISZERO PUSH3 0x4FF JUMPI PUSH3 0x4FF PUSH3 0x4C4 JUMP JUMPDEST DUP1 DUP6 AND ISZERO PUSH3 0x50D JUMPI SWAP2 DUP2 MUL SWAP2 JUMPDEST SWAP4 DUP5 SHR SWAP4 SWAP1 DUP1 MUL SWAP1 PUSH3 0x4DF JUMP JUMPDEST POP SWAP3 POP SWAP3 SWAP1 POP JUMP JUMPDEST PUSH1 0x0 DUP3 PUSH3 0x534 JUMPI POP PUSH1 0x1 PUSH3 0x5D3 JUMP JUMPDEST DUP2 PUSH3 0x543 JUMPI POP PUSH1 0x0 PUSH3 0x5D3 JUMP JUMPDEST DUP2 PUSH1 0x1 DUP2 EQ PUSH3 0x55C JUMPI PUSH1 0x2 DUP2 EQ PUSH3 0x567 JUMPI PUSH3 0x587 JUMP JUMPDEST PUSH1 0x1 SWAP2 POP POP PUSH3 0x5D3 JUMP JUMPDEST PUSH1 0xFF DUP5 GT ISZERO PUSH3 0x57B JUMPI PUSH3 0x57B PUSH3 0x4C4 JUMP JUMPDEST POP POP PUSH1 0x1 DUP3 SHL PUSH3 0x5D3 JUMP JUMPDEST POP PUSH1 0x20 DUP4 LT PUSH2 0x133 DUP4 LT AND PUSH1 0x4E DUP5 LT PUSH1 0xB DUP5 LT AND OR ISZERO PUSH3 0x5AC JUMPI POP DUP2 DUP2 EXP PUSH3 0x5D3 JUMP JUMPDEST PUSH3 0x5B8 DUP4 DUP4 PUSH3 0x4DA JUMP JUMPDEST DUP1 PUSH1 0x0 NOT DIV DUP3 GT ISZERO PUSH3 0x5CF JUMPI PUSH3 0x5CF PUSH3 0x4C4 JUMP JUMPDEST MUL SWAP1 POP JUMPDEST SWAP3 SWAP2 POP POP JUMP JUMPDEST PUSH1 0x0 PUSH3 0x5E7 DUP4 DUP4 PUSH3 0x523 JUMP JUMPDEST SWAP4 SWAP3 POP POP POP JUMP JUMPDEST DUP1 DUP3 MUL DUP2 ISZERO DUP3 DUP3 DIV DUP5 EQ OR PUSH3 0x5D3 JUMPI PUSH3 0x5D3 PUSH3 0x4C4 JUMP JUMPDEST DUP1 DUP3 ADD DUP1 DUP3 GT ISZERO PUSH3 0x5D3 JUMPI PUSH3 0x5D3 PUSH3 0x4C4 JUMP JUMPDEST PUSH2 0xD68 DUP1 PUSH3 0x62E PUSH1 0x0 CODECOPY PUSH1 0x0 RETURN INVALID PUSH1 0x80 PUSH1 0x40 MSTORE CALLVALUE DUP1 ISZERO PUSH2 0x10 JUMPI PUSH1 0x0 DUP1 REVERT JUMPDEST POP PUSH1 0x4 CALLDATASIZE LT PUSH2 0x121 JUMPI PUSH1 0x0 CALLDATALOAD PUSH1 0xE0 SHR DUP1 PUSH4 0x70A08231 GT PUSH2 0xAD JUMPI DUP1 PUSH4 0x95D89B41 GT PUSH2 0x71 JUMPI DUP1 PUSH4 0x95D89B41 EQ PUSH2 0x24B JUMPI DUP1 PUSH4 0xA457C2D7 EQ PUSH2 0x253 JUMPI DUP1 PUSH4 0xA9059CBB EQ PUSH2 0x266 JUMPI DUP1 PUSH4 0xDD62ED3E EQ PUSH2 0x279 JUMPI DUP1 PUSH4 0xF2FDE38B EQ PUSH2 0x28C JUMPI PUSH1 0x0 DUP1 REVERT JUMPDEST DUP1 PUSH4 0x70A08231 EQ PUSH2 0x1D6 JUMPI DUP1 PUSH4 0x715018A6 EQ PUSH2 0x1FF JUMPI DUP1 PUSH4 0x79CC6790 EQ PUSH2 0x207 JUMPI DUP1 PUSH4 0x8456CB59 EQ PUSH2 0x21A JUMPI DUP1 PUSH4 0x8DA5CB5B EQ PUSH2 0x222 JUMPI PUSH1 0x0 DUP1 REVERT JUMPDEST DUP1 PUSH4 0x313CE567 GT PUSH2 0xF4 JUMPI DUP1 PUSH4 0x313CE567 EQ PUSH2 0x18C JUMPI DUP1 PUSH4 0x39509351 EQ PUSH2 0x19B JUMPI DUP1 PUSH4 0x3F4BA83A EQ PUSH2 0x1AE JUMPI DUP1 PUSH4 0x42966C68 EQ PUSH2 0x1B8 JUMPI DUP1 PUSH4 0x5C975ABB EQ PUSH2 0x1CB JUMPI PUSH1 0x0 DUP1 REVERT JUMPDEST DUP1 PUSH4 0x6FDDE03 EQ PUSH2 0x126 JUMPI DUP1 PUSH4 0x95EA7B3 EQ PUSH2 0x144 JUMPI DUP1 PUSH4 0x18160DDD EQ PUSH2 0x167 JUMPI DUP1 PUSH4 0x23B872DD EQ PUSH2 0x179 JUMPI JUMPDEST PUSH1 0x0 DUP1 REVERT JUMPDEST PUSH2 0x12E PUSH2 0x29F JUMP JUMPDEST PUSH1 0x40 MLOAD PUSH2 0x13B SWAP2 SWAP1 PUSH2 0xB99 JUMP JUMPDEST PUSH1 0x40 MLOAD DUP1 SWAP2 SUB SWAP1 RETURN JUMPDEST PUSH2 0x157 PUSH2 0x152 CALLDATASIZE PUSH1 0x4 PUSH2 0xC03 JUMP JUMPDEST PUSH2 0x331 JUMP JUMPDEST PUSH1 0x40 MLOAD SWAP1 ISZERO ISZERO DUP2 MSTORE PUSH1 0x20 ADD PUSH2 0x13B JUMP JUMPDEST PUSH1 0x2 SLOAD JUMPDEST PUSH1 0x40 MLOAD SWAP1 DUP2 MSTORE PUSH1 0x20 ADD PUSH2 0x13B JUMP JUMPDEST PUSH2 0x157 PUSH2 0x187 CALLDATASIZE PUSH1 0x4 PUSH2 0xC2D JUMP JUMPDEST PUSH2 0x34B JUMP JUMPDEST PUSH1 0x40 MLOAD PUSH1 0x12 DUP2 MSTORE PUSH1 0x20 ADD PUSH2 0x13B JUMP JUMPDEST PUSH2 0x157 PUSH2 0x1A9 CALLDATASIZE PUSH1 0x4 PUSH2 0xC03 JUMP JUMPDEST PUSH2 0x36F JUMP JUMPDEST PUSH2 0x1B6 PUSH2 0x391 JUMP JUMPDEST STOP JUMPDEST PUSH2 0x1B6 PUSH2 0x1C6 CALLDATASIZE PUSH1 0x4 PUSH2 0xC69 JUMP JUMPDEST PUSH2 0x3A3 JUMP JUMPDEST PUSH1 0x5 SLOAD PUSH1 0xFF AND PUSH2 0x157 JUMP JUMPDEST PUSH2 0x16B PUSH2 0x1E4 CALLDATASIZE PUSH1 0x4 PUSH2 0xC82 JUMP JUMPDEST PUSH1 0x1 PUSH1 0x1 PUSH1 0xA0 SHL SUB AND PUSH1 0x0 SWAP1 DUP2 MSTORE PUSH1 0x20 DUP2 SWAP1 MSTORE PUSH1 0x40 SWAP1 KECCAK256 SLOAD SWAP1 JUMP JUMPDEST PUSH2 0x1B6 PUSH2 0x3B0 JUMP JUMPDEST PUSH2 0x1B6 PUSH2 0x215 CALLDATASIZE PUSH1 0x4 PUSH2 0xC03 JUMP JUMPDEST PUSH2 0x3C2 JUMP JUMPDEST PUSH2 0x1B6 PUSH2 0x3DB JUMP JUMPDEST PUSH1 0x5 SLOAD PUSH2 0x100 SWAP1 DIV PUSH1 0x1 PUSH1 0x1 PUSH1 0xA0 SHL SUB AND PUSH1 0x40 MLOAD PUSH1 0x1 PUSH1 0x1 PUSH1 0xA0 SHL SUB SWAP1 SWAP2 AND DUP2 MSTORE PUSH1 0x20 ADD PUSH2 0x13B JUMP JUMPDEST PUSH2 0x12E PUSH2 0x3EB JUMP JUMPDEST PUSH2 0x157 PUSH2 0x261 CALLDATASIZE PUSH1 0x4 PUSH2 0xC03 JUMP JUMPDEST PUSH2 0x3FA JUMP JUMPDEST PUSH2 0x157 PUSH2 0x274 CALLDATASIZE PUSH1 0x4 PUSH2 0xC03 JUMP JUMPDEST PUSH2 0x47A JUMP JUMPDEST PUSH2 0x16B PUSH2 0x287 CALLDATASIZE PUSH1 0x4 PUSH2 0xCA4 JUMP JUMPDEST PUSH2 0x488 JUMP JUMPDEST PUSH2 0x1B6 PUSH2 0x29A CALLDATASIZE PUSH1 0x4 PUSH2 0xC82 JUMP JUMPDEST PUSH2 0x4B3 JUMP JUMPDEST PUSH1 0x60 PUSH1 0x3 DUP1 SLOAD PUSH2 0x2AE SWAP1 PUSH2 0xCD7 JUMP JUMPDEST DUP1 PUSH1 0x1F ADD PUSH1 0x20 DUP1 SWAP2 DIV MUL PUSH1 0x20 ADD PUSH1 0x40 MLOAD SWAP1 DUP2 ADD PUSH1 0x40 MSTORE DUP1 SWAP3 SWAP2 SWAP1 DUP2 DUP2 MSTORE PUSH1 0x20 ADD DUP3 DUP1 SLOAD PUSH2 0x2DA SWAP1 PUSH2 0xCD7 JUMP JUMPDEST DUP1 ISZERO PUSH2 0x327 JUMPI DUP1 PUSH1 0x1F LT PUSH2 0x2FC JUMPI PUSH2 0x100 DUP1 DUP4 SLOAD DIV MUL DUP4 MSTORE SWAP2 PUSH1 0x20 ADD SWAP2 PUSH2 0x327 JUMP JUMPDEST DUP3 ADD SWAP2 SWAP1 PUSH1 0x0 MSTORE PUSH1 0x20 PUSH1 0x0 KECCAK256 SWAP1 JUMPDEST DUP2 SLOAD DUP2 MSTORE SWAP1 PUSH1 0x1 ADD SWAP1 PUSH1 0x20 ADD DUP1 DUP4 GT PUSH2 0x30A JUMPI DUP3 SWAP1 SUB PUSH1 0x1F AND DUP3 ADD SWAP2 JUMPDEST POP POP POP POP POP SWAP1 POP SWAP1 JUMP JUMPDEST PUSH1 0x0 CALLER PUSH2 0x33F DUP2 DUP6 DUP6 PUSH2 0x52E JUMP JUMPDEST PUSH1 0x1 SWAP2 POP POP JUMPDEST SWAP3 SWAP2 POP POP JUMP JUMPDEST PUSH1 0x0 CALLER PUSH2 0x359 DUP6 DUP3 DUP6 PUSH2 0x652 JUMP JUMPDEST PUSH2 0x364 DUP6 DUP6 DUP6 PUSH2 0x6CC JUMP JUMPDEST POP PUSH1 0x1 SWAP5 SWAP4 POP POP POP POP JUMP JUMPDEST PUSH1 0x0 CALLER PUSH2 0x33F DUP2 DUP6 DUP6 PUSH2 0x382 DUP4 DUP4 PUSH2 0x488 JUMP JUMPDEST PUSH2 0x38C SWAP2 SWAP1 PUSH2 0xD11 JUMP JUMPDEST PUSH2 0x52E JUMP JUMPDEST PUSH2 0x399 PUSH2 0x87B JUMP JUMPDEST PUSH2 0x3A1 PUSH2 0x8DB JUMP JUMPDEST JUMP JUMPDEST PUSH2 0x3AD CALLER DUP3 PUSH2 0x92D JUMP JUMPDEST POP JUMP JUMPDEST PUSH2 0x3B8 PUSH2 0x87B JUMP JUMPDEST PUSH2 0x3A1 PUSH1 0x0 PUSH2 0xA6B JUMP JUMPDEST PUSH2 0x3CD DUP3 CALLER DUP4 PUSH2 0x652 JUMP JUMPDEST PUSH2 0x3D7 DUP3 DUP3 PUSH2 0x92D JUMP JUMPDEST POP POP JUMP JUMPDEST PUSH2 0x3E3 PUSH2 0x87B JUMP JUMPDEST PUSH2 0x3A1 PUSH2 0xAC5 JUMP JUMPDEST PUSH1 0x60 PUSH1 0x4 DUP1 SLOAD PUSH2 0x2AE SWAP1 PUSH2 0xCD7 JUMP JUMPDEST PUSH1 0x0 CALLER DUP2 PUSH2 0x408 DUP3 DUP7 PUSH2 0x488 JUMP JUMPDEST SWAP1 POP DUP4 DUP2 LT ISZERO PUSH2 0x46D JUMPI PUSH1 0x40 MLOAD PUSH3 0x461BCD PUSH1 0xE5 SHL DUP2 MSTORE PUSH1 0x20 PUSH1 0x4 DUP3 ADD MSTORE PUSH1 0x25 PUSH1 0x24 DUP3 ADD MSTORE PUSH32 0x45524332303A2064656372656173656420616C6C6F77616E63652062656C6F77 PUSH1 0x44 DUP3 ADD MSTORE PUSH5 0x207A65726F PUSH1 0xD8 SHL PUSH1 0x64 DUP3 ADD MSTORE PUSH1 0x84 ADD JUMPDEST PUSH1 0x40 MLOAD DUP1 SWAP2 SUB SWAP1 REVERT JUMPDEST PUSH2 0x364 DUP3 DUP7 DUP7 DUP5 SUB PUSH2 0x52E JUMP JUMPDEST PUSH1 0x0 CALLER PUSH2 0x33F DUP2 DUP6 DUP6 PUSH2 0x6CC JUMP JUMPDEST PUSH1 0x1 PUSH1 0x1 PUSH1 0xA0 SHL SUB SWAP2 DUP3 AND PUSH1 0x0 SWAP1 DUP2 MSTORE PUSH1 0x1 PUSH1 0x20 SWAP1 DUP2 MSTORE PUSH1 0x40 DUP1 DUP4 KECCAK256 SWAP4 SWAP1 SWAP5 AND DUP3 MSTORE SWAP2 SWAP1 SWAP2 MSTORE KECCAK256 SLOAD SWAP1 JUMP JUMPDEST PUSH2 0x4BB PUSH2 0x87B JUMP JUMPDEST PUSH1 0x1 PUSH1 0x1 PUSH1 0xA0 SHL SUB DUP2 AND PUSH2 0x520 JUMPI PUSH1 0x40 MLOAD PUSH3 0x461BCD PUSH1 0xE5 SHL DUP2 MSTORE PUSH1 0x20 PUSH1 0x4 DUP3 ADD MSTORE PUSH1 0x26 PUSH1 0x24 DUP3 ADD MSTORE PUSH32 0x4F776E61626C653A206E6577206F776E657220697320746865207A65726F2061 PUSH1 0x44 DUP3 ADD MSTORE PUSH6 0x646472657373 PUSH1 0xD0 SHL PUSH1 0x64 DUP3 ADD MSTORE PUSH1 0x84 ADD PUSH2 0x464 JUMP JUMPDEST PUSH2 0x3AD DUP2 PUSH2 0xA6B JUMP JUMPDEST POP POP POP JUMP JUMPDEST PUSH1 0x1 PUSH1 0x1 PUSH1 0xA0 SHL SUB DUP4 AND PUSH2 0x590 JUMPI PUSH1 0x40 MLOAD PUSH3 0x461BCD PUSH1 0xE5 SHL DUP2 MSTORE PUSH1 0x20 PUSH1 0x4 DUP3 ADD MSTORE PUSH1 0x24 DUP1 DUP3 ADD MSTORE PUSH32 0x45524332303A20617070726F76652066726F6D20746865207A65726F20616464 PUSH1 0x44 DUP3 ADD MSTORE PUSH4 0x72657373 PUSH1 0xE0 SHL PUSH1 0x64 DUP3 ADD MSTORE PUSH1 0x84 ADD PUSH2 0x464 JUMP JUMPDEST PUSH1 0x1 PUSH1 0x1 PUSH1 0xA0 SHL SUB DUP3 AND PUSH2 0x5F1 JUMPI PUSH1 0x40 MLOAD PUSH3 0x461BCD PUSH1 0xE5 SHL DUP2 MSTORE PUSH1 0x20 PUSH1 0x4 DUP3 ADD MSTORE PUSH1 0x22 PUSH1 0x24 DUP3 ADD MSTORE PUSH32 0x45524332303A20617070726F766520746F20746865207A65726F206164647265 PUSH1 0x44 DUP3 ADD MSTORE PUSH2 0x7373 PUSH1 0xF0 SHL PUSH1 0x64 DUP3 ADD MSTORE PUSH1 0x84 ADD PUSH2 0x464 JUMP JUMPDEST PUSH1 0x1 PUSH1 0x1 PUSH1 0xA0 SHL SUB DUP4 DUP2 AND PUSH1 0x0 DUP2 DUP2 MSTORE PUSH1 0x1 PUSH1 0x20 SWAP1 DUP2 MSTORE PUSH1 0x40 DUP1 DUP4 KECCAK256 SWAP5 DUP8 AND DUP1 DUP5 MSTORE SWAP5 DUP3 MSTORE SWAP2 DUP3 SWAP1 KECCAK256 DUP6 SWAP1 SSTORE SWAP1 MLOAD DUP5 DUP2 MSTORE PUSH32 0x8C5BE1E5EBEC7D5BD14F71427D1E84F3DD0314C0F7B2291E5B200AC8C7C3B925 SWAP2 ADD PUSH1 0x40 MLOAD DUP1 SWAP2 SUB SWAP1 LOG3 POP POP POP JUMP JUMPDEST PUSH1 0x0 PUSH2 0x65E DUP5 DUP5 PUSH2 0x488 JUMP JUMPDEST SWAP1 POP PUSH1 0x0 NOT DUP2 EQ PUSH2 0x6C6 JUMPI DUP2 DUP2 LT ISZERO PUSH2 0x6B9 JUMPI PUSH1 0x40 MLOAD PUSH3 0x461BCD PUSH1 0xE5 SHL DUP2 MSTORE PUSH1 0x20 PUSH1 0x4 DUP3 ADD MSTORE PUSH1 0x1D PUSH1 0x24 DUP3 ADD MSTORE PUSH32 0x45524332303A20696E73756666696369656E7420616C6C6F77616E6365000000 PUSH1 0x44 DUP3 ADD MSTORE PUSH1 0x64 ADD PUSH2 0x464 JUMP JUMPDEST PUSH2 0x6C6 DUP5 DUP5 DUP5 DUP5 SUB PUSH2 0x52E JUMP JUMPDEST POP POP POP POP JUMP JUMPDEST PUSH1 0x1 PUSH1 0x1 PUSH1 0xA0 SHL SUB DUP4 AND PUSH2 0x730 JUMPI PUSH1 0x40 MLOAD PUSH3 0x461BCD PUSH1 0xE5 SHL DUP2 MSTORE PUSH1 0x20 PUSH1 0x4 DUP3 ADD MSTORE PUSH1 0x25 PUSH1 0x24 DUP3 ADD MSTORE PUSH32 0x45524332303A207472616E736665722066726F6D20746865207A65726F206164 PUSH1 0x44 DUP3 ADD MSTORE PUSH5 0x6472657373 PUSH1 0xD8 SHL PUSH1 0x64 DUP3 ADD MSTORE PUSH1 0x84 ADD PUSH2 0x464 JUMP JUMPDEST PUSH1 0x1 PUSH1 0x1 PUSH1 0xA0 SHL SUB DUP3 AND PUSH2 0x792 JUMPI PUSH1 0x40 MLOAD PUSH3 0x461BCD PUSH1 0xE5 SHL DUP2 MSTORE PUSH1 0x20 PUSH1 0x4 DUP3 ADD MSTORE PUSH1 0x23 PUSH1 0x24 DUP3 ADD MSTORE PUSH32 0x45524332303A207472616E7366657220746F20746865207A65726F2061646472 PUSH1 0x44 DUP3 ADD MSTORE PUSH3 0x657373 PUSH1 0xE8 SHL PUSH1 0x64 DUP3 ADD MSTORE PUSH1 0x84 ADD PUSH2 0x464 JUMP JUMPDEST PUSH2 0x79D DUP4 DUP4 DUP4 PUSH2 0xB02 JUMP JUMPDEST PUSH1 0x1 PUSH1 0x1 PUSH1 0xA0 SHL SUB DUP4 AND PUSH1 0x0 SWAP1 DUP2 MSTORE PUSH1 0x20 DUP2 SWAP1 MSTORE PUSH1 0x40 SWAP1 KECCAK256 SLOAD DUP2 DUP2 LT ISZERO PUSH2 0x815 JUMPI PUSH1 0x40 MLOAD PUSH3 0x461BCD PUSH1 0xE5 SHL DUP2 MSTORE PUSH1 0x20 PUSH1 0x4 DUP3 ADD MSTORE PUSH1 0x26 PUSH1 0x24 DUP3 ADD MSTORE PUSH32 0x45524332303A207472616E7366657220616D6F756E7420657863656564732062 PUSH1 0x44 DUP3 ADD MSTORE PUSH6 0x616C616E6365 PUSH1 0xD0 SHL PUSH1 0x64 DUP3 ADD MSTORE PUSH1 0x84 ADD PUSH2 0x464 JUMP JUMPDEST PUSH1 0x1 PUSH1 0x1 PUSH1 0xA0 SHL SUB DUP5 DUP2 AND PUSH1 0x0 DUP2 DUP2 MSTORE PUSH1 0x20 DUP2 DUP2 MSTORE PUSH1 0x40 DUP1 DUP4 KECCAK256 DUP8 DUP8 SUB SWAP1 SSTORE SWAP4 DUP8 AND DUP1 DUP4 MSTORE SWAP2 DUP5 SWAP1 KECCAK256 DUP1 SLOAD DUP8 ADD SWAP1 SSTORE SWAP3 MLOAD DUP6 DUP2 MSTORE SWAP1 SWAP3 PUSH32 0xDDF252AD1BE2C89B69C2B068FC378DAA952BA7F163C4A11628F55A4DF523B3EF SWAP2 ADD PUSH1 0x40 MLOAD DUP1 SWAP2 SUB SWAP1 LOG3 PUSH2 0x6C6 JUMP JUMPDEST PUSH1 0x5 SLOAD PUSH1 0x1 PUSH1 0x1 PUSH1 0xA0 SHL SUB PUSH2 0x100 SWAP1 SWAP2 DIV AND CALLER EQ PUSH2 0x3A1 JUMPI PUSH1 0x40 MLOAD PUSH3 0x461BCD PUSH1 0xE5 SHL DUP2 MSTORE PUSH1 0x20 PUSH1 0x4 DUP3 ADD DUP2 SWAP1 MSTORE PUSH1 0x24 DUP3 ADD MSTORE PUSH32 0x4F776E61626C653A2063616C6C6572206973206E6F7420746865206F776E6572 PUSH1 0x44 DUP3 ADD MSTORE PUSH1 0x64 ADD PUSH2 0x464 JUMP JUMPDEST PUSH2 0x8E3 PUSH2 0xB0A JUMP JUMPDEST PUSH1 0x5 DUP1 SLOAD PUSH1 0xFF NOT AND SWAP1 SSTORE PUSH32 0x5DB9EE0A495BF2E6FF9C91A7834C1BA4FDD244A5E8AA4E537BD38AEAE4B073AA CALLER JUMPDEST PUSH1 0x40 MLOAD PUSH1 0x1 PUSH1 0x1 PUSH1 0xA0 SHL SUB SWAP1 SWAP2 AND DUP2 MSTORE PUSH1 0x20 ADD PUSH1 0x40 MLOAD DUP1 SWAP2 SUB SWAP1 LOG1 JUMP JUMPDEST PUSH1 0x1 PUSH1 0x1 PUSH1 0xA0 SHL SUB DUP3 AND PUSH2 0x98D JUMPI PUSH1 0x40 MLOAD PUSH3 0x461BCD PUSH1 0xE5 SHL DUP2 MSTORE PUSH1 0x20 PUSH1 0x4 DUP3 ADD MSTORE PUSH1 0x21 PUSH1 0x24 DUP3 ADD MSTORE PUSH32 0x45524332303A206275726E2066726F6D20746865207A65726F20616464726573 PUSH1 0x44 DUP3 ADD MSTORE PUSH1 0x73 PUSH1 0xF8 SHL PUSH1 0x64 DUP3 ADD MSTORE PUSH1 0x84 ADD PUSH2 0x464 JUMP JUMPDEST PUSH2 0x999 DUP3 PUSH1 0x0 DUP4 PUSH2 0xB02 JUMP JUMPDEST PUSH1 0x1 PUSH1 0x1 PUSH1 0xA0 SHL SUB DUP3 AND PUSH1 0x0 SWAP1 DUP2 MSTORE PUSH1 0x20 DUP2 SWAP1 MSTORE PUSH1 0x40 SWAP1 KECCAK256 SLOAD DUP2 DUP2 LT ISZERO PUSH2 0xA0D JUMPI PUSH1 0x40 MLOAD PUSH3 0x461BCD PUSH1 0xE5 SHL DUP2 MSTORE PUSH1 0x20 PUSH1 0x4 DUP3 ADD MSTORE PUSH1 0x22 PUSH1 0x24 DUP3 ADD MSTORE PUSH32 0x45524332303A206275726E20616D6F756E7420657863656564732062616C616E PUSH1 0x44 DUP3 ADD MSTORE PUSH2 0x6365 PUSH1 0xF0 SHL PUSH1 0x64 DUP3 ADD MSTORE PUSH1 0x84 ADD PUSH2 0x464 JUMP JUMPDEST PUSH1 0x1 PUSH1 0x1 PUSH1 0xA0 SHL SUB DUP4 AND PUSH1 0x0 DUP2 DUP2 MSTORE PUSH1 0x20 DUP2 DUP2 MSTORE PUSH1 0x40 DUP1 DUP4 KECCAK256 DUP7 DUP7 SUB SWAP1 SSTORE PUSH1 0x2 DUP1 SLOAD DUP8 SWAP1 SUB SWAP1 SSTORE MLOAD DUP6 DUP2 MSTORE SWAP2 SWAP3 SWAP2 PUSH32 0xDDF252AD1BE2C89B69C2B068FC378DAA952BA7F163C4A11628F55A4DF523B3EF SWAP2 ADD PUSH1 0x40 MLOAD DUP1 SWAP2 SUB SWAP1 LOG3 POP POP POP JUMP JUMPDEST PUSH1 0x5 DUP1 SLOAD PUSH1 0x1 PUSH1 0x1 PUSH1 0xA0 SHL SUB DUP4 DUP2 AND PUSH2 0x100 DUP2 DUP2 MUL PUSH2 0x100 PUSH1 0x1 PUSH1 0xA8 SHL SUB NOT DUP6 AND OR SWAP1 SWAP5 SSTORE PUSH1 0x40 MLOAD SWAP4 SWAP1 SWAP3 DIV AND SWAP2 DUP3 SWAP1 PUSH32 0x8BE0079C531659141344CD1FD0A4F28419497F9722A3DAAFE3B4186F6B6457E0 SWAP1 PUSH1 0x0 SWAP1 LOG3 POP POP JUMP JUMPDEST PUSH2 0xACD PUSH2 0xB53 JUMP JUMPDEST PUSH1 0x5 DUP1 SLOAD PUSH1 0xFF NOT AND PUSH1 0x1 OR SWAP1 SSTORE PUSH32 0x62E78CEA01BEE320CD4E420270B5EA74000D11B0C9F74754EBDBFC544B05A258 PUSH2 0x910 CALLER SWAP1 JUMP JUMPDEST PUSH2 0x529 PUSH2 0xB53 JUMP JUMPDEST PUSH1 0x5 SLOAD PUSH1 0xFF AND PUSH2 0x3A1 JUMPI PUSH1 0x40 MLOAD PUSH3 0x461BCD PUSH1 0xE5 SHL DUP2 MSTORE PUSH1 0x20 PUSH1 0x4 DUP3 ADD MSTORE PUSH1 0x14 PUSH1 0x24 DUP3 ADD MSTORE PUSH20 0x14185D5CD8589B194E881B9BDD081C185D5CD959 PUSH1 0x62 SHL PUSH1 0x44 DUP3 ADD MSTORE PUSH1 0x64 ADD PUSH2 0x464 JUMP JUMPDEST PUSH1 0x5 SLOAD PUSH1 0xFF AND ISZERO PUSH2 0x3A1 JUMPI PUSH1 0x40 MLOAD PUSH3 0x461BCD PUSH1 0xE5 SHL DUP2 MSTORE PUSH1 0x20 PUSH1 0x4 DUP3 ADD MSTORE PUSH1 0x10 PUSH1 0x24 DUP3 ADD MSTORE PUSH16 0x14185D5CD8589B194E881C185D5CD959 PUSH1 0x82 SHL PUSH1 0x44 DUP3 ADD MSTORE PUSH1 0x64 ADD PUSH2 0x464 JUMP JUMPDEST PUSH1 0x0 PUSH1 0x20 DUP1 DUP4 MSTORE DUP4 MLOAD DUP1 DUP3 DUP6 ADD MSTORE PUSH1 0x0 JUMPDEST DUP2 DUP2 LT ISZERO PUSH2 0xBC6 JUMPI DUP6 DUP2 ADD DUP4 ADD MLOAD DUP6 DUP3 ADD PUSH1 0x40 ADD MSTORE DUP3 ADD PUSH2 0xBAA JUMP JUMPDEST POP PUSH1 0x0 PUSH1 0x40 DUP3 DUP7 ADD ADD MSTORE PUSH1 0x40 PUSH1 0x1F NOT PUSH1 0x1F DUP4 ADD AND DUP6 ADD ADD SWAP3 POP POP POP SWAP3 SWAP2 POP POP JUMP JUMPDEST DUP1 CALLDATALOAD PUSH1 0x1 PUSH1 0x1 PUSH1 0xA0 SHL SUB DUP2 AND DUP2 EQ PUSH2 0xBFE JUMPI PUSH1 0x0 DUP1 REVERT JUMPDEST SWAP2 SWAP1 POP JUMP JUMPDEST PUSH1 0x0 DUP1 PUSH1 0x40 DUP4 DUP6 SUB SLT ISZERO PUSH2 0xC16 JUMPI PUSH1 0x0 DUP1 REVERT JUMPDEST PUSH2 0xC1F DUP4 PUSH2 0xBE7 JUMP JUMPDEST SWAP5 PUSH1 0x20 SWAP4 SWAP1 SWAP4 ADD CALLDATALOAD SWAP4 POP POP POP JUMP JUMPDEST PUSH1 0x0 DUP1 PUSH1 0x0 PUSH1 0x60 DUP5 DUP7 SUB SLT ISZERO PUSH2 0xC42 JUMPI PUSH1 0x0 DUP1 REVERT JUMPDEST PUSH2 0xC4B DUP5 PUSH2 0xBE7 JUMP JUMPDEST SWAP3 POP PUSH2 0xC59 PUSH1 0x20 DUP6 ADD PUSH2 0xBE7 JUMP JUMPDEST SWAP2 POP PUSH1 0x40 DUP5 ADD CALLDATALOAD SWAP1 POP SWAP3 POP SWAP3 POP SWAP3 JUMP JUMPDEST PUSH1 0x0 PUSH1 0x20 DUP3 DUP5 SUB SLT ISZERO PUSH2 0xC7B JUMPI PUSH1 0x0 DUP1 REVERT JUMPDEST POP CALLDATALOAD SWAP2 SWAP1 POP JUMP JUMPDEST PUSH1 0x0 PUSH1 0x20 DUP3 DUP5 SUB SLT ISZERO PUSH2 0xC94 JUMPI PUSH1 0x0 DUP1 REVERT JUMPDEST PUSH2 0xC9D DUP3 PUSH2 0xBE7 JUMP JUMPDEST SWAP4 SWAP3 POP POP POP JUMP JUMPDEST PUSH1 0x0 DUP1 PUSH1 0x40 DUP4 DUP6 SUB SLT ISZERO PUSH2 0xCB7 JUMPI PUSH1 0x0 DUP1 REVERT JUMPDEST PUSH2 0xCC0 DUP4 PUSH2 0xBE7 JUMP JUMPDEST SWAP2 POP PUSH2 0xCCE PUSH1 0x20 DUP5 ADD PUSH2 0xBE7 JUMP JUMPDEST SWAP1 POP SWAP3 POP SWAP3 SWAP1 POP JUMP JUMPDEST PUSH1 0x1 DUP2 DUP2 SHR SWAP1 DUP3 AND DUP1 PUSH2 0xCEB JUMPI PUSH1 0x7F DUP3 AND SWAP2 POP JUMPDEST PUSH1 0x20 DUP3 LT DUP2 SUB PUSH2 0xD0B JUMPI PUSH4 0x4E487B71 PUSH1 0xE0 SHL PUSH1 0x0 MSTORE PUSH1 0x22 PUSH1 0x4 MSTORE PUSH1 0x24 PUSH1 0x0 REVERT JUMPDEST POP SWAP2 SWAP1 POP JUMP JUMPDEST DUP1 DUP3 ADD DUP1 DUP3 GT ISZERO PUSH2 0x345 JUMPI PUSH4 0x4E487B71 PUSH1 0xE0 SHL PUSH1 0x0 MSTORE PUSH1 0x11 PUSH1 0x4 MSTORE PUSH1 0x24 PUSH1 0x0 REVERT INVALID LOG2 PUSH5 0x6970667358 0x22 SLT KECCAK256 DUP2 CREATE2 RETURNDATASIZE CALLER SSTORE PUSH29 0x96A7F192A47617D2E4018CEB830B8132D07127D2BD7BDFF378A264736F PUSH13 0x63430008110033A26469706673 PC 0x22 SLT KECCAK256 PUSH7 0x90CEC202693838 0xD7 PUSH26 0x2581F8E01B032F30F752151745592B6300DC9B6FF28464736F6C PUSH4 0x43000811 STOP CALLER "},"methodIdentifiers":{"campaigns(uint256)":"141961bc","checkTokenBalance(uint256,address)":"36018941","createCampaign(address,string,string,uint256,uint256,string,string,string)":"61620866","donateToCampaign(uint256)":"42a4fda8","getCampaigns()":"a6b03633","getDonators(uint256)":"0fa91fa9","number_of_campaigns()":"84f0659b","owner()":"8da5cb5b","pause()":"8456cb59","paused()":"5c975abb","renounceOwnership()":"715018a6","transferOwnership(address)":"f2fde38b","unpause()":"3f4ba83a"}}}}}