{
  "_format": "hh-sol-artifact-1",
  "contractName": "TokenMarketplace",
  "sourceName": "contracts/TokenMarketplace_v2.sol",
  "abi": [
    {
      "anonymous": false,
      "inputs": [
        {
          "indexed": true,
          "internalType": "uint256",
          "name": "listingId",
          "type": "uint256"
        },
        {
          "indexed": true,
          "internalType": "address",
          "name": "seller",
          "type": "address"
        },
        {
          "indexed": true,
          "internalType": "address",
          "name": "tokenAddress",
          "type": "address"
        },
        {
          "indexed": false,
          "internalType": "uint256",
          "name": "tokenAmount",
          "type": "uint256"
        },
        {
          "indexed": false,
          "internalType": "uint256",
          "name": "totalPrice",
          "type": "uint256"
        }
      ],
      "name": "ListingCreated",
      "type": "event"
    },
    {
      "anonymous": false,
      "inputs": [
        {
          "indexed": true,
          "internalType": "uint256",
          "name": "listingId",
          "type": "uint256"
        },
        {
          "indexed": true,
          "internalType": "address",
          "name": "buyer",
          "type": "address"
        },
        {
          "indexed": false,
          "internalType": "uint256",
          "name": "tokenAmount",
          "type": "uint256"
        },
        {
          "indexed": false,
          "internalType": "uint256",
          "name": "totalPrice",
          "type": "uint256"
        }
      ],
      "name": "ListingPurchased",
      "type": "event"
    },
    {
      "inputs": [
        {
          "internalType": "uint256",
          "name": "_listingId",
          "type": "uint256"
        }
      ],
      "name": "cancelListing",
      "outputs": [],
      "stateMutability": "nonpayable",
      "type": "function"
    },
    {
      "inputs": [
        {
          "internalType": "address",
          "name": "_tokenAddress",
          "type": "address"
        },
        {
          "internalType": "uint256",
          "name": "_tokenAmount",
          "type": "uint256"
        },
        {
          "internalType": "uint256",
          "name": "_totalPrice",
          "type": "uint256"
        }
      ],
      "name": "createListing",
      "outputs": [],
      "stateMutability": "nonpayable",
      "type": "function"
    },
    {
      "inputs": [],
      "name": "listingCounter",
      "outputs": [
        {
          "internalType": "uint256",
          "name": "",
          "type": "uint256"
        }
      ],
      "stateMutability": "view",
      "type": "function"
    },
    {
      "inputs": [
        {
          "internalType": "uint256",
          "name": "",
          "type": "uint256"
        }
      ],
      "name": "listings",
      "outputs": [
        {
          "internalType": "address",
          "name": "seller",
          "type": "address"
        },
        {
          "internalType": "address",
          "name": "tokenAddress",
          "type": "address"
        },
        {
          "internalType": "uint256",
          "name": "tokenAmount",
          "type": "uint256"
        },
        {
          "internalType": "uint256",
          "name": "totalPrice",
          "type": "uint256"
        },
        {
          "internalType": "bool",
          "name": "active",
          "type": "bool"
        }
      ],
      "stateMutability": "view",
      "type": "function"
    },
    {
      "inputs": [
        {
          "internalType": "uint256",
          "name": "_listingId",
          "type": "uint256"
        }
      ],
      "name": "purchaseListing",
      "outputs": [],
      "stateMutability": "payable",
      "type": "function"
    }
  ],
  "bytecode": "0x608060405234801561001057600080fd5b50610845806100206000396000f3fe60806040526004361061004a5760003560e01c8063169d5a7d1461004f57806324780c5614610064578063305a67a8146100845780636c2c9c7d146100a4578063de74e57b146100cd575b600080fd5b61006261005d36600461074c565b61015b565b005b34801561007057600080fd5b5061006261007f366004610765565b610370565b34801561009057600080fd5b5061006261009f36600461074c565b61067c565b3480156100b057600080fd5b506100ba60015481565b6040519081526020015b60405180910390f35b3480156100d957600080fd5b506101266100e836600461074c565b600060208190529081526040902080546001820154600283015460038401546004909401546001600160a01b03938416949390921692909160ff1685565b604080516001600160a01b0396871681529590941660208601529284019190915260608301521515608082015260a0016100c4565b6000818152602081905260409020600481015460ff166101ba5760405162461bcd60e51b81526020600482015260156024820152744c697374696e67206973206e6f742061637469766560581b60448201526064015b60405180910390fd5b8060030154341461020d5760405162461bcd60e51b815260206004820152601860248201527f496e636f7272656374207061796d656e7420616d6f756e74000000000000000060448201526064016101b1565b6001810154815460028301546040516323b872dd60e01b81526001600160a01b039283166004820152336024820152604481019190915291169081906323b872dd906064016020604051808303816000875af1158015610271573d6000803e3d6000fd5b505050506040513d601f19601f8201168201806040525081019061029591906107a6565b6102d95760405162461bcd60e51b8152602060048201526015602482015274151bdad95b881d1c985b9cd9995c8819985a5b1959605a1b60448201526064016101b1565b815460038301546040516001600160a01b039092169181156108fc0291906000818181858888f19350505050158015610316573d6000803e3d6000fd5b5060048201805460ff1916905560028201546003830154604080519283526020830191909152339185917f0db6cd6881fc0453b2d01f52eb5a16417707659f245732abc10f847426e3525d910160405180910390a3505050565b600082116103cc5760405162461bcd60e51b815260206004820152602360248201527f546f6b656e20616d6f756e74206d75737420626520677265617465722074686160448201526206e20360ec1b60648201526084016101b1565b600081116104275760405162461bcd60e51b815260206004820152602260248201527f546f74616c207072696365206d7573742062652067726561746572207468616e604482015261020360f41b60648201526084016101b1565b6040516370a0823160e01b8152336004820152839083906001600160a01b038316906370a0823190602401602060405180830381865afa15801561046f573d6000803e3d6000fd5b505050506040513d601f19601f8201168201806040525081019061049391906107cf565b10156104e15760405162461bcd60e51b815260206004820152601a60248201527f496e73756666696369656e7420746f6b656e2062616c616e636500000000000060448201526064016101b1565b60405163095ea7b360e01b8152306004820152602481018490526001600160a01b0382169063095ea7b3906044016020604051808303816000875af115801561052e573d6000803e3d6000fd5b505050506040513d601f19601f8201168201806040525081019061055291906107a6565b6105905760405162461bcd60e51b815260206004820152600f60248201526e105c1c1c9bdd985b0819985a5b1959608a1b60448201526064016101b1565b6040805160a081018252338082526001600160a01b0387811660208085018281528587018a8152606087018a8152600160808901818152815460009081528087528b902099518a549089166001600160a01b0319918216178b5594518a830180549190991695169490941790965590516002880155516003870155516004909501805495151560ff1990961695909517909455905484518881529384018790529093919290917f508c75a3cb42c068e54cf9e0b738921b4e2375725c5965ef4a110475606fc05a910160405180910390a460018054906000610671836107e8565b919050555050505050565b600081815260208190526040902080546001600160a01b031633146106f25760405162461bcd60e51b815260206004820152602660248201527f4f6e6c79207468652073656c6c65722063616e2063616e63656c20746865206c604482015265697374696e6760d01b60648201526084016101b1565b600481015460ff1661073e5760405162461bcd60e51b81526020600482015260156024820152744c697374696e67206973206e6f742061637469766560581b60448201526064016101b1565b600401805460ff1916905550565b60006020828403121561075e57600080fd5b5035919050565b60008060006060848603121561077a57600080fd5b83356001600160a01b038116811461079157600080fd5b95602085013595506040909401359392505050565b6000602082840312156107b857600080fd5b815180151581146107c857600080fd5b9392505050565b6000602082840312156107e157600080fd5b5051919050565b60006001820161080857634e487b7160e01b600052601160045260246000fd5b506001019056fea26469706673582212206aefcc6ffb2ee48c821584db65c97f9d7343cd2712813a814838768653c0d76b64736f6c63430008110033",
  "linkReferences": {},
  "deployedLinkReferences": {}
}