{
  "_format": "hh-sol-artifact-1",
  "contractName": "TokenMarketplace",
  "sourceName": "contracts/TokenMarketplace.sol",
  "abi": [
    {
      "anonymous": false,
      "inputs": [
        {
          "indexed": true,
          "internalType": "address",
          "name": "user",
          "type": "address"
        },
        {
          "indexed": false,
          "internalType": "string",
          "name": "message",
          "type": "string"
        },
        {
          "indexed": false,
          "internalType": "uint256",
          "name": "value",
          "type": "uint256"
        }
      ],
      "name": "DebugInfo",
      "type": "event"
    },
    {
      "anonymous": false,
      "inputs": [
        {
          "indexed": true,
          "internalType": "uint256",
          "name": "offerId",
          "type": "uint256"
        }
      ],
      "name": "OfferCancelled",
      "type": "event"
    },
    {
      "anonymous": false,
      "inputs": [
        {
          "indexed": true,
          "internalType": "uint256",
          "name": "offerId",
          "type": "uint256"
        },
        {
          "indexed": true,
          "internalType": "address",
          "name": "token",
          "type": "address"
        },
        {
          "indexed": true,
          "internalType": "address",
          "name": "seller",
          "type": "address"
        },
        {
          "indexed": false,
          "internalType": "uint256",
          "name": "tokenAmount",
          "type": "uint256"
        },
        {
          "indexed": false,
          "internalType": "uint256",
          "name": "totalPrice",
          "type": "uint256"
        },
        {
          "indexed": false,
          "internalType": "uint256",
          "name": "campaignId",
          "type": "uint256"
        }
      ],
      "name": "OfferCreated",
      "type": "event"
    },
    {
      "anonymous": false,
      "inputs": [
        {
          "indexed": true,
          "internalType": "uint256",
          "name": "offerId",
          "type": "uint256"
        },
        {
          "indexed": true,
          "internalType": "address",
          "name": "token",
          "type": "address"
        },
        {
          "indexed": true,
          "internalType": "address",
          "name": "buyer",
          "type": "address"
        },
        {
          "indexed": false,
          "internalType": "uint256",
          "name": "tokenAmount",
          "type": "uint256"
        },
        {
          "indexed": false,
          "internalType": "uint256",
          "name": "totalPrice",
          "type": "uint256"
        }
      ],
      "name": "TokensPurchased",
      "type": "event"
    },
    {
      "inputs": [
        {
          "internalType": "uint256",
          "name": "offerId",
          "type": "uint256"
        }
      ],
      "name": "buyTokens",
      "outputs": [],
      "stateMutability": "payable",
      "type": "function"
    },
    {
      "inputs": [
        {
          "internalType": "uint256",
          "name": "offerId",
          "type": "uint256"
        }
      ],
      "name": "cancelOffer",
      "outputs": [],
      "stateMutability": "nonpayable",
      "type": "function"
    },
    {
      "inputs": [],
      "name": "getListings",
      "outputs": [
        {
          "components": [
            {
              "internalType": "address",
              "name": "seller",
              "type": "address"
            },
            {
              "internalType": "address",
              "name": "token",
              "type": "address"
            },
            {
              "internalType": "uint256",
              "name": "tokenAmount",
              "type": "uint256"
            },
            {
              "internalType": "uint256",
              "name": "totalPrice",
              "type": "uint256"
            },
            {
              "internalType": "uint256",
              "name": "campaignId",
              "type": "uint256"
            },
            {
              "internalType": "bool",
              "name": "isActive",
              "type": "bool"
            }
          ],
          "internalType": "struct TokenMarketplace.Offer[]",
          "name": "",
          "type": "tuple[]"
        }
      ],
      "stateMutability": "view",
      "type": "function"
    },
    {
      "inputs": [
        {
          "internalType": "address",
          "name": "tokenAddress",
          "type": "address"
        },
        {
          "internalType": "uint256",
          "name": "tokenAmount",
          "type": "uint256"
        },
        {
          "internalType": "uint256",
          "name": "totalPrice",
          "type": "uint256"
        },
        {
          "internalType": "uint256",
          "name": "campaignId",
          "type": "uint256"
        }
      ],
      "name": "listTokens",
      "outputs": [],
      "stateMutability": "nonpayable",
      "type": "function"
    },
    {
      "inputs": [
        {
          "internalType": "uint256",
          "name": "",
          "type": "uint256"
        }
      ],
      "name": "offers",
      "outputs": [
        {
          "internalType": "address",
          "name": "seller",
          "type": "address"
        },
        {
          "internalType": "address",
          "name": "token",
          "type": "address"
        },
        {
          "internalType": "uint256",
          "name": "tokenAmount",
          "type": "uint256"
        },
        {
          "internalType": "uint256",
          "name": "totalPrice",
          "type": "uint256"
        },
        {
          "internalType": "uint256",
          "name": "campaignId",
          "type": "uint256"
        },
        {
          "internalType": "bool",
          "name": "isActive",
          "type": "bool"
        }
      ],
      "stateMutability": "view",
      "type": "function"
    }
  ],
  "bytecode": "0x608060405234801561001057600080fd5b50600160005561127a806100256000396000f3fe60806040526004361061004a5760003560e01c80633610724e1461004f57806339adb2c1146100645780638a72ea6a14610084578063ef706adf146100e3578063f1b2d6a314610103575b600080fd5b61006261005d366004611015565b610125565b005b34801561007057600080fd5b5061006261007f36600461102e565b610308565b34801561009057600080fd5b506100a461009f366004611015565b6108fb565b604080516001600160a01b0397881681529690951660208701529385019290925260608401526080830152151560a082015260c0015b60405180910390f35b3480156100ef57600080fd5b506100626100fe366004611015565b610951565b34801561010f57600080fd5b50610118610ad4565b6040516100da9190611075565b61012d610cb1565b600154811061017b5760405162461bcd60e51b815260206004820152601560248201527427b33332b9103237b2b9903737ba1032bc34b9ba1760591b60448201526064015b60405180910390fd5b600060018281548110610190576101906110fb565b60009182526020909120600690910201600581015490915060ff166101ee5760405162461bcd60e51b815260206004820152601460248201527327b33332b91034b9903737ba1030b1ba34bb329760611b6044820152606401610172565b806003015434146102415760405162461bcd60e51b815260206004820152601d60248201527f496e636f727265637420616d6f756e74206f66204554482073656e742e0000006044820152606401610172565b60058101805460ff1916905580546040516001600160a01b03909116903480156108fc02916000818181858888f19350505050158015610285573d6000803e3d6000fd5b50600181015460028201546001600160a01b03909116906102a99082903390610d0a565b600182015460028301546040805191825234602083015233926001600160a01b03169186917f06a468bc780ea805d80491ed9f300c36122c94bcb715acc7a8606f510f6c2ecd910160405180910390a450506103056001600055565b50565b60408051818152600e818301526d46756e6374696f6e20456e74727960901b60608201526000602082015290513391600080516020611225833981519152919081900360800190a2600083116103b05760405162461bcd60e51b815260206004820152602760248201527f546f6b656e20616d6f756e74206d75737420626520677265617465722074686160448201526637103d32b9379760c91b6064820152608401610172565b604080518181526017818301527f436865636b656420746f6b656e416d6f756e74203e203000000000000000000060608201526020810185905290513391600080516020611225833981519152919081900360800190a2600082116104665760405162461bcd60e51b815260206004820152602660248201527f546f74616c207072696365206d7573742062652067726561746572207468616e604482015265103d32b9379760d11b6064820152608401610172565b60408051818152601681830152750436865636b656420746f74616c5072696365203e20360541b60608201526020810184905290513391600080516020611225833981519152919081900360800190a2604080518181526017818301527f455243323020746f6b656e20696e697469616c697a65640000000000000000006060820152600060208201529051859133916000805160206112258339815191529181900360800190a2604051636eb1769f60e11b81523360048201523060248201526000906001600160a01b0383169063dd62ed3e90604401602060405180830381865afa15801561055b573d6000803e3d6000fd5b505050506040513d601f19601f8201168201806040525081019061057f9190611111565b604080518181526017818301527f546f6b656e20616c6c6f77616e636520636865636b6564000000000000000000606082015260208101839052905191925033916000805160206112258339815191529181900360800190a2848110156106285760405162461bcd60e51b815260206004820152601960248201527f436865636b2074686520746f6b656e20616c6c6f77616e6365000000000000006044820152606401610172565b60408051818152601a818301527f546f6b656e20616c6c6f77616e63652073756666696369656e7400000000000060608201526020810183905290513391600080516020611225833981519152919081900360800190a26106946001600160a01b038316333088610d72565b6040805181815260128183015271151bdad95b9cc81d1c985b9cd9995c9c995960721b60608201526020810187905290513391600080516020611225833981519152919081900360800190a26040805160c0810182523381526001600160a01b03888116602083019081529282018881526060830188815260808401888152600160a08601818152815480830183556000838152885160069092027fb10e2d527612073b26eecdfd717e6a320cf44b4afac2b0732d9fcbe2b7fa0cf681018054938a166001600160a01b031994851617905599517fb10e2d527612073b26eecdfd717e6a320cf44b4afac2b0732d9fcbe2b7fa0cf78b0180549190991692169190911790965593517fb10e2d527612073b26eecdfd717e6a320cf44b4afac2b0732d9fcbe2b7fa0cf888015591517fb10e2d527612073b26eecdfd717e6a320cf44b4afac2b0732d9fcbe2b7fa0cf9870155517fb10e2d527612073b26eecdfd717e6a320cf44b4afac2b0732d9fcbe2b7fa0cfa86015590517fb10e2d527612073b26eecdfd717e6a320cf44b4afac2b0732d9fcbe2b7fa0cfb909401805494151560ff19909516949094179093558254919290916108539190611140565b604080518981526020810189905290810187905290915033906001600160a01b038a169083907fa5b221016d244158f755de9c5739283f750d2f7285cde6af0a9e11aafa1d60229060600160405180910390a4604080518181526011818301527013995dc81bd999995c8818dc99585d1959607a1b60608201526020810183905290513391600080516020611225833981519152919081900360800190a25050505050505050565b6001818154811061090b57600080fd5b60009182526020909120600690910201805460018201546002830154600384015460048501546005909501546001600160a01b0394851696509390921693909260ff1686565b600154811061099a5760405162461bcd60e51b815260206004820152601560248201527427b33332b9103237b2b9903737ba1032bc34b9ba1760591b6044820152606401610172565b6000600182815481106109af576109af6110fb565b6000918252602090912060069091020180549091506001600160a01b03163314610a2a5760405162461bcd60e51b815260206004820152602660248201527f4f6e6c79207468652073656c6c65722063616e2063616e63656c20746869732060448201526537b33332b91760d11b6064820152608401610172565b600581015460ff16610a755760405162461bcd60e51b815260206004820152601460248201527327b33332b91034b9903737ba1030b1ba34bb329760611b6044820152606401610172565b60058101805460ff19169055600181015460028201546001600160a01b0390911690610aa49082903390610d0a565b60405183907fc28b4aed030bfacc245c0501326e1beb8c0ef0d60e4edc21067fdeb52da2a7aa90600090a2505050565b60606000805b600154811015610b335760018181548110610af757610af76110fb565b600091825260209091206005600690920201015460ff1615610b215781610b1d81611159565b9250505b80610b2b81611159565b915050610ada565b5060008167ffffffffffffffff811115610b4f57610b4f611172565b604051908082528060200260200182016040528015610baf57816020015b6040805160c08101825260008082526020808301829052928201819052606082018190526080820181905260a08201528252600019909201910181610b6d5790505b5090506000805b600154811015610ca85760018181548110610bd357610bd36110fb565b600091825260209091206005600690920201015460ff1615610c965760018181548110610c0257610c026110fb565b60009182526020918290206040805160c081018252600690930290910180546001600160a01b03908116845260018201541693830193909352600283015490820152600382015460608201526004820154608082015260059091015460ff16151560a08201528351849084908110610c7c57610c7c6110fb565b60200260200101819052508180610c9290611159565b9250505b80610ca081611159565b915050610bb6565b50909392505050565b600260005403610d035760405162461bcd60e51b815260206004820152601f60248201527f5265656e7472616e637947756172643a207265656e7472616e742063616c6c006044820152606401610172565b6002600055565b6040516001600160a01b038316602482015260448101829052610d6d90849063a9059cbb60e01b906064015b60408051601f198184030181529190526020810180516001600160e01b03166001600160e01b031990931692909217909152610db0565b505050565b6040516001600160a01b0380851660248301528316604482015260648101829052610daa9085906323b872dd60e01b90608401610d36565b50505050565b6000610e05826040518060400160405280602081526020017f5361666545524332303a206c6f772d6c6576656c2063616c6c206661696c6564815250856001600160a01b0316610e859092919063ffffffff16565b9050805160001480610e26575080806020019051810190610e269190611188565b610d6d5760405162461bcd60e51b815260206004820152602a60248201527f5361666545524332303a204552433230206f7065726174696f6e20646964206e6044820152691bdd081cdd58d8d9595960b21b6064820152608401610172565b6060610e948484600085610e9c565b949350505050565b606082471015610efd5760405162461bcd60e51b815260206004820152602660248201527f416464726573733a20696e73756666696369656e742062616c616e636520666f6044820152651c8818d85b1b60d21b6064820152608401610172565b600080866001600160a01b03168587604051610f1991906111d5565b60006040518083038185875af1925050503d8060008114610f56576040519150601f19603f3d011682016040523d82523d6000602084013e610f5b565b606091505b5091509150610f6c87838387610f77565b979650505050505050565b60608315610fe6578251600003610fdf576001600160a01b0385163b610fdf5760405162461bcd60e51b815260206004820152601d60248201527f416464726573733a2063616c6c20746f206e6f6e2d636f6e74726163740000006044820152606401610172565b5081610e94565b610e948383815115610ffb5781518083602001fd5b8060405162461bcd60e51b815260040161017291906111f1565b60006020828403121561102757600080fd5b5035919050565b6000806000806080858703121561104457600080fd5b84356001600160a01b038116811461105b57600080fd5b966020860135965060408601359560600135945092505050565b602080825282518282018190526000919060409081850190868401855b828110156110ee57815180516001600160a01b0390811686528782015116878601528581015186860152606080820151908601526080808201519086015260a09081015115159085015260c09093019290850190600101611092565b5091979650505050505050565b634e487b7160e01b600052603260045260246000fd5b60006020828403121561112357600080fd5b5051919050565b634e487b7160e01b600052601160045260246000fd5b818103818111156111535761115361112a565b92915050565b60006001820161116b5761116b61112a565b5060010190565b634e487b7160e01b600052604160045260246000fd5b60006020828403121561119a57600080fd5b815180151581146111aa57600080fd5b9392505050565b60005b838110156111cc5781810151838201526020016111b4565b50506000910152565b600082516111e78184602087016111b1565b9190910192915050565b60208152600082518060208401526112108160408501602087016111b1565b601f01601f1916919091016040019291505056feaa3b234dc3332eddb8a59d31390b9c8536c80c1d507c13a086471932909b9d82a2646970667358221220dc0f5ff8ca7dfa9cb365598eed35fd2736435c1e3743f1dba4ebd74d46c05ace64736f6c63430008110033",
  "linkReferences": {},
  "deployedLinkReferences": {}
}