{
  "_format": "hh-sol-artifact-1",
  "contractName": "Crowdfunding",
  "sourceName": "contracts/Crowdfunding.sol",
  "abi": [
    {
      "anonymous": false,
      "inputs": [
        {
          "indexed": false,
          "internalType": "uint256",
          "name": "campaignId",
          "type": "uint256"
        },
        {
          "indexed": false,
          "internalType": "address",
          "name": "owner",
          "type": "address"
        },
        {
          "indexed": false,
          "internalType": "string",
          "name": "title",
          "type": "string"
        },
        {
          "indexed": false,
          "internalType": "uint256",
          "name": "target",
          "type": "uint256"
        },
        {
          "indexed": false,
          "internalType": "uint256",
          "name": "deadline",
          "type": "uint256"
        }
      ],
      "name": "CampaignCreated",
      "type": "event"
    },
    {
      "anonymous": false,
      "inputs": [
        {
          "indexed": false,
          "internalType": "uint256",
          "name": "campaignId",
          "type": "uint256"
        },
        {
          "indexed": false,
          "internalType": "uint256",
          "name": "totalCollected",
          "type": "uint256"
        }
      ],
      "name": "CampaignFunded",
      "type": "event"
    },
    {
      "anonymous": false,
      "inputs": [
        {
          "indexed": false,
          "internalType": "uint256",
          "name": "campaignId",
          "type": "uint256"
        },
        {
          "indexed": false,
          "internalType": "address",
          "name": "donor",
          "type": "address"
        },
        {
          "indexed": false,
          "internalType": "uint256",
          "name": "amount",
          "type": "uint256"
        }
      ],
      "name": "DonationReceived",
      "type": "event"
    },
    {
      "inputs": [
        {
          "internalType": "uint256",
          "name": "",
          "type": "uint256"
        }
      ],
      "name": "campaigns",
      "outputs": [
        {
          "internalType": "address",
          "name": "owner",
          "type": "address"
        },
        {
          "internalType": "string",
          "name": "title",
          "type": "string"
        },
        {
          "internalType": "string",
          "name": "description",
          "type": "string"
        },
        {
          "internalType": "uint256",
          "name": "target",
          "type": "uint256"
        },
        {
          "internalType": "uint256",
          "name": "deadline",
          "type": "uint256"
        },
        {
          "internalType": "uint256",
          "name": "amount_collected",
          "type": "uint256"
        },
        {
          "internalType": "string",
          "name": "image",
          "type": "string"
        }
      ],
      "stateMutability": "view",
      "type": "function"
    },
    {
      "inputs": [
        {
          "internalType": "address",
          "name": "_owner",
          "type": "address"
        },
        {
          "internalType": "string",
          "name": "_title",
          "type": "string"
        },
        {
          "internalType": "string",
          "name": "_description",
          "type": "string"
        },
        {
          "internalType": "uint256",
          "name": "_target",
          "type": "uint256"
        },
        {
          "internalType": "uint256",
          "name": "_deadline",
          "type": "uint256"
        },
        {
          "internalType": "string",
          "name": "_image",
          "type": "string"
        }
      ],
      "name": "createCampaign",
      "outputs": [
        {
          "internalType": "uint256",
          "name": "",
          "type": "uint256"
        }
      ],
      "stateMutability": "nonpayable",
      "type": "function"
    },
    {
      "inputs": [
        {
          "internalType": "uint256",
          "name": "_id",
          "type": "uint256"
        }
      ],
      "name": "donateToCampaign",
      "outputs": [],
      "stateMutability": "payable",
      "type": "function"
    },
    {
      "inputs": [],
      "name": "getCampaigns",
      "outputs": [
        {
          "components": [
            {
              "internalType": "address",
              "name": "owner",
              "type": "address"
            },
            {
              "internalType": "string",
              "name": "title",
              "type": "string"
            },
            {
              "internalType": "string",
              "name": "description",
              "type": "string"
            },
            {
              "internalType": "uint256",
              "name": "target",
              "type": "uint256"
            },
            {
              "internalType": "uint256",
              "name": "deadline",
              "type": "uint256"
            },
            {
              "internalType": "uint256",
              "name": "amount_collected",
              "type": "uint256"
            },
            {
              "internalType": "string",
              "name": "image",
              "type": "string"
            },
            {
              "internalType": "address[]",
              "name": "donators",
              "type": "address[]"
            },
            {
              "internalType": "uint256[]",
              "name": "donations",
              "type": "uint256[]"
            }
          ],
          "internalType": "struct Crowdfunding.Campaign[]",
          "name": "",
          "type": "tuple[]"
        }
      ],
      "stateMutability": "view",
      "type": "function"
    },
    {
      "inputs": [
        {
          "internalType": "uint256",
          "name": "_id",
          "type": "uint256"
        }
      ],
      "name": "getDonators",
      "outputs": [
        {
          "internalType": "address[]",
          "name": "",
          "type": "address[]"
        },
        {
          "internalType": "uint256[]",
          "name": "",
          "type": "uint256[]"
        }
      ],
      "stateMutability": "view",
      "type": "function"
    },
    {
      "inputs": [],
      "name": "number_of_campaigns",
      "outputs": [
        {
          "internalType": "uint256",
          "name": "",
          "type": "uint256"
        }
      ],
      "stateMutability": "view",
      "type": "function"
    }
  ],
  "bytecode": "0x6080604052600060015534801561001557600080fd5b5061111b806100256000396000f3fe6080604052600436106100555760003560e01c80630fa91fa91461005a578063141961bc1461009157806342a4fda8146100c457806384f0659b146100d95780639943e3a1146100fd578063a6b036331461011d575b600080fd5b34801561006657600080fd5b5061007a610075366004610ac9565b61013f565b604051610088929190610ae2565b60405180910390f35b34801561009d57600080fd5b506100b16100ac366004610ac9565b610260565b6040516100889796959493929190610bac565b6100d76100d2366004610ac9565b61043d565b005b3480156100e557600080fd5b506100ef60015481565b604051908152602001610088565b34801561010957600080fd5b506100ef610118366004610cb9565b6105df565b34801561012957600080fd5b50610132610722565b6040516100889190610de6565b6060808260015481106101945760405162461bcd60e51b815260206004820152601860248201527721b0b6b830b4b3b7103237b2b9903737ba1032bc34b9ba1760411b60448201526064015b60405180910390fd5b6000848152602081815260409182902060078101805484518185028101850190955280855290936008909201928491908301828280156101fd57602002820191906000526020600020905b81546001600160a01b031681526001909101906020018083116101df575b505050505091508080548060200260200160405190810160405280929190818152602001828054801561024f57602002820191906000526020600020905b81548152602001906001019080831161023b575b505050505090509250925050915091565b600060208190529081526040902080546001820180546001600160a01b03909216929161028c90610ef3565b80601f01602080910402602001604051908101604052809291908181526020018280546102b890610ef3565b80156103055780601f106102da57610100808354040283529160200191610305565b820191906000526020600020905b8154815290600101906020018083116102e857829003601f168201915b50505050509080600201805461031a90610ef3565b80601f016020809104026020016040519081016040528092919081815260200182805461034690610ef3565b80156103935780601f1061036857610100808354040283529160200191610393565b820191906000526020600020905b81548152906001019060200180831161037657829003601f168201915b5050505050908060030154908060040154908060050154908060060180546103ba90610ef3565b80601f01602080910402602001604051908101604052809291908181526020018280546103e690610ef3565b80156104335780601f1061040857610100808354040283529160200191610433565b820191906000526020600020905b81548152906001019060200180831161041657829003601f168201915b5050505050905087565b80600154811061048a5760405162461bcd60e51b815260206004820152601860248201527721b0b6b830b4b3b7103237b2b9903737ba1032bc34b9ba1760411b604482015260640161018b565b600082815260208181526040808320600781018054600180820183559186528486200180546001600160a01b0319163317905560088201805491820181558552928420349301839055805491519293909290916001600160a01b03169084908381818185875af1925050503d8060008114610521576040519150601f19603f3d011682016040523d82523d6000602084013e610526565b606091505b5050905080156105d857828260050160008282546105449190610f3d565b9091555050604080518681523360208201529081018490527f0b5b4c52969ff7329ecf7ee536409fda87812b15a8622bc6e8cdeab3aee14a269060600160405180910390a181600301548260050154106105d85760058201546040805187815260208101929092527f318daf69d77e946364e804495b2184222324b99fddeb42ab5fd25a919f596e8c910160405180910390a15b5050505050565b600042831161063b5760405162461bcd60e51b815260206004820152602260248201527f54686520646561646c696e65206d75737420626520696e207468652066757475604482015261726560f01b606482015260840161018b565b60018054600090815260208190526040902080546001600160a01b0319166001600160a01b038a161781559081016106738882610fa5565b50600281016106828782610fa5565b5060038101859055600481018490556006810161069f8482610fa5565b5060006005820181905560018054916106b783611065565b91905055507fdc26653af5b99b2da33e2ad69ee6600d9aeccc82b034501db4338309615ca238600180546106eb919061107e565b89898888604051610700959493929190611091565b60405180910390a160018054610716919061107e565b98975050505050505050565b6060600060015467ffffffffffffffff81111561074157610741610c16565b6040519080825280602002602001820160405280156107ca57816020015b6107b760405180610120016040528060006001600160a01b0316815260200160608152602001606081526020016000815260200160008152602001600081526020016060815260200160608152602001606081525090565b81526020019060019003908161075f5790505b50905060005b600154811015610ac357600081815260208181526040918290208251610120810190935280546001600160a01b03168352600181018054919284019161081590610ef3565b80601f016020809104026020016040519081016040528092919081815260200182805461084190610ef3565b801561088e5780601f106108635761010080835404028352916020019161088e565b820191906000526020600020905b81548152906001019060200180831161087157829003601f168201915b505050505081526020016002820180546108a790610ef3565b80601f01602080910402602001604051908101604052809291908181526020018280546108d390610ef3565b80156109205780601f106108f557610100808354040283529160200191610920565b820191906000526020600020905b81548152906001019060200180831161090357829003601f168201915b5050505050815260200160038201548152602001600482015481526020016005820154815260200160068201805461095790610ef3565b80601f016020809104026020016040519081016040528092919081815260200182805461098390610ef3565b80156109d05780601f106109a5576101008083540402835291602001916109d0565b820191906000526020600020905b8154815290600101906020018083116109b357829003601f168201915b5050505050815260200160078201805480602002602001604051908101604052809291908181526020018280548015610a3257602002820191906000526020600020905b81546001600160a01b03168152600190910190602001808311610a14575b5050505050815260200160088201805480602002602001604051908101604052809291908181526020018280548015610a8a57602002820191906000526020600020905b815481526020019060010190808311610a76575b505050505081525050828281518110610aa557610aa56110cf565b60200260200101819052508080610abb90611065565b9150506107d0565b50919050565b600060208284031215610adb57600080fd5b5035919050565b604080825283519082018190526000906020906060840190828701845b82811015610b245781516001600160a01b031684529284019290840190600101610aff565b5050508381038285015284518082528583019183019060005b81811015610b5957835183529284019291840191600101610b3d565b5090979650505050505050565b6000815180845260005b81811015610b8c57602081850181015186830182015201610b70565b506000602082860101526020601f19601f83011685010191505092915050565b6001600160a01b038816815260e060208201819052600090610bd090830189610b66565b8281036040840152610be28189610b66565b90508660608401528560808401528460a084015282810360c0840152610c088185610b66565b9a9950505050505050505050565b634e487b7160e01b600052604160045260246000fd5b600082601f830112610c3d57600080fd5b813567ffffffffffffffff80821115610c5857610c58610c16565b604051601f8301601f19908116603f01168101908282118183101715610c8057610c80610c16565b81604052838152866020858801011115610c9957600080fd5b836020870160208301376000602085830101528094505050505092915050565b60008060008060008060c08789031215610cd257600080fd5b86356001600160a01b0381168114610ce957600080fd5b9550602087013567ffffffffffffffff80821115610d0657600080fd5b610d128a838b01610c2c565b96506040890135915080821115610d2857600080fd5b610d348a838b01610c2c565b9550606089013594506080890135935060a0890135915080821115610d5857600080fd5b50610d6589828a01610c2c565b9150509295509295509295565b600081518084526020808501945080840160005b83811015610dab5781516001600160a01b031687529582019590820190600101610d86565b509495945050505050565b600081518084526020808501945080840160005b83811015610dab57815187529582019590820190600101610dca565b60006020808301818452808551808352604092508286019150828160051b87010184880160005b83811015610ee557888303603f19018552815180516001600160a01b0316845261012088820151818a870152610e4582870182610b66565b9150508782015185820389870152610e5d8282610b66565b606084810151908801526080808501519088015260a0808501519088015260c080850151888303828a01529193509150610e978382610b66565b9250505060e08083015186830382880152610eb28382610d72565b925050506101008083015192508582038187015250610ed18183610db6565b968901969450505090860190600101610e0d565b509098975050505050505050565b600181811c90821680610f0757607f821691505b602082108103610ac357634e487b7160e01b600052602260045260246000fd5b634e487b7160e01b600052601160045260246000fd5b80820180821115610f5057610f50610f27565b92915050565b601f821115610fa057600081815260208120601f850160051c81016020861015610f7d5750805b601f850160051c820191505b81811015610f9c57828155600101610f89565b5050505b505050565b815167ffffffffffffffff811115610fbf57610fbf610c16565b610fd381610fcd8454610ef3565b84610f56565b602080601f8311600181146110085760008415610ff05750858301515b600019600386901b1c1916600185901b178555610f9c565b600085815260208120601f198616915b8281101561103757888601518255948401946001909101908401611018565b50858210156110555787850151600019600388901b60f8161c191681555b5050505050600190811b01905550565b60006001820161107757611077610f27565b5060010190565b81810381811115610f5057610f50610f27565b8581526001600160a01b038516602082015260a0604082018190526000906110bb90830186610b66565b606083019490945250608001529392505050565b634e487b7160e01b600052603260045260246000fdfea2646970667358221220657f7d8d25271019ac36c1e6bcf92242aae75a6f2759f209076d0bb76e5cbcbd64736f6c63430008110033",
  "linkReferences": {},
  "deployedLinkReferences": {}
}