{
  "_format": "hh-sol-artifact-1",
  "contractName": "Crowdfunding",
  "sourceName": "contracts/Crowdfunding_ERC_20.sol",
  "abi": [
    {
      "anonymous": false,
      "inputs": [
        {
          "indexed": true,
          "internalType": "uint256",
          "name": "campaignId",
          "type": "uint256"
        },
        {
          "indexed": false,
          "internalType": "address",
          "name": "owner",
          "type": "address"
        },
        {
          "indexed": false,
          "internalType": "string",
          "name": "title",
          "type": "string"
        },
        {
          "indexed": false,
          "internalType": "string",
          "name": "description",
          "type": "string"
        },
        {
          "indexed": false,
          "internalType": "string",
          "name": "image",
          "type": "string"
        },
        {
          "indexed": false,
          "internalType": "address",
          "name": "tokenAddress",
          "type": "address"
        }
      ],
      "name": "CampaignCreated",
      "type": "event"
    },
    {
      "anonymous": false,
      "inputs": [
        {
          "indexed": true,
          "internalType": "uint256",
          "name": "campaignId",
          "type": "uint256"
        },
        {
          "indexed": false,
          "internalType": "uint256",
          "name": "totalCollected",
          "type": "uint256"
        }
      ],
      "name": "CampaignFunded",
      "type": "event"
    },
    {
      "anonymous": false,
      "inputs": [
        {
          "indexed": true,
          "internalType": "uint256",
          "name": "campaignId",
          "type": "uint256"
        },
        {
          "indexed": false,
          "internalType": "address",
          "name": "donor",
          "type": "address"
        },
        {
          "indexed": false,
          "internalType": "uint256",
          "name": "amount",
          "type": "uint256"
        }
      ],
      "name": "DonationReceived",
      "type": "event"
    },
    {
      "anonymous": false,
      "inputs": [
        {
          "indexed": true,
          "internalType": "address",
          "name": "previousOwner",
          "type": "address"
        },
        {
          "indexed": true,
          "internalType": "address",
          "name": "newOwner",
          "type": "address"
        }
      ],
      "name": "OwnershipTransferred",
      "type": "event"
    },
    {
      "anonymous": false,
      "inputs": [
        {
          "indexed": false,
          "internalType": "address",
          "name": "account",
          "type": "address"
        }
      ],
      "name": "Paused",
      "type": "event"
    },
    {
      "anonymous": false,
      "inputs": [
        {
          "indexed": true,
          "internalType": "uint256",
          "name": "campaignId",
          "type": "uint256"
        },
        {
          "indexed": false,
          "internalType": "address",
          "name": "donor",
          "type": "address"
        },
        {
          "indexed": false,
          "internalType": "uint256",
          "name": "amount",
          "type": "uint256"
        }
      ],
      "name": "RefundIssued",
      "type": "event"
    },
    {
      "anonymous": false,
      "inputs": [
        {
          "indexed": true,
          "internalType": "uint256",
          "name": "campaignId",
          "type": "uint256"
        },
        {
          "indexed": false,
          "internalType": "address",
          "name": "donor",
          "type": "address"
        },
        {
          "indexed": false,
          "internalType": "uint256",
          "name": "amount",
          "type": "uint256"
        }
      ],
      "name": "TokensMinted",
      "type": "event"
    },
    {
      "anonymous": false,
      "inputs": [
        {
          "indexed": false,
          "internalType": "address",
          "name": "account",
          "type": "address"
        }
      ],
      "name": "Unpaused",
      "type": "event"
    },
    {
      "inputs": [
        {
          "internalType": "uint256",
          "name": "",
          "type": "uint256"
        }
      ],
      "name": "campaigns",
      "outputs": [
        {
          "internalType": "address",
          "name": "owner",
          "type": "address"
        },
        {
          "internalType": "string",
          "name": "title",
          "type": "string"
        },
        {
          "internalType": "string",
          "name": "description",
          "type": "string"
        },
        {
          "internalType": "string",
          "name": "image",
          "type": "string"
        },
        {
          "internalType": "uint256",
          "name": "target",
          "type": "uint256"
        },
        {
          "internalType": "uint256",
          "name": "deadline",
          "type": "uint256"
        },
        {
          "internalType": "uint256",
          "name": "amount_collected",
          "type": "uint256"
        },
        {
          "internalType": "address",
          "name": "tokenAddress",
          "type": "address"
        },
        {
          "internalType": "bool",
          "name": "completed",
          "type": "bool"
        },
        {
          "internalType": "bool",
          "name": "funded",
          "type": "bool"
        }
      ],
      "stateMutability": "view",
      "type": "function"
    },
    {
      "inputs": [
        {
          "internalType": "uint256",
          "name": "campaignId",
          "type": "uint256"
        },
        {
          "internalType": "address",
          "name": "user",
          "type": "address"
        }
      ],
      "name": "checkTokenBalance",
      "outputs": [
        {
          "internalType": "uint256",
          "name": "",
          "type": "uint256"
        }
      ],
      "stateMutability": "view",
      "type": "function"
    },
    {
      "inputs": [
        {
          "internalType": "address",
          "name": "_owner",
          "type": "address"
        },
        {
          "internalType": "string",
          "name": "_title",
          "type": "string"
        },
        {
          "internalType": "string",
          "name": "_description",
          "type": "string"
        },
        {
          "internalType": "uint256",
          "name": "_target",
          "type": "uint256"
        },
        {
          "internalType": "uint256",
          "name": "_deadline",
          "type": "uint256"
        },
        {
          "internalType": "string",
          "name": "_image",
          "type": "string"
        },
        {
          "internalType": "string",
          "name": "_tokenName",
          "type": "string"
        },
        {
          "internalType": "string",
          "name": "_tokenSymbol",
          "type": "string"
        }
      ],
      "name": "createCampaign",
      "outputs": [
        {
          "internalType": "uint256",
          "name": "",
          "type": "uint256"
        }
      ],
      "stateMutability": "nonpayable",
      "type": "function"
    },
    {
      "inputs": [
        {
          "internalType": "uint256",
          "name": "_id",
          "type": "uint256"
        }
      ],
      "name": "donateToCampaign",
      "outputs": [],
      "stateMutability": "payable",
      "type": "function"
    },
    {
      "inputs": [],
      "name": "getCampaigns",
      "outputs": [
        {
          "components": [
            {
              "internalType": "address",
              "name": "owner",
              "type": "address"
            },
            {
              "internalType": "string",
              "name": "title",
              "type": "string"
            },
            {
              "internalType": "string",
              "name": "description",
              "type": "string"
            },
            {
              "internalType": "string",
              "name": "image",
              "type": "string"
            },
            {
              "internalType": "uint256",
              "name": "target",
              "type": "uint256"
            },
            {
              "internalType": "uint256",
              "name": "deadline",
              "type": "uint256"
            },
            {
              "internalType": "uint256",
              "name": "amount_collected",
              "type": "uint256"
            },
            {
              "internalType": "address",
              "name": "tokenAddress",
              "type": "address"
            },
            {
              "internalType": "address[]",
              "name": "donators",
              "type": "address[]"
            },
            {
              "internalType": "uint256[]",
              "name": "donations",
              "type": "uint256[]"
            },
            {
              "internalType": "bool",
              "name": "completed",
              "type": "bool"
            },
            {
              "internalType": "bool",
              "name": "funded",
              "type": "bool"
            }
          ],
          "internalType": "struct Crowdfunding.Campaign[]",
          "name": "",
          "type": "tuple[]"
        }
      ],
      "stateMutability": "view",
      "type": "function"
    },
    {
      "inputs": [
        {
          "internalType": "uint256",
          "name": "_id",
          "type": "uint256"
        }
      ],
      "name": "getDonators",
      "outputs": [
        {
          "internalType": "address[]",
          "name": "",
          "type": "address[]"
        },
        {
          "internalType": "uint256[]",
          "name": "",
          "type": "uint256[]"
        }
      ],
      "stateMutability": "view",
      "type": "function"
    },
    {
      "inputs": [],
      "name": "number_of_campaigns",
      "outputs": [
        {
          "internalType": "uint256",
          "name": "",
          "type": "uint256"
        }
      ],
      "stateMutability": "view",
      "type": "function"
    },
    {
      "inputs": [],
      "name": "owner",
      "outputs": [
        {
          "internalType": "address",
          "name": "",
          "type": "address"
        }
      ],
      "stateMutability": "view",
      "type": "function"
    },
    {
      "inputs": [],
      "name": "pause",
      "outputs": [],
      "stateMutability": "nonpayable",
      "type": "function"
    },
    {
      "inputs": [],
      "name": "paused",
      "outputs": [
        {
          "internalType": "bool",
          "name": "",
          "type": "bool"
        }
      ],
      "stateMutability": "view",
      "type": "function"
    },
    {
      "inputs": [],
      "name": "renounceOwnership",
      "outputs": [],
      "stateMutability": "nonpayable",
      "type": "function"
    },
    {
      "inputs": [
        {
          "internalType": "address",
          "name": "newOwner",
          "type": "address"
        }
      ],
      "name": "transferOwnership",
      "outputs": [],
      "stateMutability": "nonpayable",
      "type": "function"
    },
    {
      "inputs": [],
      "name": "unpause",
      "outputs": [],
      "stateMutability": "nonpayable",
      "type": "function"
    }
  ],
  "bytecode": "0x6080604052600060025534801561001557600080fd5b506000805460ff191690556100293361002e565b610087565b600080546001600160a01b03838116610100818102610100600160a81b0319851617855560405193049190911692909183917f8be0079c531659141344cd1fd0a4f28419497f9722a3daafe3b4186f6b6457e091a35050565b613336806100966000396000f3fe608060405260043610620000d25760003560e01c806361620866116200008957806384f0659b116200006057806384f0659b14620002315780638da5cb5b1462000249578063a6b036331462000281578063f2fde38b14620002a857600080fd5b80636162086614620001dc578063715018a614620002015780638456cb59146200021957600080fd5b80630fa91fa914620000d7578063141961bc14620001155780633601894114620001525780633f4ba83a146200018657806342a4fda814620001a05780635c975abb14620001b7575b600080fd5b348015620000e457600080fd5b50620000fc620000f6366004620015f2565b620002cd565b6040516200010c9291906200160c565b60405180910390f35b3480156200012257600080fd5b506200013a62000134366004620015f2565b620003f5565b6040516200010c9a99989796959493929190620016dc565b3480156200015f57600080fd5b5062000177620001713660046200178b565b6200060e565b6040519081526020016200010c565b3480156200019357600080fd5b506200019e6200069f565b005b6200019e620001b1366004620015f2565b620006b5565b348015620001c457600080fd5b5060005460ff1660405190151581526020016200010c565b348015620001e957600080fd5b5062000177620001fb36600462001865565b620008fb565b3480156200020e57600080fd5b506200019e62000ac5565b3480156200022657600080fd5b506200019e62000adb565b3480156200023e57600080fd5b506200017760025481565b3480156200025657600080fd5b5060005461010090046001600160a01b03166040516001600160a01b0390911681526020016200010c565b3480156200028e57600080fd5b506200029962000aef565b6040516200010c9190620019e5565b348015620002b557600080fd5b506200019e620002c736600462001b38565b62000f33565b606080826002548110620003235760405162461bcd60e51b815260206004820152601860248201527721b0b6b830b4b3b7103237b2b9903737ba1032bc34b9ba1760411b60448201526064015b60405180910390fd5b60008481526001602090815260409182902060088101805484518185028101850190955280855290936009909201928491908301828280156200039057602002820191906000526020600020905b81546001600160a01b0316815260019091019060200180831162000371575b5050505050915080805480602002602001604051908101604052809291908181526020018280548015620003e457602002820191906000526020600020905b815481526020019060010190808311620003cf575b505050505090509250925050915091565b6001602081905260009182526040909120805491810180546001600160a01b0390931692620004249062001b5d565b80601f0160208091040260200160405190810160405280929190818152602001828054620004529062001b5d565b8015620004a35780601f106200047757610100808354040283529160200191620004a3565b820191906000526020600020905b8154815290600101906020018083116200048557829003601f168201915b505050505090806002018054620004ba9062001b5d565b80601f0160208091040260200160405190810160405280929190818152602001828054620004e89062001b5d565b8015620005395780601f106200050d5761010080835404028352916020019162000539565b820191906000526020600020905b8154815290600101906020018083116200051b57829003601f168201915b505050505090806003018054620005509062001b5d565b80601f01602080910402602001604051908101604052809291908181526020018280546200057e9062001b5d565b8015620005cf5780601f10620005a357610100808354040283529160200191620005cf565b820191906000526020600020905b815481529060010190602001808311620005b157829003601f168201915b505050506004830154600584015460068501546007860154600a9096015494959294919350916001600160a01b03169060ff808216916101009004168a565b600082815260016020526040808220600781015491516370a0823160e01b81526001600160a01b0385811660048301529192919091169081906370a0823190602401602060405180830381865afa1580156200066e573d6000803e3d6000fd5b505050506040513d601f19601f8201168201806040525081019062000694919062001b93565b925050505b92915050565b620006a962000fb2565b620006b362001014565b565b620006bf62001068565b8060025481106200070e5760405162461bcd60e51b815260206004820152601860248201527721b0b6b830b4b3b7103237b2b9903737ba1032bc34b9ba1760411b60448201526064016200031a565b600082815260016020526040902060050154421115620007715760405162461bcd60e51b815260206004820152601e60248201527f43616e6e6f7420646f6e6174652c2063616d706169676e20656e6465642e000060448201526064016200031a565b60008281526001602052604081206004810154909134916200079390620010b0565b90506000620007a68460060154620010b0565b90506000620007b584620010b0565b90506000620007c5838562001bc3565b9050808211156200083c576000620007de828462001bc3565b620007f290670de0b6b3a764000062001bd9565b90506200080882670de0b6b3a764000062001bd9565b604051909650339082156108fc029083906000818181858888f1935050505015801562000839573d6000803e3d6000fd5b50505b600886018054600181810183556000928352602080842090920180546001600160a01b0319163317905560098901805491820181558352908220018690556006870180548792906200089090849062001bf3565b9091555050604080513381526020810187905289917f0b5b4c52969ff7329ecf7ee536409fda87812b15a8622bc6e8cdeab3aee14a26910160405180910390a283620008e08760060154620010b0565b10620008f157620008f188620010c6565b5050505050505050565b60006200090762001068565b428511620009585760405162461bcd60e51b815260206004820152601e60248201527f446561646c696e65206d75737420626520696e2074686520667574757265000060448201526064016200031a565b600083836040516200096a90620015e4565b6200097792919062001c09565b604051809103906000f08015801562000994573d6000803e3d6000fd5b50905060006001600060026000815480929190620009b29062001c3b565b909155508152602081019190915260400160002080546001600160a01b0319166001600160a01b038d16178155905060028101620009f18a8262001ca9565b506003810162000a02878262001ca9565b506001810162000a138b8262001ca9565b5060048101889055600581018790556007810180546001600160a01b0319166001600160a01b03841617905560006006820155600a8101805461ffff1916905560025462000a649060019062001bc3565b7fad23dd63ebe4482cbc24a99ae2f8706ad4795da66976dcdbdd22ea900175ddee8c8c8c8a8760405162000a9d95949392919062001d76565b60405180910390a2600160025462000ab6919062001bc3565b9b9a5050505050505050505050565b62000acf62000fb2565b620006b3600062001500565b62000ae562000fb2565b620006b362001559565b6060600060025467ffffffffffffffff81111562000b115762000b11620017ba565b60405190808252806020026020018201604052801562000bbf57816020015b62000bab60405180610180016040528060006001600160a01b0316815260200160608152602001606081526020016060815260200160008152602001600081526020016000815260200160006001600160a01b0316815260200160608152602001606081526020016000151581526020016000151581525090565b81526020019060019003908162000b305790505b50905060005b60025481101562000f2d576000818152600160208181526040928390208351610180810190945280546001600160a01b0316845291820180549184019162000c0d9062001b5d565b80601f016020809104026020016040519081016040528092919081815260200182805462000c3b9062001b5d565b801562000c8c5780601f1062000c605761010080835404028352916020019162000c8c565b820191906000526020600020905b81548152906001019060200180831162000c6e57829003601f168201915b5050505050815260200160028201805462000ca79062001b5d565b80601f016020809104026020016040519081016040528092919081815260200182805462000cd59062001b5d565b801562000d265780601f1062000cfa5761010080835404028352916020019162000d26565b820191906000526020600020905b81548152906001019060200180831162000d0857829003601f168201915b5050505050815260200160038201805462000d419062001b5d565b80601f016020809104026020016040519081016040528092919081815260200182805462000d6f9062001b5d565b801562000dc05780601f1062000d945761010080835404028352916020019162000dc0565b820191906000526020600020905b81548152906001019060200180831162000da257829003601f168201915b505050505081526020016004820154815260200160058201548152602001600682015481526020016007820160009054906101000a90046001600160a01b03166001600160a01b03166001600160a01b031681526020016008820180548060200260200160405190810160405280929190818152602001828054801562000e7157602002820191906000526020600020905b81546001600160a01b0316815260019091019060200180831162000e52575b505050505081526020016009820180548060200260200160405190810160405280929190818152602001828054801562000ecb57602002820191906000526020600020905b81548152602001906001019080831162000eb6575b5050509183525050600a919091015460ff80821615156020840152610100909104161515604090910152825183908390811062000f0c5762000f0c62001dda565b6020026020010181905250808062000f249062001c3b565b91505062000bc5565b50919050565b62000f3d62000fb2565b6001600160a01b03811662000fa45760405162461bcd60e51b815260206004820152602660248201527f4f776e61626c653a206e6577206f776e657220697320746865207a65726f206160448201526564647265737360d01b60648201526084016200031a565b62000faf8162001500565b50565b6000546001600160a01b03610100909104163314620006b35760405162461bcd60e51b815260206004820181905260248201527f4f776e61626c653a2063616c6c6572206973206e6f7420746865206f776e657260448201526064016200031a565b6200101e62001599565b6000805460ff191690557f5db9ee0a495bf2e6ff9c91a7834c1ba4fdd244a5e8aa4e537bd38aeae4b073aa335b6040516001600160a01b03909116815260200160405180910390a1565b60005460ff1615620006b35760405162461bcd60e51b815260206004820152601060248201526f14185d5cd8589b194e881c185d5cd95960821b60448201526064016200031a565b600062000699670de0b6b3a76400008362001df0565b6000818152600160205260409020600a81015460ff1615620011375760405162461bcd60e51b8152602060048201526024808201527f43616d706169676e2068617320616c7265616479206265656e2066696e616c696044820152633d32b21760e11b60648201526084016200031a565b600a8101805460ff191660011790556004810154600682015410620013ba57600a8101805461ff001916610100179055600781015460068201546001600160a01b039091169060005b60088401548110156200137457600082846001600160a01b031663313ce5676040518163ffffffff1660e01b8152600401602060405180830381865afa158015620011cf573d6000803e3d6000fd5b505050506040513d601f19601f82011682018060405250810190620011f5919062001e13565b6200120290600a62001f35565b8660090184815481106200121a576200121a62001dda565b9060005260206000200154620f424062001235919062001bd9565b62001241919062001bd9565b6200124d919062001df0565b9050836001600160a01b031663a9059cbb86600801848154811062001276576200127662001dda565b60009182526020909120015460405160e083901b6001600160e01b03191681526001600160a01b039091166004820152602481018490526044016020604051808303816000875af1158015620012d0573d6000803e3d6000fd5b505050506040513d601f19601f82011682018060405250810190620012f6919062001f46565b50857f5c8e94c72da12a6d6a1213edafd788896df5fd2d6527a9adeb11f8e5d0be1c4c86600801848154811062001331576200133162001dda565b60009182526020918290200154604080516001600160a01b0390921682529181018590520160405180910390a250806200136b8162001c3b565b91505062001180565b50837f318daf69d77e946364e804495b2184222324b99fddeb42ab5fd25a919f596e8c8460060154604051620013ac91815260200190565b60405180910390a250505050565b60005b6008820154811015620014fb57816008018181548110620013e257620013e262001dda565b6000918252602090912001546009830180546001600160a01b03909216916108fc91908490811062001418576200141862001dda565b90600052602060002001549081150290604051600060405180830381858888f193505050501580156200144f573d6000803e3d6000fd5b50827f7a482fdeb6bc9a1376f597068a214a7a39472bb2eff1b8cad21ba04f49ddca1b8360080183815481106200148a576200148a62001dda565b6000918252602090912001546009850180546001600160a01b039092169185908110620014bb57620014bb62001dda565b60009182526020918290200154604080516001600160a01b039094168452918301520160405180910390a280620014f28162001c3b565b915050620013bd565b505050565b600080546001600160a01b03838116610100818102610100600160a81b0319851617855560405193049190911692909183917f8be0079c531659141344cd1fd0a4f28419497f9722a3daafe3b4186f6b6457e091a35050565b6200156362001068565b6000805460ff191660011790557f62e78cea01bee320cd4e420270b5ea74000d11b0c9f74754ebdbfc544b05a2586200104b3390565b60005460ff16620006b35760405162461bcd60e51b815260206004820152601460248201527314185d5cd8589b194e881b9bdd081c185d5cd95960621b60448201526064016200031a565b6113968062001f6b83390190565b6000602082840312156200160557600080fd5b5035919050565b604080825283519082018190526000906020906060840190828701845b82811015620016505781516001600160a01b03168452928401929084019060010162001629565b5050508381038285015284518082528583019183019060005b81811015620016875783518352928401929184019160010162001669565b5090979650505050505050565b6000815180845260005b81811015620016bc576020818501810151868301820152016200169e565b506000602082860101526020601f19601f83011685010191505092915050565b6001600160a01b038b8116825261014060208301819052600091620017048483018e62001694565b915083820360408501526200171a828d62001694565b9150838203606085015262001730828c62001694565b608085019a909a5260a0840198909852505060c08101949094529190931660e083015291151561010082015290151561012090910152949350505050565b80356001600160a01b03811681146200178657600080fd5b919050565b600080604083850312156200179f57600080fd5b82359150620017b1602084016200176e565b90509250929050565b634e487b7160e01b600052604160045260246000fd5b600082601f830112620017e257600080fd5b813567ffffffffffffffff80821115620018005762001800620017ba565b604051601f8301601f19908116603f011681019082821181831017156200182b576200182b620017ba565b816040528381528660208588010111156200184557600080fd5b836020870160208301376000602085830101528094505050505092915050565b600080600080600080600080610100898b0312156200188357600080fd5b6200188e896200176e565b9750602089013567ffffffffffffffff80821115620018ac57600080fd5b620018ba8c838d01620017d0565b985060408b0135915080821115620018d157600080fd5b620018df8c838d01620017d0565b975060608b0135965060808b0135955060a08b01359150808211156200190457600080fd5b620019128c838d01620017d0565b945060c08b01359150808211156200192957600080fd5b620019378c838d01620017d0565b935060e08b01359150808211156200194e57600080fd5b506200195d8b828c01620017d0565b9150509295985092959890939650565b600081518084526020808501945080840160005b83811015620019a85781516001600160a01b03168752958201959082019060010162001981565b509495945050505050565b600081518084526020808501945080840160005b83811015620019a857815187529582019590820190600101620019c7565b60006020808301818452808551808352604092508286019150828160051b87010184880160005b8381101562001b2a57888303603f19018552815180516001600160a01b0316845261018088820151818a87015262001a478287018262001694565b915050878201518582038987015262001a61828262001694565b9150506060808301518683038288015262001a7d838262001694565b6080858101519089015260a0808601519089015260c0808601519089015260e0808601516001600160a01b03169089015261010080860151898303828b01529194509250905062001acf83826200196d565b92505050610120808301518683038288015262001aed8382620019b3565b925050506101408083015162001b068288018215159052565b50506101609182015115159490910193909352938601939086019060010162001a0c565b509098975050505050505050565b60006020828403121562001b4b57600080fd5b62001b56826200176e565b9392505050565b600181811c9082168062001b7257607f821691505b60208210810362000f2d57634e487b7160e01b600052602260045260246000fd5b60006020828403121562001ba657600080fd5b5051919050565b634e487b7160e01b600052601160045260246000fd5b8181038181111562000699576200069962001bad565b808202811582820484141762000699576200069962001bad565b8082018082111562000699576200069962001bad565b60408152600062001c1e604083018562001694565b828103602084015262001c32818562001694565b95945050505050565b60006001820162001c505762001c5062001bad565b5060010190565b601f821115620014fb57600081815260208120601f850160051c8101602086101562001c805750805b601f850160051c820191505b8181101562001ca15782815560010162001c8c565b505050505050565b815167ffffffffffffffff81111562001cc65762001cc6620017ba565b62001cde8162001cd7845462001b5d565b8462001c57565b602080601f83116001811462001d16576000841562001cfd5750858301515b600019600386901b1c1916600185901b17855562001ca1565b600085815260208120601f198616915b8281101562001d475788860151825594840194600190910190840162001d26565b508582101562001d665787850151600019600388901b60f8161c191681555b5050505050600190811b01905550565b600060018060a01b03808816835260a0602084015262001d9a60a084018862001694565b838103604085015262001dae818862001694565b9050838103606085015262001dc4818762001694565b9250508084166080840152509695505050505050565b634e487b7160e01b600052603260045260246000fd5b60008262001e0e57634e487b7160e01b600052601260045260246000fd5b500490565b60006020828403121562001e2657600080fd5b815160ff8116811462001b5657600080fd5b600181815b8085111562001e7957816000190482111562001e5d5762001e5d62001bad565b8085161562001e6b57918102915b93841c939080029062001e3d565b509250929050565b60008262001e925750600162000699565b8162001ea15750600062000699565b816001811462001eba576002811462001ec55762001ee5565b600191505062000699565b60ff84111562001ed95762001ed962001bad565b50506001821b62000699565b5060208310610133831016604e8410600b841016171562001f0a575081810a62000699565b62001f16838362001e38565b806000190482111562001f2d5762001f2d62001bad565b029392505050565b600062001b5660ff84168362001e81565b60006020828403121562001f5957600080fd5b8151801515811462001b5657600080fdfe60806040523480156200001157600080fd5b506040516200139638038062001396833981016040819052620000349162000300565b81816003620000448382620003f8565b506004620000538282620003f8565b50506005805460ff19169055506200006b336200009b565b62000093336200007e6012600a620005d9565b6200008d90620f4240620005ee565b620000f5565b50506200061e565b600580546001600160a01b03838116610100818102610100600160a81b031985161790945560405193909204169182907f8be0079c531659141344cd1fd0a4f28419497f9722a3daafe3b4186f6b6457e090600090a35050565b6001600160a01b038216620001515760405162461bcd60e51b815260206004820152601f60248201527f45524332303a206d696e7420746f20746865207a65726f20616464726573730060448201526064015b60405180910390fd5b6200015f60008383620001ca565b806002600082825462000173919062000608565b90915550506001600160a01b038216600081815260208181526040808320805486019055518481527fddf252ad1be2c89b69c2b068fc378daa952ba7f163c4a11628f55a4df523b3ef910160405180910390a35050565b620001d4620001f1565b620001ec838383620001ec60201b620005291760201c565b505050565b60055460ff1615620002395760405162461bcd60e51b815260206004820152601060248201526f14185d5cd8589b194e881c185d5cd95960821b604482015260640162000148565b565b634e487b7160e01b600052604160045260246000fd5b600082601f8301126200026357600080fd5b81516001600160401b03808211156200028057620002806200023b565b604051601f8301601f19908116603f01168101908282118183101715620002ab57620002ab6200023b565b81604052838152602092508683858801011115620002c857600080fd5b600091505b83821015620002ec5785820183015181830184015290820190620002cd565b600093810190920192909252949350505050565b600080604083850312156200031457600080fd5b82516001600160401b03808211156200032c57600080fd5b6200033a8683870162000251565b935060208501519150808211156200035157600080fd5b50620003608582860162000251565b9150509250929050565b600181811c908216806200037f57607f821691505b602082108103620003a057634e487b7160e01b600052602260045260246000fd5b50919050565b601f821115620001ec57600081815260208120601f850160051c81016020861015620003cf5750805b601f850160051c820191505b81811015620003f057828155600101620003db565b505050505050565b81516001600160401b038111156200041457620004146200023b565b6200042c816200042584546200036a565b84620003a6565b602080601f8311600181146200046457600084156200044b5750858301515b600019600386901b1c1916600185901b178555620003f0565b600085815260208120601f198616915b82811015620004955788860151825594840194600190910190840162000474565b5085821015620004b45787850151600019600388901b60f8161c191681555b5050505050600190811b01905550565b634e487b7160e01b600052601160045260246000fd5b600181815b808511156200051b578160001904821115620004ff57620004ff620004c4565b808516156200050d57918102915b93841c9390800290620004df565b509250929050565b6000826200053457506001620005d3565b816200054357506000620005d3565b81600181146200055c5760028114620005675762000587565b6001915050620005d3565b60ff8411156200057b576200057b620004c4565b50506001821b620005d3565b5060208310610133831016604e8410600b8410161715620005ac575081810a620005d3565b620005b88383620004da565b8060001904821115620005cf57620005cf620004c4565b0290505b92915050565b6000620005e7838362000523565b9392505050565b8082028115828204841417620005d357620005d3620004c4565b80820180821115620005d357620005d3620004c4565b610d68806200062e6000396000f3fe608060405234801561001057600080fd5b50600436106101215760003560e01c806370a08231116100ad57806395d89b411161007157806395d89b411461024b578063a457c2d714610253578063a9059cbb14610266578063dd62ed3e14610279578063f2fde38b1461028c57600080fd5b806370a08231146101d6578063715018a6146101ff57806379cc6790146102075780638456cb591461021a5780638da5cb5b1461022257600080fd5b8063313ce567116100f4578063313ce5671461018c578063395093511461019b5780633f4ba83a146101ae57806342966c68146101b85780635c975abb146101cb57600080fd5b806306fdde0314610126578063095ea7b31461014457806318160ddd1461016757806323b872dd14610179575b600080fd5b61012e61029f565b60405161013b9190610b99565b60405180910390f35b610157610152366004610c03565b610331565b604051901515815260200161013b565b6002545b60405190815260200161013b565b610157610187366004610c2d565b61034b565b6040516012815260200161013b565b6101576101a9366004610c03565b61036f565b6101b6610391565b005b6101b66101c6366004610c69565b6103a3565b60055460ff16610157565b61016b6101e4366004610c82565b6001600160a01b031660009081526020819052604090205490565b6101b66103b0565b6101b6610215366004610c03565b6103c2565b6101b66103db565b60055461010090046001600160a01b03166040516001600160a01b03909116815260200161013b565b61012e6103eb565b610157610261366004610c03565b6103fa565b610157610274366004610c03565b61047a565b61016b610287366004610ca4565b610488565b6101b661029a366004610c82565b6104b3565b6060600380546102ae90610cd7565b80601f01602080910402602001604051908101604052809291908181526020018280546102da90610cd7565b80156103275780601f106102fc57610100808354040283529160200191610327565b820191906000526020600020905b81548152906001019060200180831161030a57829003601f168201915b5050505050905090565b60003361033f81858561052e565b60019150505b92915050565b600033610359858285610652565b6103648585856106cc565b506001949350505050565b60003361033f8185856103828383610488565b61038c9190610d11565b61052e565b61039961087b565b6103a16108db565b565b6103ad338261092d565b50565b6103b861087b565b6103a16000610a6b565b6103cd823383610652565b6103d7828261092d565b5050565b6103e361087b565b6103a1610ac5565b6060600480546102ae90610cd7565b600033816104088286610488565b90508381101561046d5760405162461bcd60e51b815260206004820152602560248201527f45524332303a2064656372656173656420616c6c6f77616e63652062656c6f77604482015264207a65726f60d81b60648201526084015b60405180910390fd5b610364828686840361052e565b60003361033f8185856106cc565b6001600160a01b03918216600090815260016020908152604080832093909416825291909152205490565b6104bb61087b565b6001600160a01b0381166105205760405162461bcd60e51b815260206004820152602660248201527f4f776e61626c653a206e6577206f776e657220697320746865207a65726f206160448201526564647265737360d01b6064820152608401610464565b6103ad81610a6b565b505050565b6001600160a01b0383166105905760405162461bcd60e51b8152602060048201526024808201527f45524332303a20617070726f76652066726f6d20746865207a65726f206164646044820152637265737360e01b6064820152608401610464565b6001600160a01b0382166105f15760405162461bcd60e51b815260206004820152602260248201527f45524332303a20617070726f766520746f20746865207a65726f206164647265604482015261737360f01b6064820152608401610464565b6001600160a01b0383811660008181526001602090815260408083209487168084529482529182902085905590518481527f8c5be1e5ebec7d5bd14f71427d1e84f3dd0314c0f7b2291e5b200ac8c7c3b925910160405180910390a3505050565b600061065e8484610488565b905060001981146106c657818110156106b95760405162461bcd60e51b815260206004820152601d60248201527f45524332303a20696e73756666696369656e7420616c6c6f77616e63650000006044820152606401610464565b6106c6848484840361052e565b50505050565b6001600160a01b0383166107305760405162461bcd60e51b815260206004820152602560248201527f45524332303a207472616e736665722066726f6d20746865207a65726f206164604482015264647265737360d81b6064820152608401610464565b6001600160a01b0382166107925760405162461bcd60e51b815260206004820152602360248201527f45524332303a207472616e7366657220746f20746865207a65726f206164647260448201526265737360e81b6064820152608401610464565b61079d838383610b02565b6001600160a01b038316600090815260208190526040902054818110156108155760405162461bcd60e51b815260206004820152602660248201527f45524332303a207472616e7366657220616d6f756e7420657863656564732062604482015265616c616e636560d01b6064820152608401610464565b6001600160a01b03848116600081815260208181526040808320878703905593871680835291849020805487019055925185815290927fddf252ad1be2c89b69c2b068fc378daa952ba7f163c4a11628f55a4df523b3ef910160405180910390a36106c6565b6005546001600160a01b036101009091041633146103a15760405162461bcd60e51b815260206004820181905260248201527f4f776e61626c653a2063616c6c6572206973206e6f7420746865206f776e65726044820152606401610464565b6108e3610b0a565b6005805460ff191690557f5db9ee0a495bf2e6ff9c91a7834c1ba4fdd244a5e8aa4e537bd38aeae4b073aa335b6040516001600160a01b03909116815260200160405180910390a1565b6001600160a01b03821661098d5760405162461bcd60e51b815260206004820152602160248201527f45524332303a206275726e2066726f6d20746865207a65726f206164647265736044820152607360f81b6064820152608401610464565b61099982600083610b02565b6001600160a01b03821660009081526020819052604090205481811015610a0d5760405162461bcd60e51b815260206004820152602260248201527f45524332303a206275726e20616d6f756e7420657863656564732062616c616e604482015261636560f01b6064820152608401610464565b6001600160a01b0383166000818152602081815260408083208686039055600280548790039055518581529192917fddf252ad1be2c89b69c2b068fc378daa952ba7f163c4a11628f55a4df523b3ef910160405180910390a3505050565b600580546001600160a01b03838116610100818102610100600160a81b031985161790945560405193909204169182907f8be0079c531659141344cd1fd0a4f28419497f9722a3daafe3b4186f6b6457e090600090a35050565b610acd610b53565b6005805460ff191660011790557f62e78cea01bee320cd4e420270b5ea74000d11b0c9f74754ebdbfc544b05a2586109103390565b610529610b53565b60055460ff166103a15760405162461bcd60e51b815260206004820152601460248201527314185d5cd8589b194e881b9bdd081c185d5cd95960621b6044820152606401610464565b60055460ff16156103a15760405162461bcd60e51b815260206004820152601060248201526f14185d5cd8589b194e881c185d5cd95960821b6044820152606401610464565b600060208083528351808285015260005b81811015610bc657858101830151858201604001528201610baa565b506000604082860101526040601f19601f8301168501019250505092915050565b80356001600160a01b0381168114610bfe57600080fd5b919050565b60008060408385031215610c1657600080fd5b610c1f83610be7565b946020939093013593505050565b600080600060608486031215610c4257600080fd5b610c4b84610be7565b9250610c5960208501610be7565b9150604084013590509250925092565b600060208284031215610c7b57600080fd5b5035919050565b600060208284031215610c9457600080fd5b610c9d82610be7565b9392505050565b60008060408385031215610cb757600080fd5b610cc083610be7565b9150610cce60208401610be7565b90509250929050565b600181811c90821680610ceb57607f821691505b602082108103610d0b57634e487b7160e01b600052602260045260246000fd5b50919050565b8082018082111561034557634e487b7160e01b600052601160045260246000fdfea264697066735822122081f53d33557c96a7f192a47617d2e4018ceb830b8132d07127d2bd7bdff378a264736f6c63430008110033a26469706673582212206690cec202693838d7792581f8e01b032f30f752151745592b6300dc9b6ff28464736f6c63430008110033",
  "linkReferences": {},
  "deployedLinkReferences": {}
}